:10400000001800204DD301004567000049670000FB
:10401000A70A0A010042000004180FAC2069000141
:104020000000000000000000000000000000000090
:10403000000000001C8803000000000000000000D9
:104040000000000000000000FFFFFFFFFFFFFFFF78
:10405000FFFFFFFF006007000000000000000000FD
:10406000FFFFFFFFFFFFFFFF8000000000000000D8
:104070000000000000000000000000000000000040
:1040800000000000000000004C3F00204C3F0020DA
:1040900000180020C0D60300D8580300A00E00204E
:0C40A000700E002000E00700000000008F
:10420000001800204DD301004567000049670000F9
:10421000CDB900004D670000556700004BD3010089
:104220004BD301004BD301004BD301004BD3010012
:10423000596700004BD301004BD301004BD3010061
:10424000CC670000CC670000CC670000CC670000A2
:10425000CC670000E5840000BD930000CC6700003F
:10426000CC670000CC670000E982000049E3000051
:10427000CC670000CC670000CC670000CC67000072
:10428000CC670000CC670000CC6700004BD3010076
:10429000CC670000617A0000CC670000CC670000AA
:1042A000CC670000617B0000397B0000CC67000018
:1042B000CC670000CC670000CC670000FDAB0100BC
:1042C0009DAB010099AB0100FDA20100F9AB01001B
:1042D000A1AB0100C1AB0100A5AB01000D92010033
:1042E00039AC0100CC670000CC6700002D6A0000EB
:1042F000CC670000DDC30000CC6700004BD3010099
:10430000CC670000CC670000D1460000CC670000FD
:10431000CC670000CC670000CC670000CC670000D1
:10432000CC670000CC670000CC670000CC670000C1
:04433000CC67000056
:10433400F8B500BFF8BC08BC9E467047F8B500BF8E
:10434400F8BC08BC9E46704710B5054C237833B9B9
:10435400044B13B1044800E000BF0123237010BDD7
:10436400B821002000000000B8CD030008B5034BBD
:104374001BB10349034800E000BF08BD0000000072
:10438400BC210020B8CD0300154B002B08BF134BF4
:104394009D46A3F5803A00218B460F461348144AE4
:1043A400121A31F060FA0F4B002B00D098470E4BD5
:1043B400002B00D098470020002104000D000D4878
:1043C400002802D00C4800E000BF31F0F5F92000CD
:1043D40029000AF019FA31F0DBF900BF00000800E7
:1043E4000018002000000000000000000021002050
:1043F4004C3F002000000000000000000020704737
:1044040007B5054B0090054A054901200DF066FCEF
:1044140003B05DF804FB00BF855903008E59030007
:104424009359030008B5A52002F036FB012008BD0E
:1044340002F0FCBAF0B50024082787B002463F49D1
:1044440004AE054601200DF049FC74603346009724
:1044540010224FF4A06101208DF80B40ADF80C4000
:1044640004940CF078FA00970DF10B0322464FF4F4
:10447400A06101200CF06FFA314F335D23B1224665
:10448400394601200DF02AFC0134082CF5D19DF8A1
:104494000B202C4901200DF021FC009403AB0222D7
:1044A4004FF4A06101200CF056FA274B274C1D70E5
:1044B40065BB9DF80C30022243F001038DF80C30EB
:1044C40019234FF4A0610093012003AB0CF0F2F91F
:1044D4009DF80D209DF80C3003EB022323801C4B28
:1044E4001B78012B04BF1B4B1B781BB900211A48F6
:1044F4001DF076F921889DF80D3000919DF80C206F
:10450400164901200DF0EAFB07B0F0BD012DF1D1F1
:1045140000238DF80C301923022200934FF4A0617C
:1045240003AB28460CF0C6F99DF80D209DF80C301D
:1045340044F6206103EB02232380D8E71E590300CD
:104544004D59030058590300F9380020043900205C
:10455400F83800201039002008390020625903007F
:1045640030B50024134B85B01C70134B01201D88FB
:1045740008F0A6F8114B2246CDE902044FF4A061DD
:10458400CDE9005409200CF085FB012108460CF00C
:10459400D9FB0CF0B9FB0A4B1B78012B03D1094B57
:1045A4001C7005B030BD002BFBD10122054B1A70E5
:1045B400F7E700BF08390020043900201959030027
:1045C400F938002010390020F0B52E4E91B008AD16
:1045D40000240FCE03270FC596E80F00012685E8B7
:1045E4000F00294DCDE903442846CDE9054407943D
:1045F4008DF80E708DF808608DF809408DF80A402A
:104604008DF80B4005F034FD0521084605F0A6F9A8
:10461400022322461D4928468DF8173005F0A4FDD3
:1046240023468DF819000090224642F21071284664
:104634008DF8237005F0B0FDA4230A9008AA05A9FB
:1046440028468DF809308DF80E408DF811408DF80C
:10465400086005F0C5FD02AA03A9284605F0C8FCB8
:104664000B4AD2F828333343C2F828334FF480225C
:10467400AB6A3343AB62074BC3F884215A6011B071
:10468400F0BD00BFD85803000040004A40420F006C
:1046940000C0034000E100E008B5012302221946EE
:1046A400184605F00DFC03F029FAFFF78DFF41F2DF
:1046B400883103481DF094F80022024B1A7008BD9B
:1046C40014390020103900200000000070B5254E78
:1046D40086B0254C02AD3146284605F0E7FE95E844
:1046E400030084E803002149226801200DF0F6FA52
:1046F400206830F00FFC17A3D3E9002330F084FCCA
:1047040016A3D3E9002330F0A9FD194BC3E9000136
:10471400D3E9000130F08AFE0A22164942430120FF
:104724000DF0DCFA012142F22403C822F15023687F
:1047340008465A4340F6FF73B2FBF3F206AB03F8A4
:10474400012D0822009221220CF0B4F806B070BDAD
:10475400AFF300806666666666660A400000000085
:1047640000FEAF400040004A182F0020F858030014
:10477400B02100200859030000230122034841F21C
:1047840088310370024BDA601DF02AB81439002016
:104794000040004AC37B10B5ABB9C37C032B12D8CD
:1047A400DFE803F002131621017D8289CB1C9A42B3
:1047B40024D38068445C01310CF0D1FD01462046CD
:1047C40009F0A2F9E0B9812010BD09F0F5F9F9E783
:1047D400017D82890B1D9A4210D380680CF0BCFDC8
:1047E40009F034FAEEE7017D82898B1C9A4205D3E5
:1047F40080680CF0B4FD09F03FFAE3E78020E3E7BA
:104804000020E1E7C37B10B56BB9C47C5CB9037DC0
:1048140081899A1C914208D38268591C515CD05CEE
:1048240007F0FAFE18B9812010BD8020FCE720466D
:10483400FAE710B5437D0446012B0CD10368028AC4
:10484400598858790BF044FC28B123685B88032B02
:1048540013D0C32012E0637D002BFAD12368228A8F
:10486400598858790BF02BFC0028F2D023685B8818
:10487400032B02D003D8012BEBD8812010BD202BB1
:1048840007D0B3F5A06FE4D12046BDE81040FFF790
:10489400B9BF2046BDE81040FFF77CBF0120704738
:1048A4000120704701207047B520704770470020F1
:1048B4007047002070470020704700207047002098
:1048C40070470020704700207047704770470020F1
:1048D40070470120704701207047B52070470020C1
:1048E40070470020704700207047002070477047D1
:1048F40000207047B520704700207047704770470C
:10490400002070478420704770470020704770472C
:10491400002070477047002070477047012070479F
:10492400002070470020704700207047034B1B682D
:104934001878012808BF0220704700BF742B00209C
:104944007047704700207047002070470020704770
:1049540000207047002070470020704700207047F7
:1049640000207047002070477047B5207047002032
:1049740070470020704700207047704770477047A9
:10498400B5207047704770470020704770477047E4
:10499400704770470023FF21084A137082F878306B
:1049A40082F8653082F8773082F8793082F87A10AC
:1049B40082F87B30024A1360704700BF4F360020F4
:1049C4001C390020F8B50D468C680A68064628494B
:1049D400202002F0D0FD6B687BB92649202002F02C
:1049E400CAFD202009F094FA2349202002F0D8FDC2
:1049F400BDE8F840202009F08BBA002EF1D01F4DFD
:104A04001F4E204F013C14F8013F23B91A492020BE
:104A140002F0C6FDE5E7752B18D0762B18D0772B5E
:104A240018D0732B18D0722B18D0712B18D0622B7E
:104A340018D06E2B18D02A2B18D01349134A212BC7
:104A440018BF1146202002F096FDDCE72946F9E75D
:104A54003146F7E73946F5E70D49F3E70D49F1E744
:104A64000D49EFE70D49EDE70D49EBE70D49E9E79E
:104A74000D8A03003A5A0300EB590300F859030066
:104A8400EC590300035A0300445A0300415A03003B
:104A94000F5A0300195A0300245A03002F5A030023
:104AA400395A03003E5A0300F0B50026204A92F812
:104AB4007B30184452FA80F090F865C090F8665044
:104AC40030461C4BA5EB0C051F78EDB2F4B2A542A1
:104AD40025D90CEB060313445B7811B10CB92D2BCB
:104AE40017D0782B1FD0582B05D108B137240AE0F2
:104AF400013C012C14D9602B17D8402BF6D83A2B43
:104B040034BF302400241B1BDBB29F4203D900FBBB
:104B140007300136DAE70523002082F87930F0BD4A
:104B240010270020F5E70028E2D05724EBE700BF68
:104B34004F360020B6200020FFF72CBF034B93F81C
:104B4400770093F87B30C01AC0B270474F3600200C
:104B54000021FFF7A9BF000010B50A4B93F87B2092
:104B6400024453FA82F292F8652013445C78A4F16B
:104B74002D0359425941FFF797FF2D2C08BF40429E
:104B840010BD00BF4F36002030B50C4A92F87B3080
:104B94000344C043DBB2C00F39B1D51895F8664061
:104BA40095F86550641B241A0C7042FA83F393F849
:104BB40065301844024B184430BD00BF4F36002006
:104BC400503600202DE9F34115460F460DF107013B
:104BD4001C46FFF7D9FF9DF807308046AB4288BFDB
:104BE4008DF807509DF807600CB1AC1BE4B2224667
:104BF4000021384630F037FE32464146381930F04D
:104C040019FE304602B0BDE8F08138B50C460123E8
:104C14000822FFF7D7FF04F10803621E043413F8D7
:104C2400011D12F8015FA3421D701170F7D138BD48
:104C340038B5054601460120FFF7C4FED5E9014316
:104C44006CB91C46084D236863B12946202002F044
:104C540092FC21460020FFF7B5FE0C34F3E71B78E5
:104C64006E2BEFD038BD00BFDDA4030008B50449A6
:104C7400202002F080FCBDE80840202009F048B95B
:104C8400AC59030038B5FFF7F1FF0024054D611955
:104C94000C34631953F80C3C03B938BD0020FFF7FA
:104CA40091FEF4E7986603002DE9F84F1F4B204D61
:104CB40053F820201F49202002F05DFC2B681BB90B
:104CC400BDE8F84FFFF7DEBF1B4FFFF7CFFF00260D
:104CD400B946DFF86CA097F87B30F4B2013B9C42F4
:104CE40004DB2868BDE8F84FFFF7A2BF47FA86F354
:104CF40093F8658000234C44C84494F8662094F8E3
:104D0400651003F1010B521ADBB2D2B2934205D300
:104D14000A49202002F02FFC0136DCE743445A788C
:104D24005146202002F027FC5B46E6E7581C002091
:104D34001C390020A75903004F360020DEA40300CD
:104D4400ECA703002DE9F74F884C94F87730002B3B
:104D540000F0A180864B671C1B7813F0010F1FD055
:104D64000025844E14E0631993F8662093F86530A7
:104D74002020D21A44FA85F393F86510D2B239444C
:104D840009F0C1F83146202002F0F5FB0135EDB2FF
:104D940094F87730AB42E6D87749202002F0EBFB59
:104DA400002694F87730DFF8DCE10193734B4FF081
:104DB4000008714645461EF8012B91F801C007EB27
:104DC400020AACEB020C5FFA8CFC1868002852D083
:104DD4000138D14619E02AB9002D4AD04FF0010814
:104DE4000C33F2E719F8011BA1F1410BBBF1190FC8
:104DF40098BF2031A2F1410B98BFC9B2BBF1190F82
:104E04009CBF2032D2B28A42EAD1A9EB0A016145A1
:104E140010F8012FDFD1002ADED11D46584B013690
:104E24001D6094F87B30F6B2013384F87B30D5E909
:104E34000123002A35D01B786E2B31D03F2B23D091
:104E44004FF000094FF0070BC846042394F877107D
:104E5400AA68B14212F808702BD8AFB1904498F800
:104E640001302A2B10D0212F1CBF032384F8793062
:104E74000AE01D46B4E7B8F1000F01D1002DCDD1F1
:104E84000223002584F8793094F87900002869D148
:104E940068680BF05FFF03B0BDE8F04FFFF77ABD21
:104EA4001346019AB24282D803221D4684F879201F
:104EB400EAE7732F09D8712F0BD2212F1FD0622F4D
:104EC4003CD0002F4BD1032246E0A7F17502022A01
:104ED40045D8752F29D0762F2AD0732F2BD0722F37
:104EE40047F6FF7A18BF4FF0FF3A01214846019375
:104EF400FFF7DAFD5045019B01D984F87930AA689F
:104F0400424452782A2A94F879201CBF08F10108F7
:104F14005FFA88F8002AB7D1212F1FBF013609F1A3
:104F24000109F6B25FFA89F990E74FF0FF0ADCE76E
:104F34004FF6FF7AD9E74FF07F0AD6E794F87B2043
:104F44004A4454FA82F292F8652022445278222A82
:104F5400D5D07B2AD3D0052284F87920CFE784F8F2
:104F640079B0CCE7FFF7A0FE95E700BF4F360020ED
:104F7400F9360020DEA40300E95903009866030013
:104F84001C390020B43600202DE9F34106460D46B5
:104F94004FF000085C4C5D4F66B90DF107012846DF
:104FA40008F0AAFF78B1262800F0A980012384F82C
:104FB40079304BE0002D00F0A28016F8013B013D52
:104FC4008DF80730EDB23A789DF807300D2A3B7022
:104FD40001D10A2BE0D00D2B0CD0A3F10A025142CF
:104FE400514122788846042AD6D8DFE802F0051D0C
:104FF400263C31000121F4E721B1FFF7A3FE4FF075
:105004000108C9E7202B63D0222B07D10223237088
:1050140094F87820642A5DD10623C8E77B2B01D15C
:105024000323F4E70123F2E709B9202BF0D194F824
:105034007730112B3FD10323B9E7222BF7D0002976
:10504400E6D005234FF0010884F879300423237057
:10505400B8F1000FA0D094F8790008B1FFF724FE4E
:10506400FFF798FC98E77D2B94F87A0003D1FF288A
:10507400DDD005239BE7602B13D8402B13D8392BA5
:105084008CBF002230229A1AD2B20F2A10D8FF28DD
:105094000BD0FF2302EB00128DF8072084F87A303E
:1050A400B6E75722EFE73722EDE784F87A2073E773
:1050B400202BDED170E70133DBB294F8782084F83A
:1050C4007730234483F8652000232370002994D18A
:1050D400884661E72378012B09D19DF80730A3F1B5
:1050E400410119299CBF2033DBB28DF807309DF8AC
:1050F4000710A3180132597084F878204CE7404611
:1051040002B0BDE8F08100BF4F3600204C370020CC
:1051140049BA89B24840C0F303114140080380B240
:105124004840C3B280EA431070471BF031B870475F
:1051340070477047704770477047704770477047B3
:1051440070477047704770470020704770470020D1
:1051540070477047704700207047002070477047C1
:1051640001207047012070477047704770477047AF
:1051740070477047704700002DE9F0470024204D28
:10518400DFF89C90DFF89CA05FFA84F840461CF09E
:105194003FF8FF2806460CD122461A49287802F027
:1051A400FFF92878013408F0B3FE152CECD1BDE8E2
:1051B400F087154B47B213EA270338BF534659F813
:1051C40024201249287802F0EBF9002FE9DA14B10F
:1051D400B8F1030F08D10E4B16F0010F0D492878D2
:1051E40018BF194602F0DCF90A2CDAD10A4B16F082
:1051F400010F0A49287818BF194602F0D1F9D0E7FF
:10520400F7200020655B0300EB5903008D5B03006E
:10521400285B03003E5B0300505B03005A5B030002
:10522400D45A0300E3A2030082B2074B4AB1000C34
:105234001A8008BF4FF6CE22044B14BF18801A8080
:1052440070474BF6EF62F2E77C2000207E200020BE
:10525400094B1888020448BF80F0620042001A809B
:10526400064A1388190444BF83F4805383F00B0364
:1052740059001180584070477C2000207E20002077
:105284000022034B1870034B1970034B1A707047BC
:105294004136002040360020473700202DE9F04FEA
:1052A400214E85B0337807468846002B39D04FF617
:1052B400FB73984235D81D4B4FF0000B9A461C4D9A
:1052C4002C7832785FFA8BF94A45187811D948441A
:1052D40002A9C0B2019326F053FA082241460DEB0D
:1052E400020030F08DFA0BF1010B019B0028E8D18C
:1052F4004C462B78A34207D1631C3278DBB29A4226
:105304002B7004BF00232B709AF8003041461C44D4
:10531400E4B2204626F072FB18B93946204626F03E
:10532400FDF905B0BDE8F08F40360020413600207D
:1053340047370020024B187800F07F00704700BF09
:10534400BB370020034B18780130C0B2187000F04E
:105354007F007047BB3700201FB5030A8DF80E305D
:105364000323009303AB8DF80D0000F0C7F905B0DB
:105374005DF804FB1FB58DF80F100421030A8DF8A6
:105384000E30009103AB8DF80D0000F0B7F905B0B5
:105394005DF804FBF0B589B01768BDF838509DF886
:1053A4003C60CDF8097057688DF81250012E4FEA11
:1053B4001525DDF840C0BDF84440CDF80D708DF8DA
:1053C40011308DF813508DF8146016D0032E1BD1B4
:1053D400DCF80030CDF81530DCF80430CDF81930A5
:1053E4009DF848308DF81D3016230093BDF84C20ED
:1053F40002AB00F083F909B0F0BD8DF81540240A22
:105404008DF816400F23F0E70120F4E71FB50C4692
:10541400194602238DF80D2000930A4603AB01467A
:10542400204600F06BF904B010BD10B51C460B68A3
:1054340086B0CDF80D304B688DF81520CDF81130BD
:105444000A2322460093342103AB00F057F906B037
:1054540010BD000030B5002485B0ADF80A20021D4F
:1054640092B2012A1D46ADF80840ADF80610ADF819
:10547400044003D94FF6FF72904207D1064A2B46E7
:10548400127801A924F008FA05B030BD014601AA3A
:10549400204624F0C7FAF7E7FE2000202DE9F04F5C
:1054A400834689B00C461F4690463AB310461CF01A
:1054B400A7FDC0F3470A1FB338461CF0A1FDC0F393
:1054C4004709FFF73FFF4FEA1B238DF818008DF8BB
:1054D4001B400022240A062106A88DF819B08DF875
:1054E4001A308DF81C408DF81DA01CF09DFEADF8FF
:1054F400160038B9182009B0BDE8F08F9246DAE7F3
:10550400B946DEE74FEA4A01CBB2DC1DE4B204EB54
:105514004901C9B20DF1160001931DF078F8002875
:10552400E8D10646F2B29245BDF8163015D8019975
:105534004A46063101F0FE0118461DF0D9F800264E
:10554400F5B2A945BDF816802AD84346BDF84820CF
:1055540006215846FFF77EFFCDE75500EDB22946F8
:105564004046039302921DF0AFF8029A039BD11CAC
:105574004900024601F0FE0118461DF0B9F8BDF8D5
:105584001630691CC9B2404602931DF09DF8029B77
:10559400E91D0246C9B218461DF0AAF80136C1E752
:1055A4006D00EDB2294638461DF08EF821460246BC
:1055B40040461DF09DF8691CC9B23846BDF81680F6
:1055C4001DF082F8611C0246C9B2404602341DF047
:1055D4008FF80136E4B2B3E7F0B589B00E4602A9FC
:1055E40005460AF021F9002800F08180FFF7AAFEA1
:1055F4008DF810001BF0EAFF8DF811001BF0E6FF98
:105604003D4A000A13688DF81200CDF81330536830
:105614000F21CDF81730BDF8083000228DF81C306A
:105624001B0A8DF81D309DF80D3004A88DF81B5011
:105634008DF81E301CF0F8FDADF80600002858D097
:1056440000279DF80D30FAB2934207F1010718D8EC
:1056540001230DF10E011A460DF106001CF020FE87
:1056640000279DF80E30FAB2934207F1010723D8C0
:10567400BDF80630324620210020FFF7EBFE09B0CA
:10568400F0BD002128460AF0FBF801238DF805003F
:105694001A460DF1050104460DF106001CF000FE4A
:1056A4000123240A1A460DF105010DF106008DF8B7
:1056B40005401CF0F5FDC4E7012128460AF0E0F896
:1056C40001238DF805001A460DF1050104460DF17C
:1056D40006001CF0E5FD0123240A1A460DF105011C
:1056E4000DF106008DF805401CF0DAFDB9E7A320A2
:1056F400C5E71820C3E700BF403F00202DE9F04173
:105704001C460E4617469DF818800546FFF71AFEFC
:1057140000222070414620461CF086FD034630B12D
:105724003A4631462846BDE8F041FFF793BE1820BB
:10573400BDE8F08108B5FEF7AFFF0DF085FBBDE8CD
:10574400084005F067BD08B5FFF7D8F80DF0A6FBD3
:1057540005F020FFBDE8084007F014B908B5FFF7CD
:10576400CEF8BDE8084007F08BBBFFF7EFB8FFF7B2
:10577400F3B80020704738B504460D46FFF706F924
:1057840029462046BDE8384009F07CB8FFF7E6B862
:10579400FFF7F1B84022032101200EF08FB8012257
:1057A400032110460EF08AB80022032101200EF0D6
:1057B40085B80222032101200EF080B800224FF4A4
:1057C400A06109200EF07AB801224FF4A0610920EB
:1057D4000EF074B80122002109200EF06FB80023E6
:1057E40007B5CDE90033012369464FF0FF308DF84A
:1057F40002300FF0D3FD003018BF012003B05DF874
:1058040004FB01207047012070470120704700000D
:105814002DE9F74F07460D46144699464FF0010B04
:10582400DFF8708003F10C0A15B903B0BDE8F08FFE
:10583400102D2E4628BF10264946154AF3B251F8BA
:10584400040B514542F8040BF9D101939AF8001066
:1058540010481170002288F80F4088F80E2088F84C
:1058640000B026F067F93A4601340B48019BE4B2D4
:1058740012F8011B10F801CF81EA0C0102F8011C97
:10588400D11BC9B29942F3D3AD1BADB21746CBE7D6
:10589400FD360020FC360020FB3600202DE9F04FB9
:1058A40085B002930F9B8046019303461646BDF8CC
:1058B4003890344A0D4600F10C0153F8040B8B4226
:1058C40042F8040BF9D11B784FF0020A13704923F4
:1058D4002D4C237020464FEA1923A37384F80F90AC
:1058E400A34626F027F95246237883EA1623237029
:1058F40063787340637000271EE0C2F11001F31B4C
:1059040089B29BB28B4228BF0B462946501B039099
:105914000398A1EB050C1FFA8CFC08189C45C0B237
:105924001AD31A44D2B21F44102A1D44BFB203D161
:10593400204626F0FFF80022B742DED312B15846C3
:1059440026F0F8F8BAF1010F4FF00002029D4E461E
:105954000BD04FF0010ACEE711F801CB1BF800E0A1
:105964008CEA0E0C0BF800C0D2E7074B01991B68B8
:1059740001980B604346042105B0BDE8F04FFFF7E2
:1059840047BF00BFFD360020FC360020F7B5099F55
:10599400BDF820400646CDE900471D46FFF77EFFCF
:1059A4002CB13346012221462846FFF731FF00205F
:1059B40003B0F0BD2DE9F7431E46054688469146DF
:1059C400BDF828700D4C0346394630460122FFF7D6
:1059D4001FFF33464A4641462846CDE90074FFF787
:1059E4005DFF042221460B982FF00AFF002814BF04
:1059F4007E20002003B0BDE8F08300BF4A360020BB
:105A040073B51C46044D8B181E59CDE900452E6014
:105A1400FFF7D0FF02B070BD96370020002070471A
:105A2400002070470020704770477047F7B5002486
:105A3400094E0A4F0A4D56F8243003B93B6835F82D
:105A44001420084900920120224601340CF046F942
:105A5400292CF0D103B0F0BD981F00204C20002069
:105A6400503D00201E71030008B5FFF7DFFFBDE8BD
:105A7400084000F0F1B8000007B50020FFF768F80F
:105A8400C2B2282A0DD8084B53F822300BB9074B61
:105A94001B680749012031F81210009105490CF0E8
:105AA4001DF903B05DF804FB981F00204C20002072
:105AB400503D00201E710300FFF7B8BF704700007F
:105AC40038B50020FFF744F804460120FFF740F8FA
:105AD4000546054901200CF001F9A9B2E0B2BDE880
:105AE400384000F0D1B800BF29710300F7B5002495
:105AF400094E0A4F0A4D56F8243003B93B6835F86D
:105B04001420084900920120224601340CF0E6F8E2
:105B1400292CF0D103B0F0BD981F00204C200020A8
:105B2400FE3C00201E71030073B502AB03E90600BE
:105B34000446019D1BF094F9064620461BF09EF98D
:105B44009DF800008EB1202C0FD82B78012B37D86C
:105B54004FF6FF75394903EB4313234431F81320FF
:105B6400AA4202D0013221F813204FF6FF72344BBF
:105B7400344933F8146031F8145096421CBF721C37
:105B840023F8142004F0FD02092A31D19A8A898A63
:105B940002448A42B4BF9A82998233F81430AB42E9
:105BA40004D3AE4202D22046FEF7B1FE0025264BB6
:105BB400EA5CA24228D00135112DF9D102B070BDA2
:105BC400022BD2D14FF6FF714FF6FF751B4B33F802
:105BD40014208A421CBF013223F8142004F121024C
:105BE40033F81210A9421CBF013123F81210BCE78C
:105BF4001D2CD2D15A8F1118A942BDBF02F1FF3218
:105C040012185A875D87C8E718F085F80F4B0446C9
:105C14001B78834203D8DD210D4800F031FA4FF69A
:105C2400FF710C4A04EB04142C4432F814308B42F8
:105C3400C4D0013322F81430C0E700BFA23D0020D5
:105C4400503D0020FE3C002095740300D420002029
:105C540011740300DC3C00205222002101482FF083
:105C640002BE00BF503D00205222FF2101482FF008
:105C7400FABD00BFFE3C002008B5FFF7EDFFBDE80C
:105C84000840FFF7F1BF0000014B23F810107047E4
:105C9400FE3C0020032310B50F4C1022C4E904334A
:105CA4000E4B0F49E3610023A16121660D49E01DFC
:105CB400C4E919120C49A3626362E3622367E366D1
:105CC400636722622FF0E1FD084920462FF0DDFDD5
:105CD4002023A37110BD00BF003800202F36002000
:105CE400A67403001F360020AF740300B3740300CE
:105CF4002DE9F84F1F4B16461A7881468A46984676
:105D04000AB9FFF7C7FF182707FB09873D6FD7F8C4
:105D14006CB05D452BD9BC6E796E641BB44228BF50
:105D240034462944504622462FF079FDBB6E254463
:105D3400AB4208BF0025A244361BABEB050B5E4506
:105D440028BF5E4656B1182303FB0983596E3246B9
:105D5400294450462FF063FD3444354424B11823BC
:105D640003FB0988C8F870502046BDE8F88F00246A
:105D7400E3E700BF00380020F8B504460E46174696
:105D840003F0A5FF3A46054631462046FFF7B0FF2B
:105D94000446284603F0A1FF2046F8BD2DE9F84348
:105DA400124D1E462B788146884617460BB9FFF7DD
:105DB40071FF03F08CFF00244FF0180C69690CFB91
:105DC40004535A6E2AB10134A142F8DC4FF0FF3477
:105DD40007E0A142FADDC3E918989F661A67DA66FC
:105DE4005E6703F07AFF2046BDE8F88300380020A0
:105DF400FFF750BF70B54FF060441A4B00261A6885
:105E0400194D42F001021A60DA680C2042F08072E7
:105E1400DA60164BC4F8B03F0223C4F8006EC4F82D
:105E2400806EC5F8F03003F05BFC114B00F5D52013
:105E340000F2FC40B0FBF3F00E4A0F4B013828612E
:105E4400C4F8406E1A600D4BC4F8803E4FF4807362
:105E5400C5F80433D4F8003E43F48073C4F8003E1C
:105E640070BD00BFF0ED00E0000004E055CEACC50D
:105E7400F8590D00FF030040001000E00D00010080
:105E840010B501240F4B00201C6003F0BDFF234616
:105E940004220321002004F013F820460EF00AFF28
:105EA400FFF7A8FF0EF007FF074B1C70FFF7A0FFDA
:105EB4002346402205490648FFF770FF054B18604A
:105EC400C00F10BD44D40340D03600205637002004
:105ED400BA740300C01E002038B5194C03F0F7FE55
:105EE4002378022B05BF032300250125237003F02B
:105EF400F4FE25BB4FF06043D3F8802ED10711D5B3
:105F040010490A6822F440620A60D3F8802E22F015
:105F14000102C3F8802ED3F8802E1202FBD4642031
:105F240017F05DFA0023084AC2F8F030C2F80433CF
:105F3400A2F54432A2F5047213600123237038BD24
:105F4400D0360020001000E0000004E0024B186886
:105F5400003018BF01207047F0ED00E0D123054A5E
:105F6400037013784170090A8170591CC370117051
:105F7400042070479B3700202DE9F74F0E788346A5
:105F8400042E0F4661D917F0D7FADFF8C480824691
:105F94004FF6FF710024C146751DEDB2D8F80030EC
:105FA4005BB1A54209D9019117F0C6FAA0EB0A002A
:105FB40080B2B0F5FA7F019907D9281B18BF0120D8
:105FC40004233B7003B0BDE8F08FB4B3012C37D089
:105FD400EA1E631C9442DBB21CD1CCB24FF0604287
:105FE400D2F8800EC00713D51046D9F80CC04CF077
:105FF400807CC9F80CC0D0F800CE4CF4807CC0F88A
:1060040000CED0F820C0BCF1000FEED082F82040C2
:106014001C46C3E7AA1E944202D1C1F30724DDE75C
:106024006A1E94420FD05C4414F8024C019320463B
:10603400FFF76EF8019B0146D0E75B240123CDE70F
:1060440034460223CAE75D24C8E70020B8E700BF4E
:10605400F0ED00E000B5084B91B0402269461868A5
:10606400FFF78AFE20B1C2B2694612200EF0D2FDBB
:1060740011B05DF804FB00BFC01E002042DE704773
:1060840038B504460D4600F001FD03F018FE29461C
:1060940020460EF08BFD2B4622460549012007F0D1
:1060A4003DFF29462046BDE83840FFF7E7BF00BF63
:1060B400CA7403006D4B2DE9F0415A686C4CA2651B
:1060C4005A6AE2656B4AD2F800122166D2F80422B9
:1060D40062669A6AA266DA6AE2661A6B22675A6B89
:1060E4006267A26BDB6B12F0040FA367D4E90F5352
:1060F40018BF1D4617F0C4F90022854203466065A7
:1061040022655DD35C4A95425AD8AA696264E969FA
:10611400A164B4F85810C1F30801062954D15749B1
:106124008A4251D356498A424ED211884DF6426270
:10613400914249D140F201706268C4F89420A26887
:10614400C4F898204F4A5049934238BF13460A4630
:106154008B423CD3D31AE3640023C4E91F33C4E95C
:106164002133C4E92333484E444FDFF814C1AE420F
:1061740033D8D4E91FC7D4E92165D4E923124FF0F9
:10618400000E013BDBB2FF2B42D1BEF1000F05D064
:10619400C4E91FC7C4E92165C4E92312B4F858301F
:1061A400C3F30803052B57D03CD8032B47D0042B4B
:1061B40058D040F60722013B4B2B98BF104640E0D5
:1061C40000221D46C4E911224FF42060BAE71E687C
:1061D400B6F1CD3FBED10433BAE756F8042DBA4226
:1061E400C5D36245C3D2D107C1D5002104EB010E4A
:1061F400DEF87CE09645BAD004311829F6D10BB903
:10620400052301E0013BDBB204EB8301CA67AEE77F
:10621400E0464FF0010EBC4637462E460D46114669
:106224004246AEE70C2B1AD03B2B0CD0062BC0D128
:1062340040F60423B0F5206F08BF184601E040F68D
:106244000120BDE8F081114B9B6913F0020F40F26D
:10625400025318BF1846F4E740F60320F1E740F66E
:106264000520EEE740F60220EBE700BF00ED00E07A
:106274000000002000E100E0E01700204C43000093
:10628400D85803009C000020001800200080014A18
:1062940010B504F003FA044604F0F8F900220121D1
:1062A40001FA02F3234014D01B4B33F812301B4A7B
:1062B400062B13D040F207218B420DD118491948FF
:1062C4000C68844208D14CF23C334B800B88138019
:1062D40012E00132102AE3D1104AF8E74FF20F011D
:1062E4000F4B5888884214D11988B1F5406F10D2E9
:1062F40011804CF23C325A80084B1A8840F20173E8
:106304009A4201BF084B094AD2E90001C3E90001DE
:1063140010BD4FF4C061EBE7DE740300F8330020D6
:106324000000002007020FF0202F0020940000201E
:10633400014B1888000A7047F8330020014B188875
:10634400704700BFF83300202DE9F04F4D4C05464F
:10635400A36BD4F850B05A0747BF0027B846D4F807
:106364004CB0D4F85480D4F840A05DBF464FD4F864
:106374003CA0DFF83C91DFF83C9113F0080F434B4D
:10638400434A18BF1A46B7EB08061FBF64217308B7
:1063940001FB0B33B3FBF6F387B01CBF9BB2059331
:1063A4003C494B46CDE9017ACDF8008008BF0596FB
:1063B40001F0F6F8B3B2CDE900931FFA8BF2059B16
:1063C4003549284601F0ECF8A36B5B070AD49C3EE0
:1063D4005E4507D1626D314B9A4203D2304928465B
:1063E40001F0DEF8BA4501D8C24504D24A462D4927
:1063F400284601F0D5F8284607F08AFD236E0BB92C
:10640400636EBBB32849284601F0B5F8002601277E
:10641400DFF8A480DFF8A490226E07FA06F3134293
:1064240007D058F8262013781BB14946284601F0B6
:10643400A2F80136202EEFD100260127DFF878805C
:10644400DFF87890626E07FA06F3134209D008EB7E
:106454008603D3F8802013781BB14946284601F0FF
:106464008AF801361D2EEDD1284607B0BDE8F04F5D
:1064740001F090B828460D4907B0BDE8F04F01F08F
:106484008FB800BF0000002000180020E777030049
:10649400EE770300F6770300247803009C000020C5
:1064A4005D78030089780300A7780300D678030099
:1064B400E27703002D920300EC7803000C8A0300BA
:1064C4002DE9F8430446FFF739FF40F601239842CB
:1064D40039D010D840F2025398421DD040F20173D3
:1064E400984224D040F20153984213D16549204682
:1064F40001F056F822E040F6032398426CD03DD3D5
:1065040040F60423984200F09C8040F6052398420C
:1065140000F0B580BDE8F8835B49204601F040F8FF
:106524005A4B5B495A6C204601F03AF806E0574A48
:106534005849D2E92523204601F032F82046BDE827
:10654400F84307F0E5BC514D5349204601F028F8C3
:1065540095F86C309F0703D55049204601F020F888
:1065640095F86F305E0603D54D49204601F018F8C2
:1065740095F96F30002BE1DA4A49B8E7434D4A49AF
:10658400204601F00DF895F86830980704D06A6C3D
:106594003F49204601F004F895F96830002B04DAED
:1065A4006A6F4249204600F0FBFF00260127DFF80E
:1065B4000881DFF81491AA6E07FA06F3134207D094
:1065C40058F8262013781BB14946204600F0E8FF0E
:1065D4000136082EEFD1B1E72C4D3549204600F0A5
:1065E400DFFF2B496A6C204600F0DAFF95F869302A
:1065F400590703D52F49204600F0D2FF95F9693099
:10660400002B04DA6A6F2949204600F0C9FF0826E6
:10661400294FDFF8B480AB6EF340DA0707D557F89B
:10662400262013781BB14146204600F0B9FF0136FD
:10663400102EF0D195F86830002B7FF47FAF1F49FE
:1066440055E7124D1E49204600F0AAFF6A6C104916
:10665400204600F0A5FF1026174FDFF86C80AB6EC4
:10666400F340DB0707D557F8262013781BB14146C2
:10667400204600F095FF01361A2EF0D15EE711494D
:106684004BE700BF71750300AE75030000000020E6
:10669400DE750300F7750300117603002976030005
:1066A4006376030096760300D2760300F776030040
:1066B4001B7703003277030000750300787703002B
:1066C400A8770300C1770300137703002DE9F84F7F
:1066D40006460025154C164FDFF85C80DFF85CA0F9
:1066E40023785FFA85FB0BB9BDE8F88F57F8043BB4
:1066F40022461049304600F03EFF227804F1010999
:1067040082B9627882B10BF0030103290CBF4146C0
:106714005146304600F02FFF304607F0F9FB0135B3
:106724004C46DDE74C46E8E74146F2E7E0790300F2
:106734000400002068750300E9590300F394030082
:1067440000F00CB800F00AB800F008B800F006B881
:1067540000F004B800F002B800F000B872B61EF001
:10676400080F09D01EF0040F0DD0DFF850E0AEE89A
:10677400FF1F6FF002000CE0DFF840E0AEE8FF1FFF
:106784006FF00E0005E0DFF834E0AEE8FF1F6FF0B5
:1067940006006946EFF309828EE80700864608483A
:1067A400084C854501D3A54501D384F30888FFF738
:1067B40081FC84F3088816F03FFE000004000020EA
:1067C400E00E002000180020FFF7C6BF704700004D
:1067D40000F07E63B3F17E6F70B505460E46144635
:1067E40016D106F029FA18B19A210D48FFF748FC92
:1067F40022463146C5F30B0004F00CF8044606F0BB
:1068040029FA5CB19D21BDE870400548FFF738BC0A
:10681400520816F0AFFD08B18F21F4E770BD00BF38
:106824000081030037B57F2A14BF154600254BF2BB
:1068340034629142044619D17F2241F20201684632
:106844000823FFF7EFFF0822264968462EF0D8FFF9
:1068540030B908237F2241F2F0116846FFF7E2FFC6
:106864006B4603CB2060616003B030BD41F2F0128F
:10687400914219D11C4901388A6CC96C1D1F002B27
:10688400F2D0013B9D4200F8012F4FEA1222F6D1CB
:10689400002203349A42E7D00132042A04F8011F8B
:1068A4004FEA1121F6D1DFE701F47042B2F5805FBF
:1068B4000BD11A46C1F30B0404F17E6403FB0541BA
:1068C40003B0BDE830402EF0AABF01F46042B2F537
:1068D400005FC9D1C1F30B0404491A46214403FBE8
:1068E4000511EDE77A8103000080E00F00E0070066
:1068F40070B5054616461C46DBB14BF2346399422B
:1069040010D1082C28BF08247F2241F2020123461B
:10691400FFF788FF2246074928462EF071FF40B949
:1069240041F2F011234632462846BDE87040FFF795
:1069340079BF70BD7A8103002DE9F7430446E0076F
:106944000F46154603D5DD213448FFF799FBE907C7
:1069540003D5DE213148FFF793FB04F47043B3F50C
:10696400805F3ED1C4F30B0404F17E646B1E2C4A99
:1069740023449342264603D9E3212848FFF780FBAA
:10698400DFF8989006EB050846453DD1A2070ED0E6
:106994004FF6FF7337F8022B02A943EA0243A01E05
:1069A40041F8043D0422FFF713FF0234023DAB0714
:1069B4000ED0023D25F00103FB5A02A96FEA0343FE
:1069C4006FEA1343042241F8043D6019FFF700FF06
:1069D40025B12A4639462046FFF7FAFE03B0BDE842
:1069E400F08304F46043B3F5005F05D10D4BC4F3A9
:1069F4000B041C442646C3E7EA210848FFF740FB82
:106A04006FF00F060024BBE716F8013BFF2BBBD049
:106A1400F4214846FFF734FBB6E700BF00810300CA
:106A2400FF1FE00F00E00700FFF78ABE1FB5144AFE
:106A340001AB10685168128903C31A8001238DF8D1
:106A440004300D238DF80A3003230E4C0821242032
:106A54008DF80B3002F082FF01A9204604F04FF9B3
:106A64004FF40061022342F21800074AC2F884116D
:106A74002350516041F21C02A35004B010BD00BF6A
:106A8400828103000080014A00E100E0014804F033
:106A940025B900BF0080014AA52803D1002102487E
:106AA40004F00DB9704700BF0080014A024B5868DA
:106AB40000F00100704700BF0080014A024A536A97
:106AC400002BFCD1704700BF0080014A00207047B2
:106AD400002070477047000007B572B603F0EFF866
:106AE4008D4B8E495B6940228B6000230B764B767D
:106AF4008B76F023CB760B774B778B77CA77802214
:106B040081F8202081F82130E023602081F82230B0
:106B1400834B81F8232083F8002383F8012383F82F
:106B2400022383F8032383F8042383F8052383F8DB
:106B3400062383F8072383F8082383F8092383F8BB
:106B44000A2383F80B2383F80C2383F80D2383F89B
:106B54000E2383F80F2383F8102383F8112383F87B
:106B6400122383F8132383F8142383F8152383F85B
:106B7400162383F8172383F8182383F8192383F83B
:106B84001A2383F81B2383F81C2383F81D2383F81B
:106B94001E2383F81F2383F8202383F82103202056
:106BA40083F8222383F8232383F8242383F82523DB
:106BB40083F8262383F8272383F8282383F82923BB
:106BC40083F82A2383F82B0383F82C0383F82D23DB
:106BD40083F82E2383F82F2383F8302383F831237B
:106BE40083F8322383F8332383F8342383F835235B
:106BF40083F8362383F8372383F8382383F839233B
:106C040083F83A2383F83B2383F83C23CB6823F4AB
:106C1400E0631B041B0C43F0BF6343F40133CB60FC
:106C24004B6943F010034B614FF4E0234B6204F0D3
:106C34007BFEFFF72DFBEFF308834FF0CD31394A8C
:106C4400043B934265D2384A002192B237482EF071
:106C54000AFE62B6684603F005FE354B9B6DDB0306
:106C640018D4344A136823F4FF0323F4FE4343F493
:106C7400BC1343F4A063136052F8043C23F4704340
:106C840043F4404342F8043C52F8043C43F4E063C8
:106C940042F8043C9DF80130012B0FD19DF80030DF
:106CA40063B94FF000531B68234B1B68234B1B68CD
:106CB400234B1B68234B1B68234B1B68234AD2F8C6
:106CC400803043F00303C2F8803005F09EF90222BD
:106CD4004FF040231A6704F091FD01F08BFB002371
:106CE40000938DF80430012368468DF8033003F0D7
:106CF40082F800F0F5F816F031FC05F089F900F09F
:106D0400FFF80EF09DFD12480DF0DEFF03B05DF8B4
:106D140004FB1960043B94E70040000000ED00E030
:106D240000E100E0A00E0020D00D0000A000002033
:106D340000C0004034C0004000400020008000201B
:106D440000C000200000012000400120008000401D
:106D540048AC030040F2016016F06EBB04F04CBD79
:106D640004F04BBDFEF760BE08B500210B20FEF712
:106D740059FEBDE80840FEF758BE08B1FDF708BE4D
:106D8400FDF705BE032000F09FBA000008B5FFF729
:106D9400CFFA044B0B289ABF00B203EB80001846CD
:106DA40008BD00BFCC82030008B5FFF7C7FA044B47
:106DB400C0F30F2253F82230C0B203EB800008BDA9
:106DC4009C82030010B5FFF7B3FA0446FFF7B6FA46
:106DD400C0B228B9012C24D164F07F04E4B216E0D7
:106DE400072CF9D801A353F824F000BF136E000058
:106DF400DD6D0000116E0000176E0000176E0000BC
:106E04001B6E00001F6E0000236E00000924204644
:106E140010BD0224FBE70324F9E70B24F7E706245B
:106E2400F5E70446F3E700BF38B50D46044688BBD2
:106E3400284B4A1E186050425041013D07F0D6FAD3
:106E4400032D46D8DFE805F002131E200121084671
:106E5400FDF79FFDFFF72AFE1F4B187010B1A52008
:106E6400FFF71AFEBDE83840012007F0BFBA02213F
:106E74000120FDF78EFDFFF719FE50B3BDE8384041
:106E8400FFF71CBE0421F3E705210120BDE83840CB
:106E9400FDF77FBD104B1B781BB101210F4803F098
:106EA4000EFF631E58425841013C07F0BFFA032C01
:106EB4000FD8DFE804F002080A0C012007F0B6FA44
:106EC40001210020E2E70221FBE70421F9E7052183
:106ED400F7E738BD30320020B83700200080014A7F
:106EE40042F22041044AD2F820341B0C1B045350B4
:106EF400024A1360704700BF00C00340642B0020A7
:106F040008B504F0D5FD18B18C210448FFF7B8F892
:106F1400BDE808400249034804F03ABEFC8203007D
:106F24007C1C0020A82B0020134A1449D2F82434D6
:106F3400D2F820241340124A9BB21360D1F8000106
:106F4400400102D50868400106D4D1F8000180014F
:106F540005D50968880102D543F480331360074BD3
:106F6400D3F80011490506D51B685B0542BF1368B9
:106F740043F400331360704700C0034000E100E0B5
:106F840030320020012810B50AD0831E012B1CD9F1
:106F940004281CD0052801D102F016FF002400E0CB
:106FA400044620460B4A012104F0B2FD02F07CFEA7
:106FB40002F089FE04F012FE02F078FE2046BDE8DD
:106FC4001040044A002104F0A3BD0224E9E703248D
:106FD400E7E700BF78830300FFF7D4BF2DE9F04F44
:106FE40089B00DF065FE0746002840F0DC806F4E46
:106FF4006F4D3168286815F0BBFB0446002827D084
:1070040033683C46D3E900019A69126890473368B3
:1070140004A89B699B689847336802209B69DB68D6
:107024009847326805985368E7B2B3FBF0F3BB4264
:10703400916904F1010442D8CB6800209847336871
:107044009B695B6898473168286815F091FB044692
:107054000026DFF88891002C53D1564B4FEA86085E
:10706400F35C002B31D1A246534BF35C0193534B99
:1070740003EB080B019B5FFA8AF7BB42286853D8DD
:107084004F4BF35C002B3CD04C4B019F9844FBB21C
:107094007E2B286835D8D8F8003003AA07EB030AFA
:1070A400514602AB15F0A6FD48452AD05146286842
:1070B40015F0E6FD013704460028E8D021E0126807
:1070C4000B6907FB00209847ABE73C4B03AA53F836
:1070D4002670286802AB394615F08CFD484507D068
:1070E40078B9039B012B0CD03946286815F0C8FDEC
:1070F400344B394653F8083028681A6815F0A4FC54
:1071040004460136252EA6D1B4FA84F32E4A5B092F
:1071140013702E4B9C4240D02DD8002C32D0013B12
:107124009C423ED0C5242DE0DBF8003003AA1F4466
:10713400394602AB15F05EFD48450AD010B10AF19C
:10714400010A97E7039B8BB9214B029AF35C9A429D
:10715400F5D01F4B1B4A9B5D52F80820394628681E
:1071640015F0D8FB0028EAD0044689E73946286898
:1071740015F086FDEDE7174B9C4210D004339C427A
:10718400D0D1C1242B681B7C1BB1D3211248FEF73C
:1071940077FF204609B0BDE8F08FC324F2E7C4248A
:1071A400F0E7C224EEE7C624F3E700BFF41C002096
:1071B400F01C0020905F0300D45E0300DC5F03003A
:1071C400B55F0300FC5E0300AC37002002E000F072
:1071D4007060030004E000F0828303000BE000F021
:1071E400242970B506460C4615461AD8144A127856
:1071F40022B3144A1068144A52F82110134A125D3B
:107204003AB1324615F06EFCC0B1BDE87040FDF7EE
:107214008EBF7F2D08BF00253246294415F0C6FBDA
:10722400F2E7FF2903D9BDE87040FFF761BB40F2E4
:107234000111BDE870400648FEF722BF70BD00BFD3
:10724400AC370020F01C0020DC5F0300905F0300DB
:10725400828303002428F8B504460D46164619D83F
:107264001449097829B31449144F0868144951F88A
:1072740024103C5D3CB1126815F0E6FBC8B1BDE8D2
:10728400F840FDF754BF7F2D08BF0025294415F0B1
:1072940041FBF3E7FF2805D91A463146BDE8F8401B
:1072A400FFF74ABB4FF49A71BDE8F8400548FEF772
:1072B400E7BEF8BDAC370020F01C0020905F03004F
:1072C400DC5F03008283030008B5084B1B7863B1BD
:1072D400074B002253F82010064B186815F042FCA7
:1072E40018B1BDE80840FDF722BF08BDAC37002047
:1072F400DC5F0300F01C002070B5164685180AB93F
:10730400304470BD01F00F030A2B34BF30243724FE
:10731400013A2344090905F8013DD2B2EFE7000020
:10732400F0B5F9B100281CDA2D23B0F1004F137029
:1073340000D04042012115E0801B8642ECB205F1E9
:107344000105F9D904B927B101274D1C303454542F
:10735400E9B20133092B09D1303050540131C8B29C
:10736400F0BD002100231F46DFF808C05CF823604D
:107374000025E2E7F88303002DE9F04F4FF0000BFE
:1073840095B002AC81468A4617461D465E46A04625
:107394003B7863B902ABE41AE4B22246194650467C
:1073A400C847002840F093803444E0B290E0252B95
:1073B40013D0BBF1000F14D12370013412AB9C42E3
:1073C4006DD3A4EB0804E4B2224641465046C847B4
:1073D40000287CD12644F6B260E0BBF1000F00D156
:1073E40001373B78632B00F092801BD8392B09D8E6
:1073F400302B80F09E80002BCCD0252B51D04FF029
:10740400000BDBE7582B00F08B80622BF7D14FF099
:10741400000B2B6801936B680093009B9B4543D141
:107424000835ECE7702B1ED017D8642B01D06C2BD9
:10743400E5D16C2B05F1040B28686CD17B78752B96
:1074440014BF0121002101D0642B00D10137224651
:10745400FFF766FF04445D46D1E7752BE9D0782B2E
:107464005ED0732BCBD1A4EB0804E4B2224602A96C
:10747400504605F1040B2D68C84740BB2644F6B2BC
:10748400C4B22B5D0130002BFAD122462946504666
:10749400C847E0B95D4683462644F6B24446013700
:1074A40076E723700134AAE7019B204613F80B10FA
:1074B4000222FFF721FF12AB984204460ED3A0EB41
:1074C4000804E4B2224641465046C84718B1002099
:1074D40015B0BDE8F08F26444446F6B2009B013B4C
:1074E4005B4582BF20232370013412AB9C420BD333
:1074F400A4EB0804E4B2224641465046C84700289B
:10750400E5D126444446F6B20BF1010B85E72B681E
:1075140004352370C6E7752B0CBF0021012196E7C3
:10752400204602222978FFF7E7FE05F1040B044602
:1075340091E77A7802F0DF02582A19D1322B07F149
:10754400010B09D10422204629882F1DFFF7D4FE00
:107554003D4604465F4652E7342B09D12F1D2D6862
:107564000422290C2046FFF7C7FE0422A9B2EDE746
:107574004FF0010B22E70EB403B503AA52F8041B23
:10758400019207F021F8C0B202B05DF804EB03B039
:10759400704700000149FFF7EEBF00BFE95903003F
:1075A4000EB433B505AA52F8041B0546019207F040
:1075B4000BF804462846FFF7EDFFE0B202B0BDE841
:1075C400304003B0704708B506F0FEFFC0B208BDF6
:1075D4002DE9F04F9B46584B85B01B7806468946EB
:1075E4001546109F9DF844A0DDF85080002B00F054
:1075F4009280072A00F291800E9B002B00F08D8070
:107604000F9B002B00F08980129BB3F5006F00F3F1
:107614008480012801D1002F7FD0484B03EB051350
:107624001B7B002B7BD0464C1022002168462EF099
:107634001AF904EB45141022B9F1000F5CD1494644
:1076440020462EF010F9A37843F01003A370E378DA
:1076540043F03003E370BAF1000F03D1DBB243F01F
:107664000303E37036496A01129B885A013B63F3B2
:107674000E100E9B01EB020C8852CCF808300F9BC5
:107684009DF84C10CCF804309CF80330012E61F3C3
:107694008303CDF800B08CF8033042D113230CF1EE
:1076A400100ECCF80C309CE80F008EE80F006FF041
:1076B4000301DCF81C20B9F1010F61F39F02CCF83F
:1076C4001C20CCF8147004D10F9BCCF80470CCF8B7
:1076D4001830002719492A018B1841F80280159A9D
:1076E40028465A609F605E732246694602F034FF62
:1076F400384605B0BDE8F08F002120462EF0B3F8DF
:107704001023A3700323E370BAF1000FAAD1DBB2F4
:1077140043F03003A5E70B48EBE70B48E9E70B48D8
:10772400E7E7B8F1000FD4D19CF8023068F30413F2
:107734008CF80230CDE700BF253700203823002025
:10774400642A0020028000F0018000F0078000F02D
:1077540038B5104B05461B78BBB1C0B102F0B7FA7F
:1077640000230D4901EB0312147B3CB92B60012368
:107774001460137302F0B1FA204638BD0133082BAC
:10778400F0D102F0AAFA0548F7E70548F5E70548FD
:10779400F3E700BF2537002038230020048000F0E1
:1077A400028000F0018000F038B502F090FA002366
:1077B40005460A4AD1180C7B5CB91033802BF9D1E9
:1077C40002F07CFE064B28461C7002F086FA204626
:1077D40038BD284602F081FA0248F9E73823002030
:1077E40025370020058000F00D4B10B51B780446AA
:1077F40093B1072812D802F06AFA0A4B03EB041378
:107804001A7B2AB100241C7302F067FA204610BDCB
:1078140002F063FA0448FAE70448F8E70448F6E794
:107824002537002038230020068000F0028000F075
:10783400018000F0164B13B51868002301908DF8F1
:10784400043002F044FA134B1C7824B102F045FAD8
:10785400114802B010BD01221A7002F03EFA0F4B1B
:107864001C731C7783F82C4083F83C4083F84C400D
:1078740083F85C4083F86C4083F87C4004230DEB70
:1078840003008DF8073002F03DFE2046E1E700BF1B
:107894001C84030025370020038000F038230020D7
:1078A40010B588B00E9C009207940D9C0246069475
:1078B4009DF8304005940B9C04949DF82840039453
:1078C4000024CDE9013420460B462146FFF780FE13
:1078D40008B010BD10B588B00E9C009207940D9CA2
:1078E400024606949DF8304005940B9C04949DF840
:1078F400284003940024CDE9013420460B4601219D
:10790400FFF766FE08B010BD08B50A4B1B785BB1E3
:1079140007280BD8084B03EB00131B7B43B1002152
:1079240002F0E0FD002008BD0448FCE70448FAE743
:107934000448F8E72537002038230020028000F0AF
:10794400018000F0078000F008B50A4B1B785BB19A
:1079540007280BD8084B03EB00131B7B43B1012111
:1079640002F0C0FD002008BD0448FCE70448FAE723
:107974000448F8E72537002038230020028000F06F
:10798400018000F0078000F008B50A4B1B7853B162
:1079940007280AD8084B03EB00131B7B3BB102F00A
:1079A4002BFE002008BD0548FCE70548FAE705481A
:1079B400F8E700BF2537002038230020028000F0BC
:1079C400018000F0078000F00D4B1B7893B107286D
:1079D40012D889B10B4B03EB00131B7B73B10A4B19
:1079E400DA6A012303FA00F010401ABF00200B707A
:1079F4000870704705487047054870470548704748
:107A0400253700203823002000000440028000F0C5
:107A1400018000F0078000F00B4B10B51B780C467A
:107A240063B107280CD859B1084B03EB00131B7B37
:107A340043B102F0F3FD2060002010BD0448FCE7D0
:107A44000448FAE70448F8E72537002038230020E3
:107A5400028000F0018000F0078000F02DE9F84377
:107A6400174B1F6D5B6D1F4000D5FEE701260025F7
:107A7400144CDFF85480DFF85490374217D0236851
:107A8400C8F800609BB1A16862680131A160284612
:107A94009847637B012B0AD148B909EB4513197B3D
:107AA4001A7F60F3410160F3410219731A770135BB
:107AB400082D4FEA460604F11004DED1BDE8F88330
:107AC400000004403823002050200440642A002091
:107AD40070B504460125084E04B970BD94FAA4F0AB
:107AE400B0FA80F005FA00F324EA030456F82030D3
:107AF400002BF1D09847EFE7B82B00204FF000722D
:107B0400044BC3F880211A604FF08062C3F88021CF
:107B14001A60704700E100E038B504460D4602F0F3
:107B2400D6F8034B43F82450BDE8384002F0D5B8EA
:107B3400B82B0020084BD3F82404D3F82024104099
:107B440042F2204220F42A5020F02A004004400C43
:107B54009850FFF7BDBF00BF00C00340084BD3F8E7
:107B64002404D3F82024104042F2204220F4AA40F6
:107B740020F055000004000C9850FFF7A9BF00BF87
:107B840000C00340104A30B5136841611546ABB9D3
:107B94001060836011E0091B9C6841611A467CB146
:107BA40023465C698C42F6D9002CF4D052B1906023
:107BB400836013B15A69511A596130BD0022F0E74C
:107BC4002346F4E72860F3E7DC31002010B500F029
:107BD40021FB094B094A196831B11368C41A4B696E
:107BE400A34203D31B1B4B61106003E0C01A0023A4
:107BF40010604B6110BD00BFDC310020342E00202A
:107C040038B50F4D02202B685C690E4B1B681C4471
:107C140000F034FB204600F005FB00230A492A68E3
:107C24000B70D088800702D501230B7038BD926891
:107C3400002AFBD050690344012BF2D9F6E700BFB8
:107C4400DC310020342E00204837002070B59DF828
:107C54001450164605710025049A8560BDF8185025
:107C64000446C5800260C0E903360D4629B9616146
:107C74000BB11146984796B1354602F028F80646EE
:107C8400FFF7A4FF29462046FFF77CFF054B1B683E
:107C9400A34201D1FFF7B4FF304602F01EF80020E2
:107CA40070BD00BFDC31002000210C4A13687BB199
:107CB40083420AD1836879B18B6083681BB15A69A6
:107CC40041690A445A610020704719469B68EEE7EF
:107CD4000028EFD0022070471360EEE7DC3100206B
:107CE40070B501F0F4FF144E05463478FCB9134B1B
:107CF4001C60134B1C60134B1C8000F051FA0120D4
:107D040000F0BCFA00F008FB0F4B0246186020B9E3
:107D1400284601F0E2FF232070BD23460B4840F2C1
:107D2400E7312DF0ABFB0A4B186001233370284672
:107D340001F0D3FF0020EFE72B370020DC310020D7
:107D4400342E0020F2330020D831002018FCFFFF2D
:107D54003C2E00202DE9F0410546F8B101F0B7FFB3
:107D64000F4F0646FFF732FF2846D7F80080FFF78B
:107D74009BFF044628B1304601F0AFFF2046BDE822
:107D8400F081A8453B6803D123B1FFF739FFF2E73F
:107D9400002BF0D1022000F07DFAECE72224EDE77D
:107DA400DC310020F0B50D4685B016461F4604466A
:107DB40080B1FFF7CFFFBDF82C30002202939DF86D
:107DC40028302946CDE9007320463346FFF73EFFAD
:107DD40005B0F0BD2220FBE738B50C46054698B146
:107DE40091B100230B7001F072FF0121074B1B6856
:107DF4000BB122781AB101F070FF002038BD9D420A
:107E04000CBF21709B68F3E72220F7E7DC310020E8
:107E1400F0B51F46002387B00D4616468DF817307F
:107E24000446A0B10DF11701FFF7D6FF9DF8172006
:107E34007AB9BDF83430294602939DF83030204693
:107E4400CDE900733346FFF701FF07B0F0BD2220F0
:107E5400FBE70320F9E70000F8B50C460646C8B175
:107E6400C1B101F034FF0546FFF7B0FE736923602A
:107E7400134B1B68B3420FD023B9284601F02DFFE2
:107E840003201CE0596922689B680A442260F1E7D8
:107E940000230FE0222012E0276800F0BBF9094E0E
:107EA4003368C01A8742F3D900F0B4F93368C01AB2
:107EB40023681B1A2846236001F00FFF0020F8BD39
:107EC400DC310020342E0020F8B507460E4601F0C0
:107ED400FEFE00240546114B1B6823B9284601F019
:107EE400FCFE1B2015E05A691444DA88BA4213D107
:107EF40000F090F90A4F3B68C01AA0420AD200F081
:107F040089F93B68C01A201A3060284601F0E5FE62
:107F14000020F8BD0020F7E79B68DEE7DC31002095
:107F2400342E0020014B1878704700BF48370020DA
:107F340038B501F0CCFE054600F06CF9044628463D
:107F440001F0CBFE204638BD70B501F0C0FE0646F8
:107F540000F060F9094B05461C880120A4B200F02A
:107F6400B1F918B100F056F905460134304601F074
:107F7400B4FE0022214642EA050070BDF23300201F
:107F8400014B1868704700BFD83100200A4B10B568
:107F94001B680C4683420CD3084B4FF47A72196861
:107FA4000023A0FB01012DF069FA013020600020BC
:107FB40010BD2120FCE700BF3C2E0020D83100205A
:107FC400104B10B51A684FF47A73A0FB0301A2B1E9
:107FD400531E134211D1B2FA82F2C2F11F02C2F14E
:107FE4002004A2F1200301FA04F420FA02F222434D
:107FF40021FA03F342EA030010BD00232DF03EFAF8
:10800400FAE700BFD831002000000000F8B516469A
:108014001BA3D3E900238B4208BF82422AD3174B08
:108024001A684FF47A73A0FB034503FB0155C2B1F0
:10803400531E13EA020014D1B2FA82F2C2F11F02F3
:10804400C2F12007A2F1200124FA02F305FA07F78E
:108054003B4325FA01F10B4325FA02F2C6E900324B
:10806400F8BD0023204629462DF008FAC6E9000190
:108074000020F5E72120F3E7AFF30080D83100209A
:10808400EFA7C64B37894100C2072DE9F84F0446D4
:108094000BD53F4A138801339BB21380FFF796FD3B
:1080A4003C4B1B680BB1FFF7ABFDA3076DD500F08C
:1080B400B1F8394F00263D688046451B01F007FEA4
:1080C400B24683463246334B1C6814B16369AB42F3
:1080D40014D9012E314B51D1D288022A4ED11E70AF
:1080E400002C4ED06369C7F800805D1B6561FFF703
:1080F40087FD5846BDE8F84F01F0EFBD23462A46F8
:10810400C7F800805969914209D8187994F804C0D5
:10811400521A844588BF1C469B68002BF2D15846EE
:1081240001F0DBFDD4F814B0C4F814A001F0CFFDC5
:1081340081462046FFF7B8FD484601F0CEFD23698D
:108144004BB101F0C4FD814621692046FFF71AFDB9
:10815400484601F0C2FDE36813B121682046984700
:1081640000F058F8D844A5EB08058146054401F011
:10817400AEFD013683462246C846A4E700221A70A3
:10818400AEE7022000F086F8B3E7BDE8F88F00BF41
:10819400F2330020DC310020342E0020A1370020EF
:1081A4001FB50024184B18689A88029053F8060FDC
:1081B400ADF80C201B79009002A88DF804308DF8DE
:1081C40008408DF80C4002F0B3FA694601208DF89E
:1081D400004002F071FA4FF090431F219A6922F097
:1081E4001F029A61094A11609A6A12F00802FBD1CF
:1081F4001A62012002F07AFA4FF48062044BC3F849
:1082040080211A6004B010BD2084030014200048AB
:1082140000E100E04FF090439A6A1207FCD4186A18
:10822400704700004FF09042936A1907FCD4136A18
:10823400116C5269120704D4CA1A022A01D899424D
:108244000ED1C21A012A98BF981CB0F1FF3F28BF73
:1082540001304FF0904318649A6942F008029A6121
:10826400054A13783BB14FF09041CB6B43F00203C6
:10827400CB630023137070479220002082074FF0D5
:10828400904200F00103916948BF43F008030B4397
:1082940093617047830700F001020AD50121084B5E
:1082A40042F0080219704FF09041CB6B23F00303A6
:1082B400CB634FF090418B6923EA02038B617047D3
:1082C400922000204FF0904301285B6904D00228DB
:1082D40005D1C3F3C000704703F0010070470020CC
:1082E4007047000010B501F0F2FC4FF090430446D3
:1082F4005B691A07074A03F0010003F00D0348BF46
:1083040040F002001360FFF7BFFE2046BDE81040B6
:1083140001F0E3BC142000481C2001F0E1B9000086
:10832400002211462D48F0B503682D4D54592CB147
:108334001E68AC18002E3DD1234601210832282A9C
:10834400F4D101B10360002214462649264E0B687D
:1083540095592DB11F68B518002F32D12B46012431
:108364000832282AF4D104B10B6000680368002B9A
:108374002FD04FF04022936F007923F0FF7323F442
:10838400803343EA00439367184B4FF00042096877
:108394001A600B68FBB14FF04022936F097923F404
:1083A400FF7323F001030B439367104B4FF080429C
:1083B4001A60F0BD1E792779B74284BF2346012194
:1083C400BCE71F7995F804C0BC453CBF2B4601248B
:1083D400C6E7074BD9E7064BE8E700BFD82C0020D7
:1083E40088310020382E0020B03100206850004031
:1083F4006860004010B5012228240F4B00211A7038
:108404000E4822462DF02FFA224600210C482DF06A
:108414002AFA0C4B0C4A13600C4A13604FF0404389
:108424000B4A1360536020220A4BC3F880211A6060
:10843400FFF776FF002010BD1E3600208831002093
:10844400B0310020982E0020D82C0020382E002097
:108454006460004000E100E04FF04022D2F8880060
:10846400D2F88830C0F38800C3F388039842F5D16A
:108474006FF48873184440B2704700004FF04022F4
:10848400936E526E10B5134013F0804211D0114B0D
:108494001B681C682CB1002119605960FFF7DCFFD0
:1084A400A0474FF080420C4B1A60BDE81040FFF724
:1084B40037BF002BF9DA094B1B681C682CB11A6012
:1084C4005A60FFF7C9FF0121A047034B4FF0004258
:1084D400EAE700BF382E002064600040D82C00205A
:1084E400FFF7CCBF042203685A619A699207FCD54E
:1084F40041F2AC52102103795B0103F1804303F58F
:10850400703399507047012203685A619A69D207FF
:10851400FCD541F2AC52042103795B0103F18043A1
:1085240003F570339950704738B141B1013AB2F54F
:10853400006F044838BF0020704703487047014863
:10854400704700BF037000F0027000F038B50446B5
:108554000D4601F0BCFBA28892B222B92A6001F058
:10856400BCFB064838BD1422638802FB034308336E
:108574002B6001F0B2FB0020F4E700BF0B7000F0A9
:1085840038B504460D4601F0A2FBA3889BB223B97B
:108594002B6001F0A2FB0C4838BD14226388E188EB
:1085A40002FB034308332B6063885A1C92FBF1F3EC
:1085B40001FB13239BB26380A388013B9BB2A3807E
:1085C40001F08BFB0020E7E70B7000F0F8B50446E0
:1085D40017460D4601F07BFBA388E28806469A42C3
:1085E40005D800233B6001F078FB1648F8BD14223F
:1085F400238805F1100C02FB034308332A4603CAFF
:10860400624518605960154603F10803F6D11068F5
:10861400142218602388E18802FB034308333B607B
:10862400238830465A1C92FBF1F301FB13239BB2BF
:108634002380A38801339BB2A38001F04EFB00206A
:10864400D4E700BF0A7000F090F83130022B0BD150
:108654003022437F90F821005A43044B9B5823FA5D
:1086640000F000F0010070470020704714C0034080
:10867400002313B51C4A52F8234094F82110814278
:108684000ED00133042BF6D102B010BD0028FBD16B
:108694009DF80730002BF7D0A068FFF735F9F3E712
:1086A40094F83130022BEFD12046FFF7CDFF637EE3
:1086B4002076022BE8D194F82E3003F0FF02002B31
:1086C400E2D102A901F8012DA068FFF77DF9237E0C
:1086D4001BB194F82F30002BD8D00023A06884F865
:1086E4002F30FFF731F9CFE7E031002038B50446E9
:1086F40001F0EDFA616B05460139616319B9044A69
:10870400012003F005FA2846BDE8384001F0E5BA37
:108714004884030038B5044601F0D9FA636B054672
:1087240023B90121054A084603F0F2F9636B284690
:1087340001336363BDE8384001F0CFBA48840300D5
:10874400012230B590F8324087B080F82C207CB9F3
:10875400094D0368CDE9024504904C682433CDE902
:1087640000240A684169C068FFF7B4F807B030BD57
:10877400002380F82C30F9E7D99000000123F0B5EC
:1087840080F82D3090F8323089B004460E4663BB31
:10879400056801F09CFA0DF11F01074615483C35A8
:1087A400FFF71AFB40B99DF81F302BB11148FFF7B2
:1087B400D1FA2046FFF79AFF3846012701F08DFAD7
:1087C400204684F83870FFF7A5FF0B4B04940393FD
:1087D4000023029373682A46CDE900732169336844
:1087E400A068FFF75DF809B0F0BD002380F82D30D4
:1087F400F9E700BF103A002001880000F0B585B009
:1088040003A9906A1446FFF7A1FE0646206802F009
:108814007DF90546FFF7B4FB24214143B1FBF5F193
:1088240000252346CDE90055164A01311648FFF7C5
:10883400EFFA164B9E421FD0039B1D619D6001F011
:1088440046FA039A0746D66826B1D2E90023294698
:108854002046B04703A9A06AFFF792FEA06A838866
:108864009BB263B103A9FFF771FE03992046FFF79A
:1088740085FF384601F031FA012005B0F0BD84F8D7
:108884002D30F6E795880000103A00200B7000F0B8
:1088940073B508680D46846914F0200407D00846AF
:1088A400FFF724FF022385F8383002B070BD02F0D0
:1088B4002DF90646FFF764FB24225043B0FBF6F083
:1088C400CDE90044411C2B46024A0348FFF7A0FAB5
:1088D400EBE700BF95880000103A00202DE9F34132
:1088E4000D460446002800F0868001F0F0F9012DC1
:1088F400064637D1A36A9B889BB2002B39D0A06867
:10890400FFF742F80023A06A84F82D3083889BB2D5
:10891400002B34D1226893699B04FCD5023D012DC0
:108924001BD8E068FFF730F80023606A84F82C3025
:1089340083889BB2002B41D194F83130032B0CD0A7
:1089440042F2AC52042123795B0103F1804303F525
:1089540070339950022223685A61304601F0BDF900
:10896400002009E0022D48D1636A9B889BB2002B4A
:10897400D4D101F0B2F9264802B0BDE8F08101A9D2
:10898400FFF7E4FD0199A0680831FFF745F8214F8E
:10899400019B1F61A06A83889BB2002BBAD001A9F6
:1089A400FFF7EEFD019BD3F80C80B8F1000FF1D076
:1089B4009B68002239462046C047EBE76946FFF72B
:1089C400C5FD0099E0680831FFF726F8114F009BB8
:1089D4001F61606A83889BB2002BADD06946FFF7A4
:1089E400CFFD009BDD68002DF3D09B680022394643
:1089F4002046A847EDE70848BEE7032D8ED1A36AB9
:108A04009B889BB2002B7FF47AAF636A73E700BF45
:108A1400087000F0097000F0027000F003689869B3
:108A24007047436A9888C0B270472DE9F34198466D
:108A340000230546406A0E4684881746A4B2CDE951
:108A440000333CB16946FFF781FD01A90446E8689B
:108A5400FEF7E2FF009969B164B94868019BC01A46
:108A64003860C8F800300B6833602B68986902B02E
:108A7400BDE8F0810021C8F8001039603160F4E7E6
:108A8400836A9888C0B270472DE9F3419846002361
:108A94000546806A0E4684881746A4B2CDE90033A1
:108AA4003CB16946FFF752FD01A90446A868FEF7E8
:108AB400B3FF009969B164B94868019BC01A386072
:108AC400C8F800300B6833602B68986902B0BDE8C1
:108AD400F0810021C8F8001039603160F4E7007EAD
:108AE40070472DE9F04104460F461546FFF71CFD7B
:108AF400064678BB152001F00FF98046A26A9388D8
:108B04009BB213B194F82E303BB323689B6913F0E6
:108B1400020802D12046FFF7E5FC012384F8303037
:108B240094F8323033B93D44AF4220681BD1836995
:108B34009B06FCD5B8F1000F0CD142F2AC521021C7
:108B440023795B0103F1804303F5703399500822C4
:108B540023685A613046BDE8F081B8F1000FCED0E9
:108B6400FEF77CFFCAE717F8011B02F0A3F8DBE766
:108B740010B5044680B190F82E302BB9FFF764FD90
:108B840010B9A068FEF7C0FE002094F82E3001331F
:108B9400DBB284F82E3010BD0048FCE7027000F010
:108BA40010B50446A0B190F82E309BB190F82E3049
:108BB400012B05D1FFF748FD10B9A068FEF7C4FEEC
:108BC400002094F82E30013BDBB284F82E3010BD27
:108BD4000148FCE70148FAE7027000F0057000F074
:108BE40037B590F831500446022D1ED1012190F87A
:108BF4002220457E837F01FA02F23020154925B9EF
:108C040000FB031342F2100105E0012D07D100FB24
:108C1400031341F210015A50002003B030BD247EEA
:108C240000FB0313002CF4D1ECE7012DF4D1037EF7
:108C340073B911238DF80730FFF79AFF2A460DF117
:108C440007012046FFF74DFF2046FFF7A9FFE3E7A2
:108C54001323EFE700C00340F0B504468BB0A24FE6
:108C640003AE0D460FCF0FC697E8070086E807004E
:108C74001CB99E4C20460BB0F0BD0DB99C4CF9E7D5
:108C84003C22002120462CF0EEFD9A499A4B0A78AA
:108C94002AB9C3E90022C3E9022201220A70002290
:108CA40053F822108C420AD00132042AF8D100224F
:108CB40053F82210002940F0D08043F822402B7D45
:108CC400286884F831300023206084F832302B7B0C
:108CD4002371012384F83830884B984240F0C280D5
:108CE400212384F82330864B23614FF4802300260C
:108CF4006361D5E90723626216805680968084F802
:108D04002C60A3621E805E809E806B6803A905931D
:108D1400EB8984F82D60ADF81C302B8A84F82F6021
:108D2400ADF81A30AB7C8DF80C608DF81830EB7C04
:108D34008DF81E3005238DF8193001F03DFF142104
:108D44002A7B704B287A03EB4217C7F8AC15A97A33
:108D54002E3240EA014C03EB4213C3F804C06A7A92
:108D6400EB7A42EA034CC7F8BCC5E17784F82030BB
:108D74006B7DE07622776377AB7D042284F8213023
:108D8400EB7DA3772B7E84F82230012301F098F841
:108D94000123022294F82010207F01F091F894F826
:108DA4003130022B75D13346012294F82110607FB3
:108DB40001F086F83346042294F82210A07F01F0D3
:108DC4007FF8012394F82120607F1146CDE9003318
:108DD40001F01CF800F07BFF2E7D0746032E69D1BD
:108DE40041F2AC5202212B7B04205B0103F180434E
:108DF40003F57033995041F25C0229688850297E4A
:108E0400EA7D42EA014241F2B8515A50A97D6A7D95
:108E140042EA014241F2B4515A504FF0FF3242F259
:108E240048032868C2502B7D032B0CBF0521042165
:108E340001F07CFE4FF440622B685A61FEF7FAFCA5
:108E4400002104F10800FEF783FC0146002842D00B
:108E54002D4C384600F041FF0CE70132042A7FF420
:108E640027AF06E7294B984207D1222384F8233001
:108E7400274B23614FF4A02339E7264B98427FF414
:108E8400FDAE232384F82330234B23614FF4C02306
:108E94002DE7032B9ED1334694F82110607F0122E5
:108EA40001F00EF83346042294F82210A07F01F05A
:108EB40007F88FE7022EB0D194F821001749FEF786
:108EC4002BFEFEF71BFE00236676A3762376204650
:108ED400FFF786FEA1E704F10C00FEF739FC044617
:108EE4000028B6D0B4E700BF2C840300027000F061
:108EF400037000F0B1370020E0310020008005400D
:108F04000200040000C003400E7000F000C00540E1
:108F140002000500000006400200060075860000FD
:108F240090F83130032B05D00229417618BF017621
:108F3400FFF756BE00487047057000F030B5044690
:108F440085B0002800F08F80484B1B7843B1002384
:108F5400474A52F823108C4270D1002142F8231062
:108F640003212046FFF7BAFC00212046FFF7D8FF73
:108F74000023E17F1A46E07E00F0A2FF002394F86C
:108F840020101A46207F00F09BFF94F83130022B0A
:108F940058D1002394F821101A46607F00F090FF06
:108FA400002394F822101A46A07F00F089FF0021C4
:108FB400012394F82120607FCDE90031114600F0AF
:108FC40025FF94F8323013B90A2223685A6194F8C1
:108FD4003130022B04D1002194F82100FEF79CFDCE
:108FE400A068FEF701FCE068FEF7FEFBFEF7DCFB81
:108FF4000023626A138053809380A26A1380538093
:10900400938000F064FE0DF10F0105461948FEF748
:10901400E3FE28B99DF80F3013B11648FEF79AFE07
:10902400284600F05AFE636B002B04DD0123204622
:109034006363FFF75BFB002005B030BD0133042BF5
:1090440087D18DE7032BBCD1002394F821101A4655
:10905400607F00F035FF002394F822101A46A07FA9
:1090640000F02EFFADE70448E6E700BFB13700206B
:10907400E0310020103A0020027000F0F0B587B013
:1090840004461646FFF750FA0546E8B90493104B18
:10909400CDE901166A4601A9606A03960593FFF7B4
:1090A40095FA054680B994F82C306BB92046FFF741
:1090B4002AFA0099FFF744FB94F83130032B03D0CC
:1090C40025762046FFF78CFD284607B0F0BD00BF8B
:1090D400017000F073B5506A01A91446FFF736FA1F
:1090E4002F4B984230D094F83200019B002839D19C
:1090F4002268916C11F4007129D02A499860196191
:1091040042F248034FF40071D15000F0E0FD0199A0
:109114000646CD6835B14A688B682046D31A0A687A
:109124000969A84701A9606AFFF72AFA606A858875
:10913400ADB2DDB101A9FFF709FA01992046FFF7A5
:10914400FFFA304600F0C9FD012002B070BD906CFA
:10915400C00507D51448996018614FF4807142F234
:109164004803D1E700221A619A60CEE70123204622
:109174002376FFF735FD94F8313084F82C50032B17
:10918400DFD042F2AC52042123795B0103F1804326
:1091940003F570339950022223685A61D1E700BF66
:1091A4000B7000F00D7000F00C7000F090F831209E
:1091B40010B5012A034610D102290ED0827E8A42BC
:1091C40001D1002010BD997611B9FFF7E9FCF8E749
:1091D4000129F6D1FFF7CCFCF3E70148F2E700BF21
:1091E400057000F0F0B587B004461646FFF79CF909
:1091F400054638BB0493154B039605932368CDE9C4
:1092040001169B699B0702D42046FFF76BF96A4657
:1092140001A9A06AFFF7DAF9054698B994F82D3048
:1092240083B900F054FDA36A06469B889BB233B110
:1092340000992046FFF7A2FA012384F83030304623
:1092440000F04BFD284607B0F0BD00BF017000F0F0
:1092540070B588B00E22002104A82CF004FB012371
:109264000D22002168468DF810302CF0FCFA022300
:10927400244C6A46002120468DF8063001F07CFB20
:10928400236B4FF6FF73204EE36100233546ADF8A0
:10929400123004A9204601F022FB062000F020FA37
:1092A400BDF812300133B0FBF3F09BB2B3F5806F1D
:1092B4003060ADF8123002D2144B9842E9D80F2036
:1092C40000F00EFA1249134CB1FBF0F128680025A6
:1092D400E1FB0045104A0023204629462CF0CEF835
:1092E4000E4B084A186000200D4B1870936923F048
:1092F4001003936140220B4BC3F880211A6008B01D
:1093040070BD00BF00800440B42B002080841E0088
:1093140000B0710B20A1070040420F00902E0020E6
:10932400AB37002000E100E0F7B500251D4B1E4CD3
:1093340019681E4AE0FB01450023204629462CF00B
:109344009DF84FF6E85400254FF6E75E4FF0FF37DF
:10935400DFF860C0164E8D4208BF844211D380B23C
:1093640060B1144A516A89B2536A9BB2ADF80630AF
:10937400BDF806305B1A9BB29842F5D8002003B0C2
:10938400F0BDDCF8242092B2DCF824309BB2ADF8B6
:109394000430BDF804309B1A9BB27345F4D980198C
:1093A4007941D8E7B42B002020A1070040420F00E8
:1093B4001802FFFF00800440054B5A69D20606D507
:1093C40042F21402102199500122024B1A70704784
:1093D40000800440AB37002038B5124B0546D3F863
:1093E40020310C4603F00703013B032B17D8DFE8B9
:1093F40003F0020A0E1201F0D1FC042305B1286027
:1094040004B1237038BD01F0FFFC0323F6E701F03B
:1094140017FD0523F2E701F00FFD0223EEE7002319
:109424001846EBE70080004037B50C460021114B8D
:109434000191D3F88031054603F00303022B0ED0CB
:10944400032B11D0012B03D101A8FFF7C5FF0D2178
:109454000DB1019B2B6004B1217003B030BD01F04C
:10946400EFFC05210190F3E701F0E6FC02210190F5
:10947400EEE700BF0080004038B5104B0546D3F836
:1094840040310C4603F00303022B0BD0032B0DD009
:10949400012B0FD101F018FD082305B1286004B198
:1094A400237038BD01F016FD0723F6E701F00FFD28
:1094B4000923F2E700231846EFE700BF00800040CD
:1094C40038B5104B0546D3F860310C4603F003035E
:1094D400022B0BD0032B0DD0012B0FD101F0F4FC88
:1094E400082305B1286004B1237038BD01F0F2FCF3
:1094F4000723F6E701F0EBFC0923F2E70023184603
:10950400EFE700BF0080004038B5134B0546D3F8A1
:1095140000320C4603F00703013B032B18D8DFE8A5
:1095240003F0020A0E1201F0CFFC082305B12860F3
:1095340004B1237038BD01F0CDFC0723F6E701F038
:10954400C6FC0923F2E701F049FC0C23800AEDE78D
:1095540000231846EAE700BF0080004038B5134BEB
:109564000546D3F808320C4603F00703013B032BEE
:1095740018D8DFE803F0020A0E1201F0A5FC082354
:1095840005B1286004B1237038BD01F0A3FC0723A2
:10959400F6E701F09CFC0923F2E701F01FFC0C2321
:1095A400800AEDE700231846EAE700BF0080004088
:1095B40038B5104B0546D3F840320C4603F003038C
:1095C400022B0BD0032B0DD0012B0FD101F07CFC0F
:1095D400082305B1286004B1237038BD01F07AFC7A
:1095E4000723F6E701F073FC0923F2E7002318468A
:1095F400EFE700BF0080004038B5104B0546D3F8B4
:1096040000310C4603F00303022B0BD0032B0DD0C7
:10961400012B0FD101F0F8FB032305B1286004B13D
:10962400237038BD01F056FC0723F6E701F002FC75
:109634000623F2E701230020EFE700BF008000408B
:1096440041F671320F4B10B5D969DA639A680E4C42
:1096540022F44012A04288BF42F480129A600B4A5E
:109664000B4CD2F81832A04223F0020388BF43F017
:10967400020301F48031C2F8183211B10022014B07
:10968400DA6310BD00000340C017530200C0074056
:1096940080F0FA0208B501F0B3FBBDE80840FFF71B
:1096A400CFBF000002280CD007D8012814D10B4BDF
:1096B400186FC0F3013001307047032807D00F281A
:1096C400F4E7064BD3F89000C0F30460F3E7034BD0
:1096D400186FC0F38020EEE70020ECE70080004024
:1096E400002307B50193252817D8DFE800F0131AE3
:1096F4001D262B353A3F44494E535866161A3F16D9
:1097040016441A262B26351A3F26663A3A3A3A2642
:109714002626494E01F048FB0190019803B05DF8FC
:1097240004FB01F05BFBF7E701F03EFB024602207D
:10973400FFF7B8FFB2FBF0F0EEE701F04FFB024693
:109744000320F5E701F04AFB02460320FFF7AAFFD6
:10975400B2FBF0F04008DFE7002101A8FFF764FE48
:10976400DBE7002101A8FFF737FED6E7002101A8B7
:10977400FFF782FED1E7002101A8FFF7A1FECCE7A5
:10978400002101A8FFF7C0FEC7E7002101A8FFF7E9
:10979400E5FEC2E7002101A8FFF72EFFBDE7094B54
:1097A400D3F8803003F00303022BBAD0032B01D08B
:1097B4000020B1E701F044FBAEE7002101A8FFF768
:1097C400F7FEAAE70080004002280AD002D8012848
:1097D40004D0704703280FD00F2815D1084600F095
:1097E4002BB80A4A0139D2F8903023F0F85343EAEF
:1097F4000161C2F890107047044A0139136F23F4D1
:10980400806343EA81211167704700BF00800040F4
:1098140002210320FFF7D8BF08B50120FFF760FF3E
:10982400BDE80840034988428CBF0221012103207E
:10983400FFF7CABF80F0FA0210B50446FFF72AFF0B
:10984400FFF7E6FF074A013C106F20F4405040EA5E
:109854000430106701F0C2FAFFF7F2FEBDE81040D1
:10986400FFF7DABF00800040002307B58DF807300A
:10987400252822D8DFE800F013212121212C3238B9
:109884003E444A50566921213821213E212121217B
:109894002C2138216932323232212121444A2E4B83
:1098A4001B6F03F00703013B032B06D8DFE803F02B
:1098B4000E020A0C04238DF807309DF8070003B04C
:1098C4005DF804FB0323F6E70623F4E70223F2E73B
:1098D4000DF107010020FFF7A7FDEEE70DF10701E9
:1098E4000020FFF779FDE8E70DF107010020FFF7FD
:1098F400C3FDE2E70DF107010020FFF7E1FDDCE71E
:109904000DF107010020FFF7FFFDD6E70DF1070178
:109914000020FFF723FED0E70DF107010020FFF739
:109924006BFECAE70C4BD3F8803003F00303022B21
:1099340003D0032B05D00023BDE701F04FFA0B231E
:10994400B9E701F07DFA0523B5E70DF10701002021
:10995400FFF72EFEB1E700BF0080004070B50C4653
:10996400252849D8DFE810F02600480048004800C0
:1099740048005C006D007E008F00A000B100C200B2
:10998400D300E400480048007E00480048008F00EF
:1099940048004800480048005C0048007E00480039
:1099A400E4006D006D006D006D0048004800480043
:1099B400A000B1008B1E042B2FD8DFE803F02B1E70
:1099C400032E280000250226FFF764FEFFF720FF80
:1099D400604A136F23F007033343136701F0FEF962
:1099E400FFF72EFEFFF718FF35B9032C04D142F21E
:1099F40028030121584AD15070BD41F228020121A7
:109A0400554B03269D6A9950C5F34005DCE70025B4
:109A14000426D9E700250126D6E700252E46D3E7FC
:109A24008C1EE4B20B2C8CBF00214C4B494A98BFCE
:109A3400195DD2F8803123F003030B43C2F880315F
:109A4400DAE78C1EE4B2032C8CBF0021444B414A5C
:109A540098BF195DD2F8203123F007030B43C2F8F5
:109A64002031C9E7CC1FE4B2022C8CBF00213D4B4E
:109A7400384A98BF195DD2F8403123F003030B43F1
:109A8400C2F84031B8E7CC1FE4B2022C8CBF0021ED
:109A9400354B304A98BF195DD2F8603123F0030387
:109AA4000B43C2F86031A7E7CC1FE4B2052C8CBF8E
:109AB40000212E4B274A98BF195DD2F8003223F0BB
:109AC40007030B43C2F8003296E7CC1FE4B2052C1F
:109AD4008CBF0021264B1F4A98BF195DD2F808326B
:109AE40023F007030B43C2F8083285E7CC1EE4B227
:109AF400042C8CBF00211F4B164A98BF195DD2F865
:109B0400003123F003030B43C2F8003174E7052945
:109B14000CD00B290CBF022100210E4AD2F8803050
:109B240023F003030B43C2F8803065E70321F4E715
:109B3400CC1FE4B2022C8CBF00210F4B054A98BF06
:109B4400195DD2F8403223F003030B43C2F84032CC
:109B540052E700BF0080004000C000405084030072
:109B64005C84030060840300608403006384030056
:109B740063840300698403006084030070B50446B1
:109B84000020FFF771FE03287DD045F60E03434AFB
:109B94000221C2F8803041F22803D15042F2280356
:109BA4000121D150916D11F48031FBD1637820787B
:109BB4001B0543EA0063A079657C0343E07843EA2C
:109BC4000043207943EA0033607943EA8013136148
:109BD4009369E07A03F000430343E07943EA806346
:109BE400207A43EA0063607A43EA0043A07A43EAB6
:109BF40000239361637B126A002B18BF0821207B2A
:109C040022F00D0243EA020343EA800341EA03011E
:109C1400A27B224B4FEA42161962207C34D1996A06
:109C2400E27B21F0330141F00101314341EA0211A9
