S01500005A69676265654941535A4F6E65332E733337FD
S315000040000018002005E70100D56A0000D96A000003
S31500004010A70A0A010042000004180FAC206900013B
S31500004020000000000000000000000000000000008A
S3150000403000000000C89D0300000000000000000012
S315000040400000000000000000FFFFFFFFFFFFFFFF72
S31500004050FFFFFFFF006007000000000000000000F7
S31500004060FFFFFFFFFFFFFFFF8000000000000000D2
S31500004070000000000000000000000000000000003A
S315000040800000000000000000004500200045002060
S315000040900018002092EE0300906C0300A00E002092
S311000040A0700E002000E007000000000089
S315000042000018002005E70100D56A0000D96A000001
S31500004210C1BD0000DD6A0000E56A000003E7010099
S3150000422003E7010003E7010003E7010003E70100DC
S31500004230E96A000003E7010003E7010003E7010064
S315000042405C6B00005C6B00005C6B00005C6B00004C
S315000042505C6B0000758800004D9700005C6B0000E9
S315000042605C6B00005C6B0000798600007DF5000049
S315000042705C6B0000B5F500005C6B00005C6B000039
S315000042805C6B00005C6B00005C6B000003E70100E8
S315000042905C6B0000F17D00005C6B00005C6B000055
S315000042A05C6B0000F17E0000C97E00005C6B0000C4
S315000042B05C6B00005C6B00005C6B0000B5BF01002E
S315000042C055BF010051BF0100B5B60100B1BF0100E5
S315000042D059BF010079BF01005DBF0100C1A5010002
S315000042E0F1BF01005C6B00005C6B0000BD6D00005F
S315000042F05C6B0000D1C700005C6B000003E70100A7
S315000043005C6B00005C6B0000114700005C6B0000FA
S315000043105C6B00005C6B00005C6B00005C6B00007B
S315000043205C6B00005C6B00005C6B00005C6B00006B
S309000043305C6B0000BC
S31500004334F8B500BFF8BC08BC9E467047F8B500BF88
S31500004344F8BC08BC9E46704710B5054C237833B9B3
S31500004354044B13B1044800E000BF0123237010BDD1
S31500004364F02200200000000058E4030008B5034BC7
S315000043741BB10349034800E000BF08BD000000006C
S31500004384F422002058E40300154B002B08BF134BFE
S315000043949D46A3F5803A00218B460F461348144ADE
S315000043A4121A32F03CFC0F4B002B00D098470E4BF0
S315000043B4002B00D098470020002104000D000D4872
S315000043C4002802D00C4800E000BF32F0D1FB2000E8
S315000043D429000BF06BFB32F0B7FB00BF00000800AE
S315000043E40018002000000000000000003222002017
S315000043F40045002000000000000000000020704777
S3150000440407B5054B0090054A054901200EF00EFE3E
S3150000441403B05DF804FB00BF326D03003B6D03007F
S31500004424406D030000F0E6BF13B50124A52002F099
S31500004434FBFC2046CDE9004423460022214605F034
S31500004444ADFE204602B010BD07B502F0B7FC01234D
S3150000445400221946CDE90032184605F09FFE03B046
S315000044645DF804FB70B508260024054686B00246AE
S31500004474384901200EF0DAFD009604AB10224FF401
S31500004484A06101208DF80B40ADF80C40CDE9044441
S315000044940DF0B5FB0DF10B03009622464FF4A06117
S315000044A401200DF0ACFB9DF80B202B4901200EF0EA
S315000044B4BDFD009603AB02224FF4A06101200DF06E
S315000044C49EFB264B264E1D7065BB9DF80C300222C2
S315000044D443F001038DF80C3019234FF4A0610093C7
S315000044E4012003AB0DF03AFB9DF80D209DF80C302E
S315000044F403EB022333801B4B1B78012B04BF1A4B9F
S315000045041B781BB9002119481EF046FB31889DF81B
S315000045140D3000919DF80C20154901200EF086FD02
S3150000452406B070BD012DF1D11923022200934FF478
S31500004534A06103AB28468DF80C400DF00FFB9DF8E7
S315000045440D209DF80C3044F6206103EB02233380E2
S31500004554D9E700BFD66C0300056D0300913D00202A
S31500004564B43D0020903D0020C03D0020B83D002011
S315000045740F6D030030B50024134B85B01C70134B2C
S3150000458401201D8808F096FA114B2246CDE9020453
S315000045944FF4A061CDE9005409200DF0F5FC01218A
S315000045A408460DF05FFD0DF029FD0A4B1B78012B23
S315000045B403D1094B1C7005B030BD002BFBD1012281
S315000045C4054B1A70F7E700BFB83D0020B43D002044
S315000045D4D16C0300913D0020C03D0020F0B52E4E65
S315000045E491B008AD00240FCE03270FC596E80F003F
S315000045F4012685E80F00294DCDE903442846CDE977
S31500004604054407948DF80E708DF808608DF80940FE
S315000046148DF80A408DF80B4005F0F2FE0521084698
S3150000462405F064FB022322461D4928468DF81730FF
S3150000463405F062FF23468DF819000090224642F2E7
S31500004644107128468DF8237005F06EFFA4230A9096
S3150000465408AA05A928468DF809308DF80E408DF86C
S3150000466411408DF8086005F083FF02AA03A92846C5
S3150000467405F086FE0B4AD2F828333343C2F82833B2
S315000046844FF48022AB6A3343AB62074BC3F88421F1
S315000046945A6011B0F0BD00BF906C03000040004AA0
S315000046A440420F0000C0034000E100E007B50123CB
S315000046B402220421002005F0CBFD04220123114629
S315000046C4032005F0C5FD012100230846022205F05A
S315000046D4BFFD01230022CDE900331946184605F033
S315000046E45DFD03F0D3FBFFF779FF41F288310548FE
S315000046F41EF052FA0022044B1A7003B05DF804EB64
S3150000470400F05EBDC43D0020C03D002070B5254EBE
S3150000471486B0254C02AD3146284606F08FF895E85A
S31500004724030084E803002149226801200EF07EFC80
S31500004734206831F0CBFD17A3D3E9002331F040FE06
S3150000474416A3D3E9002331F065FF194BC3E9000131
S31500004754D3E9000132F046F80A2216494243012001
S315000047640EF064FC012142F22403C822F1502368AE
S3150000477408465A4340F6FF73B2FBF3F206AB03F85E
S31500004784012D0822009221220DF0E8F906B070BD31
S31500004794AFF300806666666666660A40000000003F
S315000047A400FEAF400040004A70300020B06C0300A9
S315000047B4E8220020C06C03000022034B1A70012279
S315000047C4024BDA60704700BFC43D00200040004A37
S315000047D4C37B10B5ABB9C37C032B12D8DFE803F057
S315000047E402131621017D8289CB1C9A4224D3806848
S315000047F4445C01310DF05BFF0146204609F07EFB67
S31500004804E0B9812010BD09F0D1FBF9E7017D828969
S315000048140B1D9A4210D380680DF046FF09F010FC78
S31500004824EEE7017D82898B1C9A4205D380680DF0E0
S315000048343EFF09F01BFCE3E78020E3E70020E1E705
S31500004844C37B10B56BB9C47C5CB9037D81899A1CA2
S31500004854914208D38268591C515CD05C08F0D6F8A2
S3150000486418B9812010BD8020FCE72046FAE710B570
S31500004874437D0446012B0CD10368028A5988587972
S315000048840CF07AFD28B123685B88032B13D0C32070
S3150000489412E0637D002BFAD12368228A598858795D
S315000048A40CF061FD0028F2D023685B88032B02D04C
S315000048B403D8012BEBD8812010BD202B07D0B3F5EC
S315000048C4A06FE4D12046BDE81040FFF7B9BF2046EB
S315000048D4BDE81040FFF77CBF0120704701207047F8
S315000048E40120704770470020704700207047002061
S315000048F470470020704700207047002070477047BB
S315000049047047002070470120704701207047B5208A
S315000049147047002070470020704700207047002031
S315000049247047704700207047B520704700207047D5
S3150000493470470020704784207047704700207047F6
S315000049447047002070477047002070477047012069
S315000049547047002070470020704700207047000011
S31500004964034B1B681878012808BF0220704700BF54
S31500004974C82C002070470020704700000346012021
S31500004984024AC3E9032000221A7070470100FEFFA1
S3150000499470470020704700207047002070470020B1
S315000049A470470020704700207047002070470020A1
S315000049B470477047B5207047002070470020704745
S315000049C40020704770477047B5207047704770479E
S315000049D40020704770477047704770470023FF21D7
S315000049E4084A137082F8783082F8653082F8773096
S315000049F482F8793082F87A1082F87B30024A1360A2
S31500004A04704700BFF5380020CC3D0020F8B50D46B0
S31500004A148C680A6806462849202002F074FF6B68F1
S31500004A247BB92649202002F06EFF20200AF019FBEC
S31500004A342349202002F07CFFBDE8F84020200AF03C
S31500004A4410BB002EF1D01F4D1F4E204F013C14F811
S31500004A54013F23B91A49202002F06AFFE5E7752BC6
S31500004A6418D0762B18D0772B18D0732B18D0722B1E
S31500004A7418D0712B18D0622B18D06E2B18D02A2B75
S31500004A8418D01349134A212B18BF1146202002F0CF
S31500004A943AFFDCE72946F9E73146F7E73946F5E711
S31500004AA40D49F3E70D49F1E70D49EFE70D49EDE748
S31500004AB40D49EBE70D49E9E7B99F0300E76D0300EC
S31500004AC4986D0300A56D0300996D0300B06D030096
S31500004AD4F16D0300EE6D0300BC6D0300C66D0300AB
S31500004AE4D16D0300DC6D0300E66D0300EB6D03007E
S31500004AF4F0B50026204A92F87B30184452FA80F02A
S31500004B0490F865C090F8665030461C4BA5EB0C0532
S31500004B141F78EDB2F4B2A54225D90CEB0603134473
S31500004B245B7811B10CB92D2B17D0782B1FD0582BCD
S31500004B3405D108B137240AE0013C012C14D9602BB5
S31500004B4417D8402BF6D83A2B34BF302400241B1B2D
S31500004B54DBB29F4203D900FB07300136DAE70523AF
S31500004B64002082F87930F0BD10270020F5E70028F0
S31500004B74E2D05724EBE700BFF5380020E8210020F7
S31500004B84FFF72CBF034B93F8770093F87B30C01ADA
S31500004B94C0B27047F53800200021FFF7A9BF000016
S31500004BA410B50A4B93F87B20024453FA82F292F82A
S31500004BB4652013445C78A4F12D0359425941FFF74B
S31500004BC497FF2D2C08BF404210BD00BFF5380020CA
S31500004BD430B50C4A92F87B300344C043DBB2C00FB5
S31500004BE439B1D51895F8664095F86550641B241AB2
S31500004BF40C7042FA83F393F865301844024B184458
S31500004C0430BD00BFF5380020F63800202DE9F34109
S31500004C1415460F460DF107011C46FFF7D9FF9DF80F
S31500004C2407308046AB4288BF8DF807509DF8076071
S31500004C340CB1AC1BE4B222460021384631F0EFFF3A
S31500004C4432464146381931F0D1FF304602B0BDE84C
S31500004C54F08138B50C4601230822FFF7D7FF04F18B
S31500004C640803621E043413F8011D12F8015FA342FF
S31500004C741D701170F7D138BD38B5054601460120BF
S31500004C84FFF7C4FED5E901436CB91C46084D2368F9
S31500004C9463B12946202002F036FE21460020FFF7A4
S31500004CA4B5FE0C34F3E71B786E2BEFD038BD00BF8E
S31500004CB47DBB030008B50449202002F024FEBDE8AC
S31500004CC4084020200AF0CDB9596D030038B5FFF726
S31500004CD4F1FF0024054D61190C34631953F80C3C9B
S31500004CE403B938BD0020FFF791FEF4E7107C0300FA
S31500004CF42DE9F84F1F4B204D53F820201F49202043
S31500004D0402F001FE2B681BB9BDE8F84FFFF7DEBFC2
S31500004D141B4FFFF7CFFF0026B946DFF86CA097F8C4
S31500004D247B30F4B2013B9C4204DB2868BDE8F84FB3
S31500004D34FFF7A2BF47FA86F393F8658000234C4435
S31500004D44C84494F8662094F8651003F1010B521ACE
S31500004D54DBB2D2B2934205D30A49202002F0D3FD36
S31500004D640136DCE743445A785146202002F0CBFD55
S31500004D745B46E6E7881D0020CC3D0020546D030009
S31500004D84F53800207EBB03008CBE03002DE9F74FE7
S31500004D94884C94F87730002B00F0A180864B671C72
S31500004DA41B7813F0010F1FD00025844E14E06319FD
S31500004DB493F8662093F865302020D21A44FA85F3D6
S31500004DC493F86510D2B239440AF046F931462020E8
S31500004DD402F099FD0135EDB294F87730AB42E6D88E
S31500004DE47749202002F08FFD002694F87730DFF80B
S31500004DF4DCE10193734B4FF00008714645461EF8FB
S31500004E04012B91F801C007EB020AACEB020C5FFA26
S31500004E148CFC1868002852D00138D14619E02AB90A
S31500004E24002D4AD04FF001080C33F2E719F8011BA4
S31500004E34A1F1410BBBF1190F98BF2031A2F1410B2F
S31500004E4498BFC9B2BBF1190F9CBF2032D2B28A42B5
S31500004E54EAD1A9EB0A01614510F8012FDFD1002A36
S31500004E64DED11D46584B01361D6094F87B30F6B2F0
S31500004E74013384F87B30D5E90123002A35D01B7829
S31500004E846E2B31D03F2B23D04FF000094FF0070B88
S31500004E94C846042394F87710AA68B14212F8087039
S31500004EA42BD8AFB1904498F801302A2B10D0212F7B
S31500004EB41CBF032384F879300AE01D46B4E7B8F131
S31500004EC4000F01D1002DCDD10223002584F87930BD
S31500004ED494F87900002869D168680DF0CBF803B01E
S31500004EE4BDE8F04FFFF77ABD1346019AB24282D865
S31500004EF403221D4684F87920EAE7732F09D8712F17
S31500004F040BD2212F1FD0622F3CD0002F4BD103226E
S31500004F1446E0A7F17502022A45D8752F29D0762FC7
S31500004F242AD0732F2BD0722F47F6FF7A18BF4FF073
S31500004F34FF3A012148460193FFF7DAFD5045019BEC
S31500004F4401D984F87930AA68424452782A2A94F816
S31500004F5479201CBF08F101085FFA88F8002AB7D146
S31500004F64212F1FBF013609F10109F6B25FFA89F94B
S31500004F7490E74FF0FF0ADCE74FF6FF7AD9E74FF0E8
S31500004F847F0AD6E794F87B204A4454FA82F292F8D0
S31500004F94652022445278222AD5D07B2AD3D00522F2
S31500004FA484F87920CFE784F879B0CCE7FFF7A0FE40
S31500004FB495E700BFF53800209F3900207EBB03002B
S31500004FC4966D0300107C0300CC3D00205A39002066
S31500004FD42DE9F34106460D464FF000085C4C5D4F43
S31500004FE466B90DF1070128460AF010F878B12628AB
S31500004FF400F0A980012384F879304BE0002D00F0FD
S31500005004A28016F8013B013D8DF80730EDB23A78DF
S315000050149DF807300D2A3B7001D10A2BE0D00D2BE9
S315000050240CD0A3F10A025142514122788846042A3F
S31500005034D6D8DFE802F0051D263C31000121F4E74D
S3150000504421B1FFF7A3FE4FF00108C9E7202B63D077
S31500005054222B07D10223237094F87820642A5DD189
S315000050640623C8E77B2B01D10323F4E70123F2E7E8
S3150000507409B9202BF0D194F87730112B3FD10323B3
S31500005084B9E7222BF7D00029E6D005234FF0010813
S3150000509484F8793004232370B8F1000FA0D094F873
S315000050A4790008B1FFF724FEFFF798FC98E77D2BFB
S315000050B494F87A0003D1FF28DDD005239BE7602B03
S315000050C413D8402B13D8392B8CBF002230229A1ABE
S315000050D4D2B20F2A10D8FF280BD0FF2302EB0012FE
S315000050E48DF8072084F87A30B6E75722EFE737229F
S315000050F4EDE784F87A2073E7202BDED170E70133DD
S31500005104DBB294F8782084F87730234483F865205A
S3150000511400232370002994D1884661E72378012B64
S3150000512409D19DF80730A3F1410119299CBF203309
S31500005134DBB28DF807309DF80710A31801325970B9
S3150000514484F878204CE7404602B0BDE8F08100BF01
S31500005154F5380020F239002049BA89B24840C0F334
S3150000516403114140080380B24840C3B280EA4310A9
S3150000517470471CF0E9B9704770477047704770472D
S31500005184704770477047704770477047704770475D
S315000051940020704770470020704770477047002012
S315000051A47047002070477047012070470120704700
S315000051B470477047704770477047704770470000E4
S315000051C40022024B1A705A70704700BF4D440020EB
S315000051D40022F8B5054614460A4F6B78561CD2B21F
S315000051E4934207D2E4B22246074901200DF01EFF7E
S315000051F42046F8BDAB5C394601201C440DF016FF71
S315000052043246EAE77E6E0300896E030002220249F3
S31500005214104609F021BF00BFC121002010B5044685
S3150000522401F0FCFD0021F523084663702378013B59
S31500005234CAB29A4201F101010BDB23445870FFF70D
S31500005244E5FF2146BDE8104011F8012B022009F0C4
S3150000525403BF224452781044EAE700000022054BBB
S3150000526410211A7042F2A003034A0448D1501421B3
S315000052741DF092BCAC3D002000C00340943D0020CC
S3150000528400211022034B04481970044B1A601DF0C8
S3150000529483BC00BF943D00209C3D0020A0D0034069
S315000052A4002210B5084C094B20461A70FFF7B6FFCA
S315000052B4074901200DF0BAFEA3782278054901209A
S315000052C4BDE810400DF0B2BECC4300209C3D00204A
S315000052D4E56E03001F6F0300F0B5437A85B0212BFA
S315000052E404462DD108220027867A04AB16F0200640
S315000052F423F8047D1A4D00924FF4A0614FF0020288
S315000053044FF001001ED00CF07AFC39469DF80D20B2
S315000053149DF80C3003EB022343F001032B80114864
S315000053241DF03AFCA37A5B070AD5E27A04AB03F8CC
S31500005334052D012108220846009221220CF00EFCBC
S3150000534405B0F0BD0CF05BFC9DF80D209DF80C300B
S31500005354314603EB022323F001032B80DFE700BF72
S31500005364B43D0020B83D00202DE9F04180460C46AE
S3150000537416461168471C4D78384602352A4631F0E0
S315000053842AFCEBB288F8003062780021134463707B
S3150000539415481DF001FC33689B78012B02D1404669
S315000053A4FFF79AFF114901200DF040FE627810497B
S315000053B401200DF03BFE627823789A420AD18022BE
S315000053C40021E01C31F02BFC0023012023706370C4
S315000053D4BDE8F081336880221D44356000213846DB
S315000053E431F01DFC0020F3E7AC3D0020926E030073
S315000053F4CC6E03002DE9F341022009F005FEC5B287
S315000054048DB1384C002321782A46033121440220E9
S3150000541409F001FE23782B44DBB2082B237005D850
S315000054242378022B16D802B0BDE8F0812A462E490D
S3150000543401200DF0FBFD00222C4E2378551CD2B220
S315000054449342EDD9A318DB78314601200DF0EEFD29
S315000054542A46F2E76378264D03332344254E264F26
S315000054640193627823789A42DDD201990878FA2862
S3150000547431D14978023111449942D4DC31460120B4
S315000054840DF0D4FD0198FFF7A3FE019B5A781A4448
S315000054945278904209D00133019363781749013356
S315000054A4637001200DF0C2FDDBE7394601200DF0E3
S315000054B4BDFD019BDFF84C809B78012B06D101AA28
S315000054C408490F48FFF750FFC8F80000D8F8003025
S315000054D4002BC6D0A7E7013101320191627029463B
S315000054E4DFE700BF4D440020506F03005A6F0300EE
S315000054F4BD6F03006F6F0300AF6F0300A16F03005E
S31500005504CC4300206C3000202DE9F0470024204DC8
S31500005514DFF89C90DFF89CA05FFA84F840461DF003
S3150000552453F8FF2806460CD122461A49287802F079
S31500005534FFF92878013409F094FD152CECD1BDE867
S31500005544F087154B47B213EA270338BF534659F879
S3150000555424201249287802F0EBF9002FE9DA14B175
S31500005564B8F1030F08D10E4B16F0010F0D49287838
S3150000557418BF194602F0DCF90A2CDAD10A4B16F0E8
S31500005584010F0A49287818BF194602F0D1F9D0E765
S315000055942922002061700300986D030089700300BE
S315000055A4247003003A7003004C7003005670030025
S315000055B4D06F030083B9030082B2074B4AB1000CD3
S315000055C41A8008BF4FF6CE22044B14BF18801A80E7
S315000055D470474BF6EF62F2E7AC210020AE210020C3
S315000055E4094B1888020448BF80F0620042001A8002
S315000055F4064A1388190444BF83F4805383F00B03CB
S315000056045900118058407047AC210020AE2100207B
S315000056140022034B1870034B1970034B1A70704722
S31500005624E7380020E6380020ED3900202DE9F04F58
S31500005634214E85B0337807468846002B39D04FF67D
S31500005644FB73984235D81D4B4FF0000B9A461C4D00
S315000056542C7832785FFA8BF94A45187811D9484480
S3150000566402A9C0B2019327F067FA082241460DEB5E
S31500005674020031F0A1FA0BF1010B019B0028E8D1DD
S315000056844C462B78A34207D1631C3278DBB29A428C
S315000056942B7004BF00232B709AF8003041461C443B
S315000056A4E4B2204627F086FB18B93946204627F08F
S315000056B411FA05B0BDE8F08FE6380020E73800207F
S315000056C4ED390020024B187800F07F00704700BFC8
S315000056D4613A0020034B18780130C0B2187000F00C
S315000056E47F007047613A00201FB5030A8DF80E301B
S315000056F40323009303AB8DF80D0000F0C7F905B042
S315000057045DF804FB1FB58DF80F100421030A8DF80C
S315000057140E30009103AB8DF80D0000F0B7F905B01B
S315000057245DF804FBF0B589B01768BDF838509DF8EC
S315000057343C60CDF8097057688DF81250012E4FEA77
S315000057441525DDF840C0BDF84440CDF80D708DF840
S3150000575411308DF813508DF8146016D0032E1BD11A
S31500005764DCF80030CDF81530DCF80430CDF819300B
S315000057749DF848308DF81D3016230093BDF84C2053
S3150000578402AB00F083F909B0F0BD8DF81540240A88
S315000057948DF816400F23F0E70120F4E71FB50C46F9
S315000057A4194602238DF80D2000930A4603AB0146E1
S315000057B4204600F06BF904B010BD10B51C460B680A
S315000057C486B0CDF80D304B688DF81520CDF8113024
S315000057D40A2322460093342103AB00F057F906B09E
S315000057E410BD000030B5002485B0ADF80A20021DB6
S315000057F492B2012A1D46ADF80840ADF80610ADF880
S31500005804044003D94FF6FF72904207D1064A2B464D
S31500005814127801A925F01CFA05B030BD014601AA8B
S31500005824204625F0DBFAF7E7302200202DE9F04F79
S31500005834834689B00C461F4690463AB310461DF07F
S31500005844BBFDC0F3470A1FB338461DF0B5FDC0F3D0
S315000058544709FFF73FFF4FEA1B238DF818008DF821
S315000058641B400022240A062106A88DF819B08DF8DB
S315000058741A308DF81C408DF81DA01DF0B1FEADF850
S31500005884160038B9182009B0BDE8F08F9246DAE759
S31500005894B946DEE74FEA4A01CBB2DC1DE4B204EBBB
S315000058A44901C9B20DF1160001931EF08CF80028C7
S315000058B4E8D10646F2B29245BDF8163015D80199DC
S315000058C44A46063101F0FE0118461EF0EDF80026A0
S315000058D4F5B2A945BDF816802AD84346BDF8482036
S315000058E406215846FFF77EFFCDE75500EDB229465F
S315000058F44046039302921EF0C3F8029A039BD11CFE
S315000059044900024601F0FE0118461EF0CDF8BDF826
S315000059141630691CC9B2404602931EF0B1F8029BC8
S31500005924E91D0246C9B218461EF0BEF80136C1E7A3
S315000059346D00EDB2294638461EF0A2F8214602460D
S3150000594440461EF0B1F8691CC9B23846BDF8168047
S315000059541EF096F8611C0246C9B2404602341EF097
S31500005964A3F80136E4B2B3E7F0B589B00E4602A94E
S3150000597405460BF0ADF8002800F08180FFF7AAFE7B
S315000059848DF810001CF0FEFF8DF811001CF0FAFFD4
S315000059943D4A000A13688DF81200CDF81330536897
S315000059A40F21CDF81730BDF8083000228DF81C30D1
S315000059B41B0A8DF81D309DF80D3004A88DF81B5078
S315000059C48DF81E301DF00CFEADF80600002858D0E8
S315000059D400279DF80D30FAB2934207F1010718D853
S315000059E401230DF10E011A460DF106001DF034FED9
S315000059F400279DF80E30FAB2934207F1010723D827
S31500005A04BDF80630324620210020FFF7EBFE09B030
S31500005A14F0BD002128460BF087F801238DF8050018
S31500005A241A460DF1050104460DF106001DF014FE9B
S31500005A340123240A1A460DF105010DF106008DF81D
S31500005A4405401DF009FEC4E7012128460BF06CF859
S31500005A5401238DF805001A460DF1050104460DF1E2
S31500005A6406001DF0F9FD0123240A1A460DF105016D
S31500005A740DF106008DF805401DF0EEFDB9E7A320F3
S31500005A84C5E71820C3E700BFF44400202DE9F04120
S31500005A941C460E4617469DF818800546FFF71AFE63
S31500005AA400222070414620461DF09AFD034630B17F
S31500005AB43A4631462846BDE8F041FFF793BE182022
S31500005AC4BDE8F08108B5FEF7F1FD0EF095FBBDE8E3
S31500005AD4084005F067BD08B5FEF7A4FC0EF0B8FB58
S31500005AE405F020FFBDE8084007F046B908B5FEF703
S31500005AF41FFFBDE8084007F0BDBBFEF74EBFFEF72B
S31500005B0452BF0020704738B504460D46FEF762FFC3
S31500005B1429462046BDE838400AF006B8FEF745BFD8
S31500005B24FEF74EBF4022032101200FF0A1B8012247
S31500005B34032110460FF09CB80022032101200FF028
S31500005B4497B80222032101200FF092B800224FF4E5
S31500005B54A06109200FF08CB801224FF4A06109203E
S31500005B640FF086B80122002109200FF081B8002326
S31500005B7407B5CDE90033012369464FF0FF308DF8B0
S31500005B84023010F0E5FD003018BF012003B05DF8C7
S31500005B9404FB012070470120704701207047000074
S31500005BA42DE9F74F07460D46144699464FF0010B6B
S31500005BB4DFF8708003F10C0A15B903B0BDE8F08F65
S31500005BC4102D2E4628BF10264946154AF3B251F821
S31500005BD4040B514542F8040BF9D101939AF80010CD
S31500005BE410481170002288F80F4088F80E2088F8B3
S31500005BF400B027F07BF93A4601340B48019BE4B226
S31500005C0412F8011B10F801CF81EA0C0102F8011CFD
S31500005C14D11BC9B29942F3D3AD1BADB21746CBE73C
S31500005C24A3390020A2390020A13900202DE9F04F24
S31500005C3485B002930F9B8046019303461646BDF832
S31500005C443890344A0D4600F10C0153F8040B8B428C
S31500005C5442F8040BF9D11B784FF0020A137049235A
S31500005C642D4C237020464FEA1923A37384F80F9012
S31500005C74A34627F03BF95246237883EA162323707A
S31500005C8463787340637000271EE0C2F11001F31BB2
S31500005C9489B29BB28B4228BF0B462946501B039000
S31500005CA40398A1EB050C1FFA8CFC08189C45C0B29E
S31500005CB41AD31A44D2B21F44102A1D44BFB203D1C8
S31500005CC4204627F013F90022B742DED312B1584614
S31500005CD427F00CF9BAF1010F4FF00002029D4E466F
S31500005CE40BD04FF0010ACEE711F801CB1BF800E008
S31500005CF48CEA0E0C0BF800C0D2E7074B01991B681F
S31500005D0401980B604346042105B0BDE8F04FFFF748
S31500005D1447BF00BFA3390020A2390020F7B5099F69
S31500005D24BDF820400646CDE900471D46FFF77EFF35
S31500005D342CB13346012221462846FFF731FF0020C5
S31500005D4403B0F0BD2DE9F7431E4605468846914645
S31500005D54BDF828700D4C0346394630460122FFF73C
S31500005D641FFF33464A4641462846CDE90074FFF7ED
S31500005D745DFF042221460B9830F01EFF002814BF55
S31500005D847E20002003B0BDE8F08300BFF038002079
S31500005D9473B51C46044D8B181E59CDE900452E607B
S31500005DA4FFF7D0FF02B070BD3C3A002000207047D8
S31500005DB4002070470020704770477047F7B50024ED
S31500005DC4094E0A4F0A4D56F8243003B93B6835F894
S31500005DD41420084900920120224601340DF026F9C8
S31500005DE4292CF0D103B0F0BDC82000207C2100206E
S31500005DF400420020CD86030008B5FFF7DFFFBDE8AB
S31500005E04084000F0F1B8000007B50020FEF7C4FE14
S31500005E14C2B2282A0DD8084B53F822300BB9074BC7
S31500005E241B680749012031F81210009105490DF04D
S31500005E34FDF803B05DF804FBC82000207C21002097
S31500005E4400420020CD860300FFF7B8BF704700006C
S31500005E5438B50020FEF7A0FE04460120FEF79CFE9E
S31500005E640546054901200DF0E1F8A9B2E0B2BDE806
S31500005E74384000F0D1B800BFD8860300F7B5002437
S31500005E84094E0A4F0A4D56F8243003B93B6835F8D3
S31500005E941420084900920120224601340DF0C6F868
S31500005EA4292CF0D103B0F0BDC82000207C210020AD
S31500005EB4AE410020CD86030073B502AB03E90600AC
S31500005EC40446019D1CF0A8F9064620461CF0B2F9CA
S31500005ED49DF800008EB1202C0FD82B78012B37D8D3
S31500005EE44FF6FF75394903EB4313234431F8132066
S31500005EF4AA4202D0013221F813204FF6FF72344B26
S31500005F04344933F8146031F8145096421CBF721C9D
S31500005F1423F8142004F0FD02092A31D19A8A898AC9
S31500005F2402448A42B4BF9A82998233F81430AB424F
S31500005F3404D3AE4202D22046FEF702FD0025264BCC
S31500005F44EA5CA24228D00135112DF9D102B070BD08
S31500005F54022BD2D14FF6FF714FF6FF751B4B33F868
S31500005F6414208A421CBF013223F8142004F12102B2
S31500005F7433F81210A9421CBF013123F81210BCE7F2
S31500005F841D2CD2D15A8F1118A942BDBF02F1FF327E
S31500005F9412185A875D87C8E719F099F80F4B04461B
S31500005FA41B78834203D8DD210D4800F031FA4FF601
S31500005FB4FF710C4A04EB04142C4432F814308B425F
S31500005FC4C4D0013322F81430C0E700BF5242002087
S31500005FD400420020AE410020448A0300062200202D
S31500005FE4C08903008C41002052220021014830F070
S31500005FF416BE00BF004200205222FF21014830F0A5
S315000060040EBE00BFAE41002008B5FFF7EDFFBDE8A8
S315000060140840FFF7F1BF0000014B23F8101070474A
S31500006024AE410020032310B50F4C1022C4E90433FB
S315000060340E4B0F49E3610023A16121660D49E01D62
S31500006044C4E919120C49A3626362E3622367E36637
S315000060546367226230F0F5FD0849204630F0F1FD11
S315000060642023A37110BD00BF003C0020D5380020BA
S31500006074558A0300C53800205E8A0300628A03003D
S315000060842DE9F84F1F4B16461A7881468A469846DC
S315000060940AB9FFF7C7FF182707FB09873D6FD7F82B
S315000060A46CB05D452BD9BC6E796E641BB44228BFB7
S315000060B4344629445046224630F08DFDBB6E2544B5
S315000060C4AB4208BF0025A244361BABEB050B5E456D
S315000060D428BF5E4656B1182303FB0983596E324620
S315000060E42944504630F077FD3444354424B118230E
S315000060F403FB0988C8F870502046BDE8F88F0024D1
S31500006104E3E700BF003C0020F8B504460E461746F8
S3150000611403F0A5FF3A46054631462046FFF7B0FF91
S315000061240446284603F0A1FF2046F8BD2DE9F843AE
S31500006134124D1E462B788146884617460BB9FFF743
S3150000614471FF03F08CFF00244FF0180C69690CFBF7
S3150000615404535A6E2AB10134A142F8DC4FF0FF34DD
S3150000616407E0A142FADDC3E918989F661A67DA6662
S315000061745E6703F07AFF2046BDE8F883003C002002
S31500006184FFF750BF70B54FF060441A4B00261A68EB
S31500006194194D42F001021A60DA680C2042F080724E
S315000061A4DA60164BC4F8B03F0223C4F8006EC4F894
S315000061B4806EC5F8F03003F05BFC114B00F5D5207A
S315000061C400F2FC40B0FBF3F00E4A0F4B0138286195
S315000061D4C4F8406E1A600D4BC4F8803E4FF48073C9
S315000061E4C5F80433D4F8003E43F48073C4F8003E83
S315000061F470BD00BFF0ED00E0000004E055CEACC574
S31500006204F8590D00FF030040001000E00D000100E6
S3150000621410B501240F4B00201C6003F0BDFF23467C
S3150000622404220321002004F013F820460FF01CFF7B
S31500006234FFF7A8FF0FF019FF074B1C70FFF7A0FF2D
S315000062442346402205490648FFF770FF054B1860B0
S31500006254C00F10BD44D4034076390020FC39002019
S31500006264698A0300F01F002038B5194C03F0F7FEC5
S315000062742378022B05BF032300250125237003F091
S31500006284F4FE25BB4FF06043D3F8802ED10711D519
S3150000629410490A6822F440620A60D3F8802E22F07C
S315000062A40102C3F8802ED3F8802E1202FBD4642098
S315000062B418F071FA0023084AC2F8F030C2F8043321
S315000062C4A2F54432A2F5047213600123237038BD8B
S315000062D476390020001000E0000004E0024B186844
S315000062E4003018BF01207047F0ED00E0D123054AC5
S315000062F4037013784170090A8170591CC3701170B8
S3150000630404207047413A00202DE9F74F0E78834662
S31500006314042E0F4661D918F0EBFADFF8C4808246E2
S315000063244FF6FF710024C146751DEDB2D8F8003052
S315000063345BB1A54209D9019118F0DAFAA0EB0A007B
S3150000634480B2B0F5FA7F019907D9281B18BF01203E
S3150000635404233B7003B0BDE8F08FB4B3012C37D0EF
S31500006364EA1E631C9442DBB21CD1CCB24FF06042ED
S31500006374D2F8800EC00713D51046D9F80CC04CF0DD
S31500006384807CC9F80CC0D0F800CE4CF4807CC0F8F0
S3150000639400CED0F820C0BCF1000FEED082F8204029
S315000063A41C46C3E7AA1E944202D1C1F30724DDE7C3
S315000063B46A1E94420FD05C4414F8024C01932046A2
S315000063C4FEF7CAFE019B0146D0E75B240123CDE715
S315000063D434460223CAE75D24C8E70020B8E700BFB5
S315000063E4F0ED00E000B5084B91B04022694618680C
S315000063F4FFF78AFE20B1C2B2694612200FF0E4FD0F
S3150000640411B05DF804FB00BFF01F002042DE7047A8
S3150000641438B504460D4600F001FD03F018FE294682
S3150000642420460FF09DFD2B4622460549012008F023
S315000064341DFE29462046BDE83840FFF7E7BF00BFEA
S31500006444798A03006D4B2DE9F0415A686C4CA265BC
S315000064545A6AE2656B4AD2F800122166D2F804221F
S3150000646462669A6AA266DA6AE2661A6B22675A6BEF
S315000064746267A26BDB6B12F0040FA367D4E90F53B8
S3150000648418BF1D4618F0D8F90022854203466065F8
S3150000649422655DD35C4A95425AD8AA696264E96961
S315000064A4A164B4F85810C1F30801062954D1574918
S315000064B48A4251D356498A424ED211884DF64262D7
S315000064C4914249D140F201706268C4F89420A268EE
S315000064D4C4F898204F4A5049934238BF13460A4697
S315000064E48B423CD3D31AE3640023C4E91F33C4E9C3
S315000064F42133C4E92333484E444FDFF814C1AE4276
S3150000650433D8D4E91FC7D4E92165D4E923124FF05F
S31500006514000E013BDBB2FF2B42D1BEF1000F05D0CA
S31500006524C4E91FC7C4E92165C4E92312B4F8583085
S31500006534C3F30803052B57D03CD8032B47D0042BB1
S3150000654458D040F60722013B4B2B98BF104640E03B
S3150000655400221D46C4E911224FF42060BAE71E68E2
S31500006564B6F1CD3FBED10433BAE756F8042DBA428C
S31500006574C5D36245C3D2D107C1D5002104EB010EB0
S31500006584DEF87CE09645BAD004311829F6D10BB969
S31500006594052301E0013BDBB204EB8301CA67AEE7E6
S315000065A4E0464FF0010EBC4637462E460D461146D0
S315000065B44246AEE70C2B1AD03B2B0CD0062BC0D18F
S315000065C440F60423B0F5206F08BF184601E040F6F4
S315000065D40120BDE8F081114B9B6913F0020F40F2D4
S315000065E4025318BF1846F4E740F60320F1E740F6D5
S315000065F40520EEE740F60220EBE700BF00ED00E0E1
S315000066040000002000E100E0E01700204C430000F9
S31500006614906C03009C000020001800200080014AB2
S3150000662410B504F003FA044604F0F8F90022012137
S3150000663401FA02F3234014D01B4B33F812301B4AE1
S31500006644062B13D040F207218B420DD11849194865
S315000066540C68844208D14CF23C334B800B8813807F
S3150000666412E00132102AE3D1104AF8E74FF20F0183
S315000066740F4B5888884214D11988B1F5406F10D24F
S3150000668411804CF23C325A80084B1A8840F201734E
S315000066949A4201BF084B094AD2E90001C3E9000145
S315000066A410BD4FF4C061EBE78C8A03009E360020D0
S315000066B40000002007020FF078300020940000202C
S315000066C4014B1888000A70479E360020014B188833
S315000066D4704700BF9E3600202DE9F04F4D4C05460D
S315000066E4A36BD4F850B05A0747BF0027B846D4F86E
S315000066F44CB0D4F85480D4F840A05DBF464FD4F8CB
S315000067043CA0DFF83C91DFF83C9113F0080F434BB3
S31500006714434A18BF1A46B7EB08061FBF642173081D
S3150000672401FB0B33B3FBF6F387B01CBF9BB2059397
S315000067343C494B46CDE9017ACDF8008008BF059661
S3150000674401F0F6F8B3B2CDE900931FFA8BF2059B7C
S315000067543549284601F0ECF8A36B5B070AD49C3E46
S315000067645E4507D1626D314B9A4203D230492846C1
S3150000677401F0DEF8BA4501D8C24504D24A462D498D
S31500006784284601F0D5F8284608F06BFC236E0BB9B1
S31500006794636EBBB32849284601F0B5F800260127E5
S315000067A4DFF8A480DFF8A490226E07FA06F31342FA
S315000067B407D058F8262013781BB14946284601F01D
S315000067C4A2F80136202EEFD100260127DFF87880C3
S315000067D4DFF87890626E07FA06F3134209D008EBE5
S315000067E48603D3F8802013781BB14946284601F066
S315000067F48AF801361D2EEDD1284607B0BDE8F04FC4
S3150000680401F090B828460D4907B0BDE8F04F01F0F5
S315000068148FB800BF0000002000180020938D0300ED
S315000068249A8D0300A28D0300D08D03009C000020E6
S31500006834098E0300358E0300538E0300828E0300F7
S315000068448E8D030025A80300988E0300B89F0300CD
S315000068542DE9F8430446FFF739FF40F60123984231
S3150000686439D010D840F2025398421DD040F2017339
S31500006874984224D040F20153984213D165492046E8
S3150000688401F056F822E040F6032398426CD03DD33B
S3150000689440F60423984200F09C8040F60523984273
S315000068A400F0B580BDE8F8835B49204601F040F866
S315000068B45A4B5B495A6C204601F03AF806E0574AAF
S315000068C45849D2E92523204601F032F82046BDE88E
S315000068D4F84308F0C6BB514D5349204601F028F849
S315000068E495F86C309F0703D55049204601F020F8EF
S315000068F495F86F305E0603D54D49204601F018F829
S3150000690495F96F30002BE1DA4A49B8E7434D4A4915
S31500006914204601F00DF895F86830980704D06A6CA3
S315000069243F49204601F004F895F96830002B04DA53
S315000069346A6F4249204600F0FBFF00260127DFF874
S315000069440881DFF81491AA6E07FA06F3134207D0FA
S3150000695458F8262013781BB14946204600F0E8FF74
S315000069640136082EEFD1B1E72C4D3549204600F00B
S31500006974DFFF2B496A6C204600F0DAFF95F8693090
S31500006984590703D52F49204600F0D2FF95F96930FF
S31500006994002B04DA6A6F2949204600F0C9FF08264D
S315000069A4294FDFF8B480AB6EF340DA0707D557F802
S315000069B4262013781BB14146204600F0B9FF013664
S315000069C4102EF0D195F86830002B7FF47FAF1F4965
S315000069D455E7124D1E49204600F0AAFF6A6C10497D
S315000069E4204600F0A5FF1026174FDFF86C80AB6E2B
S315000069F4F340DB0707D557F8262013781BB1414629
S31500006A04204600F095FF01361A2EF0D15EE71149B3
S31500006A144BE700BF1D8B03005A8B030000000020C8
S31500006A248A8B0300A38B0300BD8B0300D58B030065
S31500006A340F8C0300428C03007E8C0300A38C03009E
S31500006A44C78C0300DE8C0300AC8A0300248D03008C
S31500006A54548D03006D8D0300BF8C03002DE9F84FA0
S31500006A6406460025154C164FDFF85C80DFF85CA05F
S31500006A7423785FFA85FB0BB9BDE8F88F57F8043B1A
S31500006A8422461049304600F03EFF227804F10109FF
S31500006A9482B9627882B10BF0030103290CBF414627
S31500006AA45146304600F02FFF304608F0DAFA013539
S31500006AB44C46DDE74C46E8E74146F2E78C8F030097
S31500006AC404000020148B0300966D030093AB0300AF
S31500006AD400F00CB800F00AB800F008B800F006B8E8
S31500006AE400F004B800F002B800F000B872B61EF068
S31500006AF4080F09D01EF0040F0DD0DFF850E0AEE801
S31500006B04FF1F6FF002000CE0DFF840E0AEE8FF1F65
S31500006B146FF00E0005E0DFF834E0AEE8FF1F6FF01B
S31500006B2406006946EFF309828EE8070086460848A0
S31500006B34084C854501D3A54501D384F30888FFF79E
S31500006B4481FC84F3088817F053FE0000040000203B
S31500006B54E00E002000180020FFF7C6BF70470000B3
S31500006B6400F07E63B3F17E6F70B505460E4614469B
S31500006B7416D106F05BFA18B19A210D48FFF748FCC6
S31500006B8422463146C5F30B0004F00CF8044606F021
S31500006B945BFA5CB19D21BDE870400548FFF738BC3F
S31500006BA4520817F0C3FD08B18F21F4E770BD00BF8A
S31500006BB4AC96030037B57F2A14BF154600254BF261
S31500006BC434629142044619D17F2241F20201684699
S31500006BD40823FFF7EFFF0822264968462FF0ECFF4B
S31500006BE430B908237F2241F2F0116846FFF7E2FF2D
S31500006BF46B4603CB2060616003B030BD41F2F012F6
S31500006C04914219D11C4901388A6CC96C1D1F002B8D
S31500006C14F2D0013B9D4200F8012F4FEA1222F6D131
S31500006C24002203349A42E7D00132042A04F8011FF1
S31500006C344FEA1121F6D1DFE701F47042B2F5805F25
S31500006C440BD11A46C1F30B0404F17E6403FB054120
S31500006C5403B0BDE830402FF0BEBF01F46042B2F588
S31500006C64005FC9D1C1F30B0404491A46214403FB4E
S31500006C740511EDE7269703000080E00F00E007000A
S31500006C8470B5054616461C46DBB14BF23463994291
S31500006C9410D1082C28BF08247F2241F20201234682
S31500006CA4FFF788FF2246074928462FF085FF40B99B
S31500006CB441F2F011234632462846BDE87040FFF7FC
S31500006CC479BF70BD269703002DE9F7430446E00714
S31500006CD40F46154603D5DD213448FFF799FBE9072E
S31500006CE403D5DE213148FFF793FB04F47043B3F573
S31500006CF4805F3ED1C4F30B0404F17E646B1E2C4A00
S31500006D0423449342264603D9E3212848FFF780FB10
S31500006D14DFF8989006EB050846453DD1A2070ED04C
S31500006D244FF6FF7337F8022B02A943EA0243A01E6B
S31500006D3441F8043D0422FFF713FF0234023DAB077A
S31500006D440ED0023D25F00103FB5A02A96FEA034364
S31500006D546FEA1343042241F8043D6019FFF700FF6C
S31500006D6425B12A4639462046FFF7FAFE03B0BDE8A8
S31500006D74F08304F46043B3F5005F05D10D4BC4F30F
S31500006D840B041C442646C3E7EA210848FFF740FBE8
S31500006D946FF00F060024BBE716F8013BFF2BBBD0B0
S31500006DA4F4214846FFF734FBB6E700BFAC96030070
S31500006DB4FF1FE00F00E00700FFF78ABE1FB5144A65
S31500006DC401AB10685168128903C31A8001238DF838
S31500006DD404300D238DF80A3003230E4C0821242099
S31500006DE48DF80B3002F082FF01A9204604F04FF91A
S31500006DF44FF40061022342F21800074AC2F88411D4
S31500006E042350516041F21C02A35004B010BD00BFD0
S31500006E142E9703000080014A00E100E0014804F0D7
S31500006E2425B900BF0080014AA52803D100210248E4
S31500006E3404F00DB9704700BF0080014A024B586840
S31500006E4400F00100704700BF0080014A024A536AFD
S31500006E54002BFCD1704700BF0080014A0020704718
S31500006E64002070477047000007B572B603F0EFF8CC
S31500006E748D4B8E495B6940228B6000230B764B76E3
S31500006E848B76F023CB760B774B778B77CA7780227A
S31500006E9481F8202081F82130E023602081F8223017
S31500006EA4834B81F8232083F8002383F8012383F896
S31500006EB4022383F8032383F8042383F8052383F842
S31500006EC4062383F8072383F8082383F8092383F822
S31500006ED40A2383F80B2383F80C2383F80D2383F802
S31500006EE40E2383F80F2383F8102383F8112383F8E2
S31500006EF4122383F8132383F8142383F8152383F8C2
S31500006F04162383F8172383F8182383F8192383F8A1
S31500006F141A2383F81B2383F81C2383F81D2383F881
S31500006F241E2383F81F2383F8202383F821032020BC
S31500006F3483F8222383F8232383F8242383F8252341
S31500006F4483F8262383F8272383F8282383F8292321
S31500006F5483F82A2383F82B0383F82C0383F82D2341
S31500006F6483F82E2383F82F2383F8302383F83123E1
S31500006F7483F8322383F8332383F8342383F83523C1
S31500006F8483F8362383F8372383F8382383F83923A1
S31500006F9483F83A2383F83B2383F83C23CB6823F412
S31500006FA4E0631B041B0C43F0BF6343F40133CB6063
S31500006FB44B6943F010034B614FF4E0234B6204F03A
S31500006FC4ADFEFFF72DFBEFF308834FF0CD31394AC1
S31500006FD4043B934265D2384A002192B237482FF0D7
S31500006FE41EFE62B6684603F005FE354B9B6DDB0359
S31500006FF418D4344A136823F4FF0323F4FE4343F4FA
S31500007004BC1343F4A063136052F8043C23F47043A6
S3150000701443F4404342F8043C52F8043C43F4E0632E
S3150000702442F8043C9DF80130012B0FD19DF8003045
S3150000703463B94FF000531B68234B1B68234B1B6833
S31500007044234B1B68234B1B68234B1B68234AD2F82C
S31500007054803043F00303C2F8803005F0D0F90222F1
S315000070644FF040231A6704F091FD01F08BFB0023D7
S3150000707400938DF80430012368468DF8033003F03D
S3150000708482F800F0F5F817F045FC05F0BBF900F0BE
S31500007094FFF80FF0AFFD12480EF0F0FF03B05DF8F5
S315000070A404FB1960043B94E70040000000ED00E097
S315000070B400E100E0A00E0020D00D0000A00000209A
S315000070C400C0004034C00040004000200080002082
S315000070D400C0002000000120004001200080004084
S315000070E4E8C2030040F2016017F082BB04F04CBD15
S315000070F404F04BBDFEF760BE08B500210B20FEF779
S3150000710459FEBDE80840FEF758BE08B1FDF764BC59
S31500007114FDF761BC032000F09FBA000008B5FFF735
S31500007124CFFA044B0B289ABF00B203EB8000184633
S3150000713408BD00BF7898030008B5FFF7C7FA044BEB
S31500007144C0F30F2253F82230C0B203EB800008BD0F
S315000071544898030010B5FFF7B3FA0446FFF7B6FAEA
S31500007164C0B228B9012C24D164F07F04E4B216E03D
S31500007174072CF9D801A353F824F000BFA37100002B
S315000071846D710000A1710000A7710000A7710000D5
S31500007194AB710000AF710000B371000009242046F2
S315000071A410BD0224FBE70324F9E70B24F7E70624C2
S315000071B4F5E70446F3E700BF38B50D46044688BB39
S315000071C4284B4A1E186050425041013D08F00EFA01
S315000071D4032D46D8DFE805F002131E2001210846D8
S315000071E4FDF7FBFBFFF72AFE1F4B187010B1A52015
S315000071F4FFF71AFEBDE83840012008F0F7B902216E
S315000072040120FDF7EAFBFFF719FE50B3BDE838404D
S31500007214FFF71CBE0421F3E705210120BDE8384031
S31500007224FDF7DBBB104B1B781BB101210F4803F0A4
S315000072340EFF631E58425841013C08F00DFA032C18
S315000072440FD8DFE804F002080A0C012008F004FA5B
S3150000725401210020E2E70221FBE70421F9E70521E9
S31500007264F7E738BDC43300205E3A00200080014AA7
S3150000727442F22041044AD2F820341B0C1B0453501A
S31500007284024A1360704700BF00C00340B82C0020B8
S3150000729408B504F007FE18B18C210448FFF7B8F8C6
S315000072A4BDE808400249034804F06CBEA8980300F0
S315000072B4AC1D0020FC2C0020134A1449D2F82434B7
S315000072C4D2F820241340124A9BB21360D1F800016D
S315000072D4400102D50868400106D4D1F800018001B6
S315000072E405D50968880102D543F480331360074B3A
S315000072F4D3F80011490506D51B685B0542BF136820
S3150000730443F400331360704700C0034000E100E01B
S31500007314C4330020012810B50AD0831E012B1CD9C2
S3150000732404281CD0052801D102F016FF002400E031
S31500007334044620460B4A012104F0E4FD02F07CFEDB
S3150000734402F089FE04F044FE02F078FE2046BDE811
S315000073541040044A002104F0D5BD0224E9E70324C1
S31500007364E7E700BF24990300FFF7D4BF2DE9F04FE8
S3150000737489B00EF077FE0746002840F0DC806F4E99
S315000073846F4D3168286816F0CFFB0446002827D0D5
S3150000739433683C46D3E900019A691268904733681A
S315000073A404A89B699B689847336802209B69DB683D
S315000073B49847326805985368E7B2B3FBF0F3BB42CB
S315000073C4916904F1010442D8CB68002098473368D8
S315000073D49B695B6898473168286816F0A5FB0446E4
S315000073E40026DFF88891002C53D1564B4FEA8608C5
S315000073F4F35C002B31D1A246534BF35C0193534B00
S3150000740403EB080B019B5FFA8AF7BB42286853D843
S315000074144F4BF35C002B3CD04C4B019F9844FBB282
S315000074247E2B286835D8D8F8003003AA07EB030A60
S31500007434514602AB16F0BAFD48452AD05146286893
S3150000744416F0FAFD013704460028E8D021E0126858
S315000074540B6907FB00209847ABE73C4B03AA53F89C
S315000074642670286802AB394616F0A0FD484507D0B9
S3150000747478B9039B012B0CD03946286816F0DCFD3D
S31500007484344B394653F8083028681A6816F0B8FCA5
S3150000749404460136262EA6D1B4FA84F32E4A5B0995
S315000074A413702E4B9C4240D02DD8002C32D0013B79
S315000074B49C423ED0C5242DE0DBF8003003AA1F44CD
S315000074C4394602AB16F072FD48450AD010B10AF1EE
S315000074D4010A97E7039B8BB9214B029AF35C9A4204
S315000074E4F5D01F4B1B4A9B5D52F808203946286885
S315000074F416F0ECFB0028EAD0044689E739462868EA
S3150000750416F09AFDEDE7174B9C4210D004339C42CB
S31500007514D0D1C1242B681B7C1BB1D3211248FEF7A2
S3150000752477FF204609B0BDE8F08FC324F2E7C424F0
S31500007534F0E7C224EEE7C624F3E700BF241E0020CA
S31500007544201E0020A4740300E4730300F0740300F7
S31500007554CA7403000C740300523A002002E000F0DF
S315000075648875030004E000F02E9903000BE000F098
S31500007574252970B506460C4615461AD8144A1278BB
S3150000758422B3144A1068144A52F82110134A125DA1
S315000075943AB1324616F082FCC0B1BDE87040FDF740
S315000075A4EABD7F2D08BF00253246294416F0DAFBD2
S315000075B4F2E7FF2903D9BDE87040FFF761BB40F24B
S315000075C40111BDE870400648FEF722BF70BD00BF3A
S315000075D4523A0020201E0020F0740300A474030015
S315000075E42E9903002528F8B504460D46164619D8E3
S315000075F41449097829B31449144F0868144951F8F1
S3150000760424103C5D3CB1126816F0FAFBC8B1BDE823
S31500007614F840FDF7B0BD7F2D08BF0025294416F0BC
S3150000762455FBF3E7FF2805D91A463146BDE8F8406D
S31500007634FFF74ABB4FF49A71BDE8F8400548FEF7D8
S31500007644E7BEF8BD523A0020201E0020A4740300B1
S31500007654F07403002E99030008B5084B1B7863B138
S31500007664074B002253F82010064B186816F056FCF8
S3150000767418B1BDE80840FDF77EBD08BD523A0020AA
S31500007684F0740300201E002070B5164685180AB94A
S31500007694304470BD01F00F030A2B34BF3024372465
S315000076A4013A2344090905F8013DD2B2EFE7000087
S315000076B4F0B5F9B100281CDA2D23B0F1004F137090
S315000076C400D04042012115E0801B8642ECB205F150
S315000076D40105F9D904B927B101274D1C3034545496
S315000076E4E9B20133092B09D1303050540131C8B203
S315000076F4F0BD002100231F46DFF808C05CF82360B4
S315000077040025E2E7A49903002DE9F04F4FF0000BA2
S3150000771495B002AC81468A4617461D465E46A0468B
S315000077243B7863B902ABE41AE4B2224619465046E2
S31500007734C847002840F093803444E0B290E0252BFB
S3150000774413D0BBF1000F14D12370013412AB9C4249
S315000077546DD3A4EB0804E4B2224641465046C8471A
S3150000776400287CD12644F6B260E0BBF1000F00D1BC
S3150000777401373B78632B00F092801BD8392B09D84C
S31500007784302B80F09E80002BCCD0252B51D04FF08F
S31500007794000BDBE7582B00F08B80622BF7D14FF000
S315000077A4000B2B6801936B680093009B9B4543D1A8
S315000077B40835ECE7702B1ED017D8642B01D06C2B40
S315000077C4E5D16C2B05F1040B28686CD17B78752BFD
S315000077D414BF0121002101D0642B00D101372246B8
S315000077E4FFF766FF04445D46D1E7752BE9D0782B95
S315000077F45ED0732BCBD1A4EB0804E4B2224602A9D3
S31500007804504605F1040B2D68C84740BB2644F6B222
S31500007814C4B22B5D0130002BFAD1224629465046CC
S31500007824C847E0B95D4683462644F6B24446013766
S3150000783476E723700134AAE7019B204613F80B1060
S315000078440222FFF721FF12AB984204460ED3A0EBA7
S315000078540804E4B2224641465046C84718B10020FF
S3150000786415B0BDE8F08F26444446F6B2009B013BB2
S315000078745B4582BF20232370013412AB9C420BD399
S31500007884A4EB0804E4B2224641465046C847002801
S31500007894E5D126444446F6B20BF1010B85E72B6885
S315000078A404352370C6E7752B0CBF0021012196E72A
S315000078B4204602222978FFF7E7FE05F1040B044669
S315000078C491E77A7802F0DF02582A19D1322B07F1B0
S315000078D4010B09D10422204629882F1DFFF7D4FE67
S315000078E43D4604465F4652E7342B09D12F1D2D68C9
S315000078F40422290C2046FFF7C7FE0422A9B2EDE7AD
S315000079044FF0010B22E70EB403B503AA52F8041B89
S31500007914019207F085FFC0B202B05DF804EB03B034
S31500007924704700000149FFF7EEBF00BF966D0300E4
S315000079340EB433B505AA52F8041B0546019207F0A6
S315000079446FFF04462846FFF7EDFFE0B202B0BDE83C
S31500007954304003B0704708B507F062FFC0B208BDF7
S315000079642DE9F04F9B46584B85B01B780646894651
S315000079741546109F9DF844A0DDF85080002B00F0BA
S315000079849280072A00F291800E9B002B00F08D80D6
S315000079940F9B002B00F08980129BB3F5006F00F358
S315000079A48480012801D1002F7FD0484B03EB0513B7
S315000079B41B7B002B7BD0464C1022002168462FF0FF
S315000079C42EF904EB45141022B9F1000F5CD1494697
S315000079D420462FF024F9A37843F01003A370E3782C
S315000079E443F03003E370BAF1000F03D1DBB243F086
S315000079F40303E37036496A01129B885A013B63F319
S31500007A040E100E9B01EB020C8852CCF808300F9B2B
S31500007A149DF84C10CCF804309CF80330012E61F329
S31500007A248303CDF800B08CF8033042D113230CF154
S31500007A34100ECCF80C309CE80F008EE80F006FF0A7
S31500007A440301DCF81C20B9F1010F61F39F02CCF8A5
S31500007A541C20CCF8147004D10F9BCCF80470CCF81D
S31500007A641830002719492A018B1841F80280159A03
S31500007A7428465A609F605E732246694602F034FFC8
S31500007A84384605B0BDE8F08F002120462FF0C7F830
S31500007A941023A3700323E370BAF1000FAAD1DBB25B
S31500007AA443F03003A5E70B48EBE70B48E9E70B483F
S31500007AB4E7E7B8F1000FD4D19CF8023068F3041359
S31500007AC48CF80230CDE700BFCB39002070240020AB
S31500007AD4B82B0020028000F0018000F0078000F03F
S31500007AE438B5104B05461B78BBB1C0B102F0B7FAE6
S31500007AF400230D4901EB0312147B3CB92B600123CF
S31500007B041460137302F0B1FA204638BD0133082B12
S31500007B14F0D102F0AAFA0548F7E70548F5E7054863
S31500007B24F3E700BFCB39002070240020048000F066
S31500007B34028000F0018000F038B502F090FA0023CC
S31500007B4405460A4AD1180C7B5CB91033802BF9D14F
S31500007B5402F07CFE064B28461C7002F086FA20468C
S31500007B6438BD284602F081FA0248F9E7702400205D
S31500007B74CB390020058000F00D4B10B51B78044668
S31500007B8493B1072812D802F06AFA0A4B03EB0413DE
S31500007B941A7B2AB100241C7302F067FA204610BD32
S31500007BA402F063FA0448FAE70448F8E70448F6E7FB
S31500007BB4CB39002070240020068000F0028000F0FB
S31500007BC4018000F0164B13B51868002301908DF858
S31500007BD4043002F044FA134B1C7824B102F045FA3F
S31500007BE4114802B010BD01221A7002F03EFA0F4B82
S31500007BF41C731C7783F82C4083F83C4083F84C4074
S31500007C0483F85C4083F86C4083F87C4004230DEBD6
S31500007C1403008DF8073002F03DFE2046E1E700BF81
S31500007C24C8990300CB390020038000F0702400209B
S31500007C3410B588B00E9C009207940D9C02460694DB
S31500007C449DF8304005940B9C04949DF828400394B9
S31500007C540024CDE9013420460B462146FFF780FE79
S31500007C6408B010BD10B588B00E9C009207940D9C08
S31500007C74024606949DF8304005940B9C04949DF8A6
S31500007C84284003940024CDE9013420460B46012103
S31500007C94FFF766FE08B010BD08B50A4B1B785BB14A
S31500007CA407280BD8084B03EB00131B7B43B10021B9
S31500007CB402F0E0FD002008BD0448FCE70448FAE7AA
S31500007CC40448F8E7CB39002070240020028000F035
S31500007CD4018000F0078000F008B50A4B1B785BB101
S31500007CE407280BD8084B03EB00131B7B43B1012178
S31500007CF402F0C0FD002008BD0448FCE70448FAE78A
S31500007D040448F8E7CB39002070240020028000F0F4
S31500007D14018000F0078000F008B50A4B1B7853B1C8
S31500007D2407280AD8084B03EB00131B7B3BB102F070
S31500007D342BFE002008BD0548FCE70548FAE7054880
S31500007D44F8E700BFCB39002070240020028000F041
S31500007D54018000F0078000F00D4B1B7893B10728D3
S31500007D6412D889B10B4B03EB00131B7B73B10A4B7F
S31500007D74DA6A012303FA00F010401ABF00200B70E0
S31500007D8408707047054870470548704705487047AE
S31500007D94CB3900207024002000000440028000F04B
S31500007DA4018000F0078000F00B4B10B51B780C46E1
S31500007DB463B107280CD859B1084B03EB00131B7B9E
S31500007DC443B102F0F3FD2060002010BD0448FCE737
S31500007DD40448FAE70448F8E7CB3900207024002069
S31500007DE4028000F0018000F0078000F02DE9F843DE
S31500007DF4174B1F6D5B6D1F4000D5FEE7012600255E
S31500007E04144CDFF85480DFF85490374217D02368B7
S31500007E14C8F800609BB1A16862680131A160284678
S31500007E249847637B012B0AD148B909EB4513197BA3
S31500007E341A7F60F3410160F3410219731A77013521
S31500007E44082D4FEA460604F11004DED1BDE8F88396
S31500007E54000004407024002050200440B82B002069
S31500007E6470B504460125084E04B970BD94FAA4F011
S31500007E74B0FA80F005FA00F324EA030456F8203039
S31500007E84002BF1D09847EFE70C2D00204FF000723D
S31500007E94044BC3F880211A604FF08062C3F8802136
S31500007EA41A60704700E100E038B504460D4602F05A
S31500007EB4D6F8034B43F82450BDE8384002F0D5B851
S31500007EC40C2D0020084BD3F82404D3F820241040AA
S31500007ED442F2204220F42A5020F02A004004400CAA
S31500007EE49850FFF7BDBF00BF00C00340084BD3F84E
S31500007EF42404D3F82024104042F2204220F4AA405D
S31500007F0420F055000004000C9850FFF7A9BF00BFED
S31500007F1400C00340104A30B5136841611546ABB939
S31500007F241060836011E0091B9C6841611A467CB1AC
S31500007F3423465C698C42F6D9002CF4D052B1906089
S31500007F44836013B15A69511A596130BD0022F0E7B2
S31500007F542346F4E72860F3E73433002010B500F035
S31500007F6421FB094B094A196831B11368C41A4B69D4
S31500007F74A34203D31B1B4B61106003E0C01A00230A
S31500007F8410604B6110BD00BF34330020882F0020E1
S31500007F9438B50F4D02202B685C690E4B1B681C44D8
S31500007FA400F034FB204600F005FB00230A492A684A
S31500007FB40B70D088800702D501230B7038BD9268F8
S31500007FC4002AFBD050690344012BF2D9F6E700BF1F
S31500007FD434330020882F0020EE39002070B59DF838
S31500007FE41450164605710025049A8560BDF818508C
S31500007FF40446C5800260C0E903360D4629B96161AD
S315000080040BB11146984796B1354602F028F8064654
S31500008014FFF7A4FF29462046FFF77CFF054B1B68A4
S31500008024A34201D1FFF7B4FF304602F01EF8002048
S3150000803470BD00BF3433002000210C4A13687BB1A5
S3150000804483420AD1836879B18B6083681BB15A690C
S3150000805441690A445A610020704719469B68EEE755
S315000080640028EFD0022070471360EEE73433002077
S3150000807470B501F0F4FF144E05463478FCB9134B81
S315000080841C60134B1C60134B1C8000F051FA01203A
S3150000809400F0BCFA00F008FB0F4B0246186020B94A
S315000080A4284601F0E2FF232070BD23460B4840F228
S315000080B4E7312EF0BFFB0A4B1860012333702846C4
S315000080C401F0D3FF0020EFE7D1390020343300203C
S315000080D4882F0020963600203033002018FCFFFF3E
S315000080E4902F00202DE9F0410546F8B101F0B7FFC5
S315000080F40F4F0646FFF732FF2846D7F80080FFF7F2
S315000081049BFF044628B1304601F0AFFF2046BDE888
S31500008114F081A8453B6803D123B1FFF739FFF2E7A5
S31500008124002BF0D1022000F07DFAECE72224EDE7E3
S3150000813434330020F0B50D4685B016461F46044676
S3150000814480B1FFF7CFFFBDF82C30002202939DF8D3
S3150000815428302946CDE9007320463346FFF73EFF13
S3150000816405B0F0BD2220FBE738B50C46054698B1AC
S3150000817491B100230B7001F072FF0121074B1B68BC
S315000081840BB122781AB101F070FF002038BD9D4270
S315000081940CBF21709B68F3E72220F7E734330020F5
S315000081A4F0B51F46002387B00D4616468DF81730E6
S315000081B40446A0B10DF11701FFF7D6FF9DF817206D
S315000081C47AB9BDF83430294602939DF830302046FA
S315000081D4CDE900733346FFF701FF07B0F0BD222057
S315000081E4FBE70320F9E70000F8B50C460646C8B1DC
S315000081F4C1B101F034FF0546FFF7B0FE7369236091
S31500008204134B1B68B3420FD023B9284601F02DFF48
S3150000821403201CE0596922689B680A442260F1E73E
S3150000822400230FE0222012E0276800F0BBF9094E74
S315000082343368C01A8742F3D900F0B4F93368C01A18
S3150000824423681B1A2846236001F00FFF0020F8BD9F
S3150000825434330020882F0020F8B507460E4601F077
S31500008264FEFE00240546114B1B6823B9284601F07F
S31500008274FCFE1B2015E05A691444DA88BA4213D16D
S3150000828400F090F90A4F3B68C01AA0420AD200F0E7
S3150000829489F93B68C01A201A3060284601F0E5FEC9
S315000082A40020F8BD0020F7E79B68DEE734330020A2
S315000082B4882F0020014B1878704700BFEE39002044
S315000082C438B501F0CCFE054600F06CF904462846A4
S315000082D401F0CBFE204638BD70B501F0C0FE06465F
S315000082E400F060F9094B05461C880120A4B200F091
S315000082F4B1F918B100F056F905460134304601F0DB
S31500008304B4FE0022214642EA050070BD96360020DE
S31500008314014B1868704700BF303300200A4B10B574
S315000083241B680C4683420CD3084B4FF47A721968C7
S315000083340023A0FB01012EF07DFA0130206000200D
S3150000834410BD2120FCE700BF902F00203033002011
S31500008354104B10B51A684FF47A73A0FB0301A2B14F
S31500008364531E134211D1B2FA82F2C2F11F02C2F1B4
S315000083742004A2F1200301FA04F420FA02F22243B3
S3150000838421FA03F342EA030010BD00232EF052FA49
S31500008394FAE700BF3033002000000000F8B51646A7
S315000083A41BA3D3E900238B4208BF82422AD3174B6F
S315000083B41A684FF47A73A0FB034503FB0155C2B157
S315000083C4531E13EA020014D1B2FA82F2C2F11F025A
S315000083D4C2F12007A2F1200124FA02F305FA07F7F5
S315000083E43B4325FA01F10B4325FA02F2C6E90032B2
S315000083F4F8BD0023204629462EF01CFAC6E90001E2
S315000084040020F5E72120F3E7AFF3008030330020A6
S31500008414EFA7C64B37894100C2072DE9F84F04463A
S315000084240BD53F4A138801339BB21380FFF796FDA1
S315000084343C4B1B680BB1FFF7ABFDA3076DD500F0F2
S31500008444B1F8394F00263D688046451B01F007FE0A
S31500008454B24683463246334B1C6814B16369AB4259
S3150000846414D9012E314B51D1D288022A4ED11E7015
S31500008474002C4ED06369C7F800805D1B6561FFF769
S3150000848487FD5846BDE8F84F01F0EFBD23462A465E
S31500008494C7F800805969914209D8187994F804C03C
S315000084A4521A844588BF1C469B68002BF2D1584655
S315000084B401F0DBFDD4F814B0C4F814A001F0CFFD2C
S315000084C481462046FFF7B8FD484601F0CEFD2369F4
S315000084D44BB101F0C4FD814621692046FFF71AFD20
S315000084E4484601F0C2FDE36813B121682046984767
S315000084F400F058F8D844A5EB08058146054401F078
S31500008504AEFD013683462246C846A4E700221A7009
S31500008514AEE7022000F086F8B3E7BDE8F88F00BFA7
S315000085249636002034330020882F0020473A002056
S315000085341FB50024184B18689A88029053F8060F42
S31500008544ADF80C201B79009002A88DF804308DF844
S3150000855408408DF80C4002F0B3FA694601208DF804
S31500008564004002F071FA4FF090431F219A6922F0FD
S315000085741F029A61094A11609A6A12F00802FBD135
S315000085841A62012002F07AFA4FF48062044BC3F8AF
S3150000859480211A6004B010BDCC9903001420004851
S315000085A400E100E04FF090439A6A1207FCD4186A7F
S315000085B4704700004FF09042936A1907FCD4136A7F
S315000085C4116C5269120704D4CA1A022A01D89942B4
S315000085D40ED1C21A012A98BF981CB0F1FF3F28BFDA
S315000085E401304FF0904318649A6942F008029A6188
S315000085F4054A13783BB14FF09041CB6B43F002032D
S31500008604CB63002313707047C421002082074FF008
S31500008614904200F00103916948BF43F008030B43FD
S3150000862493617047830700F001020AD50121084BC4
S3150000863442F0080219704FF09041CB6B23F003030C
S31500008644CB634FF090418B6923EA02038B61704739
S31500008654C42100204FF0904301285B6904D002280E
S3150000866405D1C3F3C000704703F001007047002032
S315000086747047000010B501F0F2FC4FF09043044639
S315000086845B691A07074A03F0010003F00D0348BFAC
S3150000869440F002001360FFF7BFFE2046BDE810401D
S315000086A401F0E3BC142000481C2001F0E1B90000ED
S315000086B4002211462D48F0B503682D4D54592CB1AE
S315000086C41E68AC18002E3DD1234601210832282A03
S315000086D4F4D101B10360002214462649264E0B68E4
S315000086E495592DB11F68B518002F32D12B46012498
S315000086F40832282AF4D104B10B6000680368002B01
S315000087042FD04FF04022936F007923F0FF7323F4A8
S31500008714803343EA00439367184B4FF000420968DD
S315000087241A600B68FBB14FF04022936F097923F46A
S31500008734FF7323F001030B439367104B4FF0804202
S315000087441A60F0BD1E792779B74284BF23460121FA
S31500008754BCE71F7995F804C0BC453CBF2B460124F1
S31500008764C6E7074BD9E7064BE8E700BF2C2E0020E7
S31500008774E03200208C2F002008330020685000408F
S315000087846860004010B5012228240F4B00211A709E
S315000087940E4822462EF043FA224600210C482EF0BB
S315000087A43EFA0C4B0C4A13600C4A13604FF04043DC
S315000087B40B4A1360536020220A4BC3F880211A60C7
S315000087C4FFF776FF002010BDC4380020E0320020F9
S315000087D408330020EC2F00202C2E00208C2F0020A4
S315000087E46460004000E100E04FF04022D2F88800C7
S315000087F4D2F88830C0F38800C3F388039842F5D1D1
S315000088046FF48873184440B2704700004FF040225A
S31500008814936E526E10B5134013F0804211D0114B73
S315000088241B681C682CB1002119605960FFF7DCFF36
S31500008834A0474FF080420C4B1A60BDE81040FFF78A
S3150000884437BF002BF9DA094B1B681C682CB11A6078
S315000088545A60FFF7C9FF0121A047034B4FF00042BE
S31500008864EAE700BF8C2F0020646000402C2E002015
S31500008874FFF7CCBF042203685A619A699207FCD5B4
S3150000888441F2AC52102103795B0103F1804303F5F5
S31500008894703399507047012203685A619A69D20766
S315000088A4FCD541F2AC52042103795B0103F1804308
S315000088B403F570339950704738B141B1013AB2F5B6
S315000088C4006F044838BF00207047034870470148CA
S315000088D4704700BF037000F0027000F038B504461C
S315000088E40D4601F0BCFBA28892B222B92A6001F0BF
S315000088F4BCFB064838BD1422638802FB03430833D5
S315000089042B6001F0B2FB0020F4E700BF0B7000F00F
S3150000891438B504460D4601F0A2FBA3889BB223B9E1
S315000089242B6001F0A2FB0C4838BD14226388E18851
S3150000893402FB034308332B6063885A1C92FBF1F352
S3150000894401FB13239BB26380A388013B9BB2A380E4
S3150000895401F08BFB0020E7E70B7000F0F8B5044646
S3150000896417460D4601F07BFBA388E28806469A4229
S3150000897405D800233B6001F078FB1648F8BD1422A5
S31500008984238805F1100C02FB034308332A4603CA65
S31500008994624518605960154603F10803F6D110685C
S315000089A4142218602388E18802FB034308333B60E2
S315000089B4238830465A1C92FBF1F301FB13239BB226
S315000089C42380A38801339BB2A38001F04EFB0020D1
S315000089D4D4E700BF0A7000F090F83130022B0BD1B7
S315000089E43022437F90F821005A43044B9B5823FAC4
S315000089F400F000F0010070470020704714C00340E7
S31500008A04002313B51C4A52F8234094F821108142DE
S31500008A140ED00133042BF6D102B010BD0028FBD1D1
S31500008A249DF80730002BF7D0A068FFF735F9F3E778
S31500008A3494F83130022BEFD12046FFF7CDFF637E49
S31500008A442076022BE8D194F82E3003F0FF02002B97
S31500008A54E2D102A901F8012DA068FFF77DF9237E72
S31500008A641BB194F82F30002BD8D00023A06884F8CB
S31500008A742F30FFF731F9CFE73833002038B50446F5
S31500008A8401F0EDFA616B05460139616319B9044ACF
S31500008A94012003F037FA2846BDE8384001F0E5BA6C
S31500008AA4F499030038B5044601F0D9FA636B054618
S31500008AB423B90121054A084603F024FA636B2846C4
S31500008AC401336363BDE8384001F0CFBAF49903007B
S31500008AD4012230B590F8324087B080F82C207CB95A
S31500008AE4094D0368CDE9024504904C682433CDE969
S31500008AF400240A684169C068FFF7B4F807B030BDBE
S31500008B04002380F82C30F9E7699400000123F0B5BE
S31500008B1480F82D3090F8323089B004460E4663BB97
S31500008B24056801F09CFA0DF11F01074615483C350E
S31500008B34FFF71AFB40B99DF81F302BB11148FFF718
S31500008B44D1FA2046FFF79AFF3846012701F08DFA3D
S31500008B54204684F83870FFF7A5FF0B4B0494039363
S31500008B640023029373682A46CDE9007321693368AA
S31500008B74A068FFF75DF809B0F0BD002380F82D303A
S31500008B84F9E700BFC03E0020918B0000F0B585B028
S31500008B9403A9906A1446FFF7A1FE0646206802F070
S31500008BA47DF90546FFF7B4FB24214143B1FBF5F1FA
S31500008BB400252346CDE90055164A01311648FFF72C
S31500008BC4EFFA164B9E421FD0039B1D619D6001F078
S31500008BD446FA039A0746D66826B1D2E900232946FF
S31500008BE42046B04703A9A06AFFF792FEA06A8388CD
S31500008BF49BB263B103A9FFF771FE03992046FFF701
S31500008C0485FF384601F031FA012005B0F0BD84F83D
S31500008C142D30F6E7258C0000C03E00200B7000F0D6
S31500008C2473B508680D46846914F0200407D0084615
S31500008C34FFF724FF022385F8383002B070BD02F036
S31500008C442DF90646FFF764FB24225043B0FBF6F0E9
S31500008C54CDE90044411C2B46024A0348FFF7A0FA1B
S31500008C64EBE700BF258C0000C03E00202DE9F34150
S31500008C740D460446002800F0868001F0F0F9012D27
S31500008C84064637D1A36A9B889BB2002B39D0A068CD
S31500008C94FFF742F80023A06A84F82D3083889BB23C
S31500008CA4002B34D1226893699B04FCD5023D012D27
S31500008CB41BD8E068FFF730F80023606A84F82C308C
S31500008CC483889BB2002B41D194F83130032B0CD00E
S31500008CD442F2AC52042123795B0103F1804303F58C
S31500008CE470339950022223685A61304601F0BDF967
S31500008CF4002009E0022D48D1636A9B889BB2002BB1
S31500008D04D4D101F0B2F9264802B0BDE8F08101A938
S31500008D14FFF7E4FD0199A0680831FFF745F8214FF4
S31500008D24019B1F61A06A83889BB2002BBAD001A95C
S31500008D34FFF7EEFD019BD3F80C80B8F1000FF1D0DC
S31500008D449B68002239462046C047EBE76946FFF791
S31500008D54C5FD0099E0680831FFF726F8114F009B1E
S31500008D641F61606A83889BB2002BADD06946FFF70A
S31500008D74CFFD009BDD68002DF3D09B6800223946A9
S31500008D842046A847EDE70848BEE7032D8ED1A36A1F
S31500008D949B889BB2002B7FF47AAF636A73E700BFAC
S31500008DA4087000F0097000F0027000F0036898691A
S31500008DB47047436A9888C0B270472DE9F3419846D4
S31500008DC400230546406A0E4684881746A4B2CDE9B8
S31500008DD400333CB16946FFF781FD01A90446E86802
S31500008DE4FEF7E2FF009969B164B94868019BC01AAD
S31500008DF43860C8F800300B6833602B68986902B095
S31500008E04BDE8F0810021C8F8001039603160F4E74C
S31500008E14836A9888C0B270472DE9F34198460023C7
S31500008E240546806A0E4684881746A4B2CDE9003307
S31500008E343CB16946FFF752FD01A90446A868FEF74E
S31500008E44B3FF009969B164B94868019BC01A3860D8
S31500008E54C8F800300B6833602B68986902B0BDE827
S31500008E64F0810021C8F8001039603160F4E7007E13
S31500008E7470472DE9F04104460F461546FFF71CFDE1
S31500008E84064678BB152001F00FF98046A26A93883E
S31500008E949BB213B194F82E303BB323689B6913F04D
S31500008EA4020802D12046FFF7E5FC012384F830309E
S31500008EB494F8323033B93D44AF4220681BD18369FC
S31500008EC49B06FCD5B8F1000F0CD142F2AC5210212E
S31500008ED423795B0103F1804303F57033995008222B
S31500008EE423685A613046BDE8F081B8F1000FCED050
S31500008EF4FEF77CFFCAE717F8011B02F0A3F8DBE7CD
S31500008F0410B5044680B190F82E302BB9FFF764FDF6
S31500008F1410B9A068FEF7C0FE002094F82E30013385
S31500008F24DBB284F82E3010BD0048FCE7027000F076
S31500008F3410B50446A0B190F82E309BB190F82E30AF
S31500008F44012B05D1FFF748FD10B9A068FEF7C4FE52
S31500008F54002094F82E30013BDBB284F82E3010BD8D
S31500008F640148FCE70148FAE7027000F0057000F0DA
S31500008F7437B590F831500446022D1ED1012190F8E0
S31500008F842220457E837F01FA02F23020154925B955
S31500008F9400FB031342F2100105E0012D07D100FB8B
S31500008FA4031341F210015A50002003B030BD247E51
S31500008FB400FB0313002CF4D1ECE7012DF4D1037E5E
S31500008FC473B911238DF80730FFF79AFF2A460DF17E
S31500008FD407012046FFF74DFF2046FFF7A9FFE3E709
S31500008FE41323EFE700C00340F0B504468BB0A24F4D
S31500008FF403AE0D460FCF0FC697E8070086E80700B5
S315000090041CB99E4C20460BB0F0BD0DB99C4CF9E73B
S315000090143C22002120462DF002FE9A499A4B0A78FA
S315000090242AB9C3E90022C3E9022201220A700022F6
S3150000903453F822108C420AD00132042AF8D10022B5
S3150000904453F82210002940F0D08043F822402B7DAB
S31500009054286884F831300023206084F832302B7B72
S315000090642371012384F83830884B984240F0C2803B
S31500009074212384F82330864B23614FF48023002672
S315000090846361D5E90723626216805680968084F868
S315000090942C60A3621E805E809E806B6803A9059384
S315000090A4EB8984F82D60ADF81C302B8A84F82F6088
S315000090B4ADF81A30AB7C8DF80C608DF81830EB7C6B
S315000090C48DF81E3005238DF8193001F03DFF14216B
S315000090D42A7B704B287A03EB4217C7F8AC15A97A9A
S315000090E42E3240EA014C03EB4213C3F804C06A7AF9
S315000090F4EB7A42EA034CC7F8BCC5E17784F8203022
S315000091046B7DE07622776377AB7D042284F8213089
S31500009114EB7DA3772B7E84F82230012301F098F8A7
S315000091240123022294F82010207F01F091F894F88C
S315000091343130022B75D13346012294F82110607F19
S3150000914401F086F83346042294F82210A07F01F039
S315000091547FF8012394F82120607F1146CDE900337E
S3150000916401F01CF800F07BFF2E7D0746032E69D123
S3150000917441F2AC5202212B7B04205B0103F18043B4
S3150000918403F57033995041F25C0229688850297EB0
S31500009194EA7D42EA014241F2B8515A50A97D6A7DFC
S315000091A442EA014241F2B4515A504FF0FF3242F2C0
S315000091B448032868C2502B7D032B0CBF05210421CC
S315000091C401F07CFE4FF440622B685A61FEF7FAFC0C
S315000091D4002104F10800FEF783FC0146002842D072
S315000091E42D4C384600F041FF0CE70132042A7FF487
S315000091F427AF06E7294B984207D1222384F8233068
S31500009204274B23614FF4A02339E7264B98427FF47A
S31500009214FDAE232384F82330234B23614FF4C0236C
S315000092242DE7032B9ED1334694F82110607F01224B
S3150000923401F00EF83346042294F82210A07F01F0C0
S3150000924407F88FE7022EB0D194F821001749FEF7EC
S315000092542BFEFEF71BFE00236676A37623762046B6
S31500009264FFF786FEA1E704F10C00FEF739FC04467D
S315000092740028B6D0B4E700BFD8990300027000F006
S31500009284037000F0573A0020383300200080054070
S315000092940200040000C003400E7000F000C0054048
S315000092A4020005000000064002000600058A0000D0
S315000092B490F83130032B05D00229417618BF017688
S315000092C4FFF756BE00487047057000F030B50446F7
S315000092D485B0002800F08F80484B1B7843B10023EB
S315000092E4474A52F823108C4270D1002142F82310C9
S315000092F403212046FFF7BAFC00212046FFF7D8FFDA
S315000093040023E17F1A46E07E00F0A2FF002394F8D2
S3150000931420101A46207F00F09BFF94F83130022B70
S3150000932458D1002394F821101A46607F00F090FF6C
S31500009334002394F822101A46A07F00F089FF00212A
S31500009344012394F82120607FCDE90031114600F015
S3150000935425FF94F8323013B90A2223685A6194F827
S315000093643130022B04D1002194F82100FEF79CFD34
S31500009374A068FEF701FCE068FEF7FEFBFEF7DCFBE7
S315000093840023626A138053809380A26A13805380F9
S31500009394938000F064FE0DF10F0105461948FEF7AF
S315000093A4E3FE28B99DF80F3013B11648FEF79AFE6E
S315000093B4284600F05AFE636B002B04DD0123204689
S315000093C46363FFF75BFB002005B030BD0133042B5C
S315000093D487D18DE7032BBCD1002394F821101A46BC
S315000093E4607F00F035FF002394F822101A46A07F10
S315000093F400F02EFFADE70448E6E700BF573A002029
S3150000940438330020C03E0020027000F0F0B587B06B
S3150000941404461646FFF750FA0546E8B90493104B7E
S31500009424CDE901166A4601A9606A03960593FFF71A
S3150000943495FA054680B994F82C306BB92046FFF7A7
S315000094442AFA0099FFF744FB94F83130032B03D032
S3150000945425762046FFF78CFD284607B0F0BD00BFF1
S31500009464017000F073B5506A01A91446FFF736FA85
S315000094742F4B984230D094F83200019B002839D102
S315000094842268916C11F4007129D02A4998601961F7
S3150000949442F248034FF40071D15000F0E0FD019907
S315000094A40646CD6835B14A688B682046D31A0A68E1
S315000094B40969A84701A9606AFFF72AFA606A8588DC
S315000094C4ADB2DDB101A9FFF709FA01992046FFF70C
S315000094D4FFFA304600F0C9FD012002B070BD906C61
S315000094E4C00507D51448996018614FF4807142F29B
S315000094F44803D1E700221A619A60CEE70123204689
S315000095042376FFF735FD94F8313084F82C50032B7D
S31500009514DFD042F2AC52042123795B0103F180438C
S3150000952403F570339950022223685A61D1E700BFCC
S315000095340B7000F00D7000F00C7000F090F8312004
S3150000954410B5012A034610D102290ED0827E8A4222
S3150000955401D1002010BD997611B9FFF7E9FCF8E7AF
S315000095640129F6D1FFF7CCFCF3E70148F2E700BF87
S31500009574057000F0F0B587B004461646FFF79CF96F
S31500009584054638BB0493154B039605932368CDE92A
S3150000959401169B699B0702D42046FFF76BF96A46BE
S315000095A401A9A06AFFF7DAF9054698B994F82D30AF
S315000095B483B900F054FDA36A06469B889BB233B177
S315000095C400992046FFF7A2FA012384F8303030468A
S315000095D400F04BFD284607B0F0BD00BF017000F057
S315000095E470B588B00E22002104A82DF018FB0123C3
S315000095F40D22002168468DF810302DF010FB022351
S31500009604244C6A46002120468DF8063001F07CFB86
S31500009614236B4FF6FF73204EE36100233546ADF806
S31500009624123004A9204601F022FB062000F020FA9D
S31500009634BDF812300133B0FBF3F09BB2B3F5806F83
S315000096443060ADF8123002D2144B9842E9D80F209C
