:1040000000180020DDE70100656B0000696B00000F
:10401000A70A0A010042000004180FAC2069000141
:104020000000000000000000000000000000000090
:1040300000000000A49E030000000000000000003B
:104040000000000000000000FFFFFFFFFFFFFFFF78
:10405000FFFFFFFF006007000000000000000000FD
:10406000FFFFFFFFFFFFFFFF8000000000000000D8
:104070000000000000000000000000000000000040
:104080000000000000000000104500201045002046
:1040900000180020DAEF0300686D0300A00E002076
:0C40A000700E002000E00700000000008F
:1042000000180020DDE70100656B0000696B00000D
:104210009DBE00006D6B0000756B0000DBE70100C8
:10422000DBE70100DBE70100DBE70100DBE7010082
:10423000796B0000DBE70100DBE70100DBE7010051
:10424000EC6B0000EC6B0000EC6B0000EC6B000012
:10425000EC6B00004D89000025980000EC6B00001D
:10426000EC6B0000EC6B00005187000059F6000079
:10427000EC6B000091F60000EC6B0000EC6B0000B2
:10428000EC6B0000EC6B0000EC6B0000DBE7010066
:10429000EC6B0000CD7E0000EC6B0000EC6B0000CE
:1042A000EC6B0000CD7F0000A57F0000EC6B0000F0
:1042B000EC6B0000EC6B0000EC6B00008DC00100AB
:1042C0002DC0010029C001008DB7010089C0010087
:1042D00031C0010051C0010035C001009DA60100A0
:1042E000C9C00100EC6B0000EC6B0000996E00008F
:1042F000EC6B0000ADC80000EC6B0000DBE70100D8
:10430000EC6B0000EC6B000031460000EC6B000031
:10431000EC6B0000EC6B0000EC6B0000EC6B000041
:10432000EC6B0000EC6B0000EC6B0000EC6B000031
:04433000EC6B000032
:10433400F8B500BFF8BC08BC9E467047F8B500BF8E
:10434400F8BC08BC9E46704710B5054C237833B9B9
:10435400044B13B1044800E000BF0123237010BDD7
:10436400082300200000000088E5030008B5034B83
:104374001BB10349034800E000BF08BD0000000072
:104384000C23002088E50300154B002B08BF134BBA
:104394009D46A3F5803A00218B460F461348144AE4
:1043A400121A32F0A8FC0F4B002B00D098470E4B8A
:1043B400002B00D098470020002104000D000D4878
:1043C400002802D00C4800E000BF32F03DFC200081
:1043D40029000BF0D9FB32F023FC00BF00000800D9
:1043E4000018002000000000000000004A22002005
:1043F400104500200000000000000000902808B5CF
:1044040007D1002002F0F8FB0023034A1370034A8B
:104414001370002008BD00BFFD3900209C3D002022
:1044240007B5054B0090054A054901200EF06CFEC6
:1044340003B05DF804FB00BFDD6D0300E66D03000F
:10444400EB6D030000F0FCBF13B50124A52002F0BE
:1044540059FD2046CDE9004423460022214605F0BB
:1044640009FF204602B010BD07B502F015FD012377
:1044740000221946CDE90032184605F0FBFE03B0D0
:104484005DF804FB0246024901200EF03DBE00BF68
:10449400AE6D030030B50024134B85B01C70134B74
:1044A40001201D8808F074FB114B2246CDE902045B
:1044B4004FF4A061CDE9005409200DF0D3FD012192
:1044C40008460DF03DFE0DF007FE0A4B1B78012B4C
:1044D40003D1094B1C7005B030BD002BFBD1012268
:1044E400054B1A70F7E700BFC83D0020C43D00200B
:1044F400A96D0300913D0020D03D0020F0B52E4E63
:1045040091B008AD00240FCE03270FC596E80F0025
:10451400012685E80F00294DCDE903442846CDE95D
:10452400054407948DF80E708DF808608DF80940E5
:104534008DF80A408DF80B4005F0CEFF05210846A2
:1045440005F040FC022322461D4928468DF8173009
:1045540006F03EF823468DF819000090224642F2F8
:10456400107128468DF8237006F04AF8A4230A90A7
:1045740008AA05A928468DF809308DF80E408DF853
:1045840011408DF8086006F05FF802AA03A92846D6
:1045940005F062FF0B4AD2F828333343C2F82833BC
:1045A4004FF48022AB6A3343AB62074BC3F88421D8
:1045B4005A6011B0F0BD00BF686D03000040004AAE
:1045C40040420F0000C0034000E100E007B50123B2
:1045D40002220421002005F0A7FE04220123114633
:1045E400032005F0A1FE012100230846022205F064
:1045F4009BFE01230022CDE900331946184605F03D
:1046040039FE03F0B1FCFFF779FF41F28831054828
:104614001EF02EFB0022044B1A7003B05DF804EB6D
:1046240000F060BDD43D0020D03D002070B5254E83
:1046340086B0254C02AD3146284606F06BF995E864
:10464400030084E803002149226801200EF05CFD88
:10465400206831F0A7FE17A3D3E9002331F01CFF33
:1046640016A3D3E9002332F041F8194BC3E9000142
:10467400D3E9000132F022F90A221649424301200B
:104684000EF042FD012142F22403C822F1502368B6
:1046940008465A4340F6FF73B2FBF3F206AB03F845
:1046A400012D0822009221220DF0C6FA06B070BD39
:1046B400AFF300806666666666660A400000000026
:1046C40000FEAF400040004A84300020886D0300A3
:1046D40000230020986D03000023012203484CF2BC
:1046E40050310370024BDA601EF0C2BAD43D002090
:1046F4000040004AC37B10B5ABB9C37C032B12D86E
:10470400DFE803F002131621017D8289CB1C9A4253
:1047140024D38068445C01310EF037F8014620460A
:1047240009F05AFCE0B9812010BD09F0ADFCF9E7AD
:10473400017D82890B1D9A4210D380680EF022F805
:1047440009F0ECFCEEE7017D82898B1C9A4205D3CB
:1047540080680EF01AF809F0F7FCE3E78020E3E73D
:104764000020E1E7C37B10B56BB9C47C5CB9037D61
:1047740081899A1C914208D38268591C515CD05C8F
:1047840008F0B2F918B9812010BD8020FCE720465A
:10479400FAE710B5437D0446012B0CD10368028A65
:1047A400598858790CF056FE28B123685B88032B8E
:1047B40013D0C32012E0637D002BFAD12368228A30
:1047C400598858790CF03DFE0028F2D023685B88A4
:1047D400032B02D003D8012BEBD8812010BD202B52
:1047E40007D0B3F5A06FE4D12046BDE81040FFF731
:1047F400B9BF2046BDE81040FFF77CBF01207047D9
:104804000120704701207047704700207047002046
:104814007047002070470020704700207047002038
:10482400704770477047002070470120704701208F
:104834007047B52070470020704700207047002063
:10484400704700207047704700207047B5207047BC
:1048540000207047704700207047842070477047DD
:104864000020704770470020704770470020704751
:1048740070470120704700207047002070470020D7
:1048840070470000034B1B681878012808BF0220FA
:10489400704700BFE02C00207047002070470000E4
:1048A40003460120024AC3E9032000221A7070471C
:1048B4000100FEFF70470020704700207047002071
:1048C4007047002070470020704700207047002088
:1048D4007047002070477047B5207047002070472C
:1048E400002070470020704770477047B52070471C
:1048F4007047704700207047704770477047704793
:104904000023FF21084A137082F8783082F865305A
:1049140082F8773082F8793082F87A1082F87B3026
:10492400024A1360704700BF09390020DC3D0020B3
:10493400F8B50D468C680A6806462849202003F01D
:1049440050F86B687BB92649202003F04AF82020F0
:104954000AF0F5FB2349202003F058F8BDE8F8409D
:1049640020200AF0ECBB002EF1D01F4D1F4E204F2B
:10497400013C14F8013F23B91A49202003F046F8FA
:10498400E5E7752B18D0762B18D0772B18D0732B1E
:1049940018D0722B18D0712B18D0622B18D06E2B14
:1049A40018D02A2B18D01349134A212B18BF1146AB
:1049B400202003F016F8DCE72946F9E73146F7E74B
:1049C4003946F5E70D49F3E70D49F1E70D49EFE7FE
:1049D4000D49EDE70D49EBE70D49E9E795A0030023
:1049E400926E0300436E0300506E0300446E030096
:1049F4005B6E03009C6E0300996E0300676E0300F8
:104A0400716E03007C6E0300876E0300916E0300D9
:104A1400966E0300F0B50026204A92F87B301844C5
:104A240052FA80F090F865C090F8665030461C4BFE
:104A3400A5EB0C051F78EDB2F4B2A54225D90CEB19
:104A4400060313445B7811B10CB92D2B17D0782BC6
:104A54001FD0582B05D108B137240AE0013C012CA2
:104A640014D9602B17D8402BF6D83A2B34BF3024F6
:104A740000241B1BDBB29F4203D900FB0730013625
:104A8400DAE70523002082F87930F0BD10270020F2
:104A9400F5E70028E2D05724EBE700BF09390020EE
:104AA40000220020FFF72CBF034B93F8770093F804
:104AB4007B30C01AC0B27047093900200021FFF7CB
:104AC400A9BF000010B50A4B93F87B20024453FAA7
:104AD40082F292F8652013445C78A4F12D035942C4
:104AE4005941FFF797FF2D2C08BF404210BD00BF6E
:104AF4000939002030B50C4A92F87B300344C04396
:104B0400DBB2C00F39B1D51895F8664095F86550F9
:104B1400641B241A0C7042FA83F393F8653018442A
:104B2400024B184430BD00BF093900200A39002067
:104B34002DE9F34115460F460DF107011C46FFF719
:104B4400D9FF9DF807308046AB4288BF8DF80750E7
:104B54009DF807600CB1AC1BE4B222460021384634
:104B640032F0C9F832464146381932F0ABF83046D3
:104B740002B0BDE8F08138B50C4601230822FFF7E6
:104B8400D7FF04F10803621E043413F8011D12F860
:104B9400015FA3421D701170F7D138BD38B50546C9
:104BA40001460120FFF7C4FED5E901436CB91C4658
:104BB400084D236863B12946202002F012FF2146E4
:104BC4000020FFF7B5FE0C34F3E71B786E2BEFD013
:104BD40038BD00BFADBC030008B50449202002F075
:104BE40000FFBDE8084020200AF0A9BA046E0300C3
:104BF40038B5FFF7F1FF0024054D61190C34631932
:104C040053F80C3C03B938BD0020FFF791FEF4E7DC
:104C1400E47C03002DE9F84F1F4B204D53F820206E
:104C24001F49202002F0DDFE2B681BB9BDE8F84FB8
:104C3400FFF7DEBF1B4FFFF7CFFF0026B946DFF8B3
:104C44006CA097F87B30F4B2013B9C4204DB2868EB
:104C5400BDE8F84FFFF7A2BF47FA86F393F86580E3
:104C640000234C44C84494F8662094F8651003F17A
:104C7400010B521ADBB2D2B2934205D30A49202067
:104C840002F0AFFE0136DCE743445A785146202057
:104C940002F0A7FE5B46E6E7A01D0020DC3D0020F5
:104CA400FF6D030009390020AEBC0300BCBF030044
:104CB4002DE9F74F884C94F87730002B00F0A18051
:104CC400864B671C1B7813F0010F1FD00025844E00
:104CD40014E0631993F8662093F865302020D21A03
:104CE40044FA85F393F86510D2B239440AF022FAF3
:104CF4003146202002F075FE0135EDB294F877308C
:104D0400AB42E6D87749202002F06BFE002694F8E7
:104D14007730DFF8DCE10193734B4FF00008714604
:104D240045461EF8012B91F801C007EB020AACEBD3
:104D3400020C5FFA8CFC1868002852D00138D14666
:104D440019E02AB9002D4AD04FF001080C33F2E7DC
:104D540019F8011BA1F1410BBBF1190F98BF2031C8
:104D6400A2F1410B98BFC9B2BBF1190F9CBF20320D
:104D7400D2B28A42EAD1A9EB0A01614510F8012FA7
:104D8400DFD1002ADED11D46584B01361D6094F850
:104D94007B30F6B2013384F87B30D5E90123002A55
:104DA40035D01B786E2B31D03F2B23D04FF0000928
:104DB4004FF0070BC846042394F87710AA68B14251
:104DC40012F808702BD8AFB1904498F801302A2B10
:104DD40010D0212F1CBF032384F879300AE01D462C
:104DE400B4E7B8F1000F01D1002DCDD10223002585
:104DF40084F8793094F87900002869D168680DF056
:104E0400A7F903B0BDE8F04FFFF77ABD1346019A46
:104E1400B24282D803221D4684F87920EAE7732F30
:104E240009D8712F0BD2212F1FD0622F3CD0002F15
:104E34004BD1032246E0A7F17502022A45D8752F0B
:104E440029D0762F2AD0732F2BD0722F47F6FF7AD2
:104E540018BF4FF0FF3A012148460193FFF7DAFDEE
:104E64005045019B01D984F87930AA6842445278AC
:104E74002A2A94F879201CBF08F101085FFA88F8FF
:104E8400002AB7D1212F1FBF013609F10109F6B25B
:104E94005FFA89F990E74FF0FF0ADCE74FF6FF7AF3
:104EA400D9E74FF07F0AD6E794F87B204A4454FAB6
:104EB40082F292F8652022445278222AD5D07B2AA5
:104EC400D3D0052284F87920CFE784F879B0CCE7F1
:104ED400FFF7A0FE95E700BF09390020B339002091
:104EE400AEBC0300416E0300E47C0300DC3D002003
:104EF4006E3900202DE9F34106460D464FF00008B7
:104F04005C4C5D4F66B90DF1070128460AF0ECF8D8
:104F140078B1262800F0A980012384F879304BE089
:104F2400002D00F0A28016F8013B013D8DF80730FA
:104F3400EDB23A789DF807300D2A3B7001D10A2B67
:104F4400E0D00D2B0CD0A3F10A025142514122783A
:104F54008846042AD6D8DFE802F0051D263C310035
:104F64000121F4E721B1FFF7A3FE4FF00108C9E7DF
:104F7400202B63D0222B07D10223237094F87820AE
:104F8400642A5DD10623C8E77B2B01D10323F4E710
:104F94000123F2E709B9202BF0D194F87730112BD3
:104FA4003FD10323B9E7222BF7D00029E6D005230C
:104FB4004FF0010884F8793004232370B8F1000F0E
:104FC400A0D094F8790008B1FFF724FEFFF798FC0D
:104FD40098E77D2B94F87A0003D1FF28DDD00523D0
:104FE4009BE7602B13D8402B13D8392B8CBF00229E
:104FF40030229A1AD2B20F2A10D8FF280BD0FF23DE
:1050040002EB00128DF8072084F87A30B6E75722B5
:10501400EFE73722EDE784F87A2073E7202BDED11F
:1050240070E70133DBB294F8782084F877302344B6
:1050340083F8652000232370002994D1884661E712
:105044002378012B09D19DF80730A3F141011929D7
:105054009CBF2033DBB28DF807309DF80710A318EE
:105064000132597084F878204CE7404602B0BDE81C
:10507400F08100BF09390020073A002049BA89B2FB
:105084004840C0F303114140080380B24840C3B212
:1050940080EA431070471CF0C3BA704770477047EA
:1050A4007047704770477047704770477047704744
:1050B4007047704700207047704700207047704762
:1050C40070470020704700207047704701207047E8
:1050D40001207047704770477047704770477047AA
:1050E400704700000022024B1A705A70704700BFCC
:1050F4005D44002000231A4610B54478D9B28C428E
:1051040007D2D4B22246054901200DF0FDFF204606
:1051140010BD415C01330A44F0E700BF2A6F03006D
:105124000222024910460AF005B800BFD921002026
:1051340010B5044601F0E0FE0021F5230846637033
:105144002378013BCAB29A4201F101010BDB2344EB
:105154005870FFF7E5FF2146BDE8104011F8012B18
:10516400022009F0E7BF224452781044EAE7000025
:105174000022054B10211A7042F2A003034A04488E
:10518400D15014211DF074BDBC3D002000C003406B
:10519400A43D002000211022034B04481970044B45
:1051A4001A601DF065BD00BFA43D0020AC3D002089
:1051B400A0D00340002210B5084C094B20461A70B9
:1051C400FFF7B6FF074901200DF09EFFA378227870
:1051D40005490120BDE810400DF096BFDC430020D6
:1051E400AC3D0020BC6F0300F66F03007FB5437A2B
:1051F4000646212B40F08E80002304AC24F8043DA5
:10520400837A574D13F0200F4FF008034FF002023A
:1052140000934FF4A06123464FF001007CD00CF0C2
:105224005CFD9DF80C209DF80D3042F0040202EB69
:105234000321298001204B498DF80C200DF064FFD7
:105244001923022200934FF4A061234601200CF09D
:10525400F3FCB37A022213F0100F4FF008034FF45B
:10526400A06100934FF00100234663D00CF035FD9C
:105274009DF80C209DF80D3042F0010202EB032151
:105284002980012037498DF80C200DF03DFF2A8834
:10529400354901200DF038FF1923022200934FF401
:1052A400A061234601200CF0C7FCB37A022213F05C
:1052B400400F4FF008034FF4A06100934FF001003A
:1052C400234645D00CF009FD9DF80C3043F008034B
:1052D4009DF80D208DF80C3003EB02232B8019234D
:1052E400022200934FF4A061234601200CF0A4FC99
:1052F40000211E481DF0BCFCB37A5B070AD5F27A84
:1053040004AB03F8052D012108220846009221224E
:105314000CF092FC04B070BD0CF0DFFC9DF80C3076
:105324009DF80D2003F0FB038DF80C3003EB0223F2
:105334002B8085E70CF0D1FC9DF80C309DF80D20F6
:1053440003F0FE038DF80C3003EB02232B80A3E75C
:105354000CF0C3FC9DF80C3003F0F703B8E700BF72
:10536400C43D0020866F03009D6F0300C83D0020EC
:1053740008B5437A212B10D1837A022B0DD10BF07F
:1053840049FB022801D121F0A9FC04481DF064FC6A
:10539400BDE8084002481DF05FBC08BD943D0020F4
:1053A4009C3D00202DE9F04107460C461646116845
:1053B40000F101084D78404602352A4631F077FC69
:1053C400EBB23B70627800211344637019481DF0FE
:1053D4004FFC33689B78012B19D0022B1BD0164944
:1053E40001200DF091FE6278144901200DF08CFE2D
:1053F400627823789A4212D180220021E01C31F095
:105404007AFC0023012023706370BDE8F0813846E4
:10541400FFF7ECFEE3E73846FFF7AAFFDFE7336860
:1054240080221D4435600021404631F064FC002098
:10543400EBE700BFBC3D0020336F03006D6F03003A
:10544400F7B5022009F04EFEC5B28DB1324C0023EF
:1054540021782A4603312144022009F04AFE2378A8
:105464002B44DBB2082B237004D82378022B15D8E5
:1054740003B0F0BD2A46294901200DF045FE002263
:10548400274E2378551CD2B29342EED9A318DB7869
:10549400314601200DF038FE2A46F2E76378214DAB
:1054A40003332344204E214F0193627823789A4298
:1054B400DED201990878FA2827D1497802311144BB
:1054C4009942D5DC314601200DF01EFE0198FFF70C
:1054D40011FE019B5A781A445278904209D0013344
:1054E4000193637812490133637001200DF00CFEBF
:1054F400DBE7394601200DF007FE01AA06490D48F5
:10550400FFF750FF0028D0D0B2E7013101320191FA
:1055140062702946E9E700BF5D440020277003005C
:10552400317003009470030046700300867003001A
:1055340078700300DC43002038B500240B4A0C4D7E
:1055440013782C70022B0AD80133137008F0DEF99B
:105554002846BDE838404FF4A0411DF089BB2046E1
:10556400147001F049FB034B1C7038BDFD39002059
:10557400943D00209C3D0020002010B5054C207077
:1055840001F04AFB2046BDE810404FF4FA711DF0CB
:105594006FBB00BF9C3D00202DE9F0470024204D47
:1055A400DFF89C90DFF89CA05FFA84F840461DF079
:1055B40077F8FF2806460CD122461A49287802F0CB
:1055C40025FA2878013409F0BAFD152CECD1BDE890
:1055D400F087154B47B213EA270338BF534659F8EF
:1055E40024201249287802F011FA002FE9DA14B1C4
:1055F400B8F1030F08D10E4B16F0010F0D492878AE
:1056040018BF194602F002FA0A2CDAD10A4B16F036
:10561400010F0A49287818BF194602F0F7F9D0E7B4
:105624004122002035710300436E03005D710300C5
:10563400F87003000E710300207103002A71030047
:10564400A4700300B3BA030082B2074B4AB1000C42
:105654001A8008BF4FF6CE22044B14BF18801A805C
:1056640070474BF6EF62F2E7C4210020C621002008
:10567400094B1888020448BF80F0620042001A8077
:10568400064A1388190444BF83F4805383F00B0340
:105694005900118058407047C4210020C6210020C1
:1056A4000022034B1870034B1970034B1A70704798
:1056B400FB380020FA380020023A00202DE9F04F90
:1056C400214E85B0337807468846002B39D04FF6F3
:1056D400FB73984235D81D4B4FF0000B9A461C4D76
:1056E4002C7832785FFA8BF94A45187811D94844F6
:1056F40002A9C0B2019327F08BFA082241460DEBB0
:10570400020031F0C5FA0BF1010B019B0028E8D12E
:105714004C462B78A34207D1631C3278DBB29A4201
:105724002B7004BF00232B709AF8003041461C44B0
:10573400E4B2204627F0AAFB18B93946204627F0E0
:1057440035FA05B0BDE8F08FFA380020FB380020A8
:10575400023A0020024B187800F07F00704700BF27
:10576400763A0020034B18780130C0B2187000F06C
:105774007F007047763A00201FB5030A8DF80E307B
:105784000323009303AB8DF80D0000F0C7F905B0B7
:105794005DF804FB1FB58DF80F100421030A8DF882
:1057A4000E30009103AB8DF80D0000F0B7F905B091
:1057B4005DF804FBF0B589B01768BDF838509DF862
:1057C4003C60CDF8097057688DF81250012E4FEAED
:1057D4001525DDF840C0BDF84440CDF80D708DF8B6
:1057E40011308DF813508DF8146016D0032E1BD190
:1057F400DCF80030CDF81530DCF80430CDF8193081
:105804009DF848308DF81D3016230093BDF84C20C8
:1058140002AB00F083F909B0F0BD8DF81540240AFD
:105824008DF816400F23F0E70120F4E71FB50C466E
:10583400194602238DF80D2000930A4603AB014656
:10584400204600F06BF904B010BD10B51C460B687F
:1058540086B0CDF80D304B688DF81520CDF8113099
:105864000A2322460093342103AB00F057F906B013
:1058740010BD000030B5002485B0ADF80A20021D2B
:1058840092B2012A1D46ADF80840ADF80610ADF8F5
:10589400044003D94FF6FF72904207D1064A2B46C3
:1058A400127801A925F040FA05B030BD014601AADD
:1058B400204625F0FFFAF7E7482200202DE9F04FB3
:1058C400834689B00C461F4690463AB310461DF0F5
:1058D400DFFDC0F3470A1FB338461DF0D9FDC0F3FE
:1058E4004709FFF73FFF4FEA1B238DF818008DF897
:1058F4001B400022240A062106A88DF819B08DF851
:105904001A308DF81C408DF81DA01DF0D5FEADF8A1
:10591400160038B9182009B0BDE8F08F9246DAE7CE
:10592400B946DEE74FEA4A01CBB2DC1DE4B204EB30
:105934004901C9B20DF1160001931EF0B0F8002818
:10594400E8D10646F2B29245BDF8163015D8019951
:105954004A46063101F0FE0118461EF011F90026F0
:10596400F5B2A945BDF816802AD84346BDF84820AB
:1059740006215846FFF77EFFCDE75500EDB22946D4
:105984004046039302921EF0E7F8029A039BD11C4F
:105994004900024601F0FE0118461EF0F1F8BDF878
:1059A4001630691CC9B2404602931EF0D5F8029B1A
:1059B400E91D0246C9B218461EF0E2F80136C1E7F5
:1059C4006D00EDB2294638461EF0C6F8214602465F
:1059D40040461EF0D5F8691CC9B23846BDF8168099
:1059E4001EF0BAF8611C0246C9B2404602341EF0E9
:1059F400C7F80136E4B2B3E7F0B589B00E4602A9A0
:105A040005460BF0D3F8002800F08180FFF7AAFECA
:105A14008DF810001DF022F88DF811001DF01EF80D
:105A24003D4A000A13688DF81200CDF8133053680C
:105A34000F21CDF81730BDF8083000228DF81C3046
:105A44001B0A8DF81D309DF80D3004A88DF81B50ED
:105A54008DF81E301DF030FEADF80600002858D039
:105A640000279DF80D30FAB2934207F1010718D8C8
:105A740001230DF10E011A460DF106001DF058FE2A
:105A840000279DF80E30FAB2934207F1010723D89C
:105A9400BDF80630324620210020FFF7EBFE09B0A6
:105AA400F0BD002128460BF0ADF801238DF8050068
:105AB4001A460DF1050104460DF106001DF038FEED
:105AC4000123240A1A460DF105010DF106008DF893
:105AD40005401DF02DFEC4E7012128460BF092F885
:105AE40001238DF805001A460DF1050104460DF158
:105AF40006001DF01DFE0123240A1A460DF10501BE
:105B04000DF106008DF805401DF012FEB9E7A32043
:105B1400C5E71820C3E700BF044500202DE9F04184
:105B24001C460E4617469DF818800546FFF71AFED8
:105B340000222070414620461DF0BEFD034630B1D0
:105B44003A4631462846BDE8F041FFF793BE182097
:105B5400BDE8F08108B5FEF739FD0EF0BBFBBDE8EA
:105B6400084005F08BBD08B5FEF76CFC0EF0DEFBBB
:105B740005F044FFBDE8084007F06CB908B5FEF72E
:105B840069FEBDE8084007F0E3BBFEF798BEFEF7E8
:105B94009CBE0020704738B504460D46FEF7ACFEA7
:105BA40029462046BDE838400AF02CB8FEF78FBEDF
:105BB400FEF798BE4022032101200FF0C7B801224E
:105BC400032110460FF0C2B80022032101200FF078
:105BD400BDB80222032101200FF0B8B800224FF40F
:105BE400A06109200FF0B2B801224FF4A06109208E
:105BF4000FF0ACB80122002109200FF0A7B8002350
:105C040007B5CDE90033012369464FF0FF308DF825
:105C1400023010F00BFE003018BF012003B05DF815
:105C240004FB0120704701207047012070470000E9
:105C34002DE9F74F07460D46144699464FF0010BE0
:105C4400DFF8708003F10C0A15B903B0BDE8F08FDA
:105C5400102D2E4628BF10264946154AF3B251F896
:105C6400040B514542F8040BF9D101939AF8001042
:105C740010481170002288F80F4088F80E2088F828
:105C840000B027F09FF93A4601340B48019BE4B277
:105C940012F8011B10F801CF81EA0C0102F8011C73
:105CA400D11BC9B29942F3D3AD1BADB21746CBE7B2
:105CB400B7390020B6390020B53900202DE9F04F5E
:105CC40085B002930F9B8046019303461646BDF8A8
:105CD4003890344A0D4600F10C0153F8040B8B4202
:105CE40042F8040BF9D11B784FF0020A13704923D0
:105CF4002D4C237020464FEA1923A37384F80F9088
:105D0400A34627F05FF95246237883EA16232370CB
:105D140063787340637000271EE0C2F11001F31B27
:105D240089B29BB28B4228BF0B462946501B039075
:105D34000398A1EB050C1FFA8CFC08189C45C0B213
:105D44001AD31A44D2B21F44102A1D44BFB203D13D
:105D5400204627F037F90022B742DED312B1584665
:105D640027F030F9BAF1010F4FF00002029D4E46C0
:105D74000BD04FF0010ACEE711F801CB1BF800E07D
:105D84008CEA0E0C0BF800C0D2E7074B01991B6894
:105D940001980B604346042105B0BDE8F04FFFF7BE
:105DA40047BF00BFB7390020B6390020F7B5099FB7
:105DB400BDF820400646CDE900471D46FFF77EFFAB
:105DC4002CB13346012221462846FFF731FF00203B
:105DD40003B0F0BD2DE9F7431E46054688469146BB
:105DE400BDF828700D4C0346394630460122FFF7B2
:105DF4001FFF33464A4641462846CDE90074FFF763
:105E04005DFF042221460B9830F042FF002814BFA6
:105E14007E20002003B0BDE8F08300BF04390020D9
:105E240073B51C46044D8B181E59CDE900452E60F0
:105E3400FFF7D0FF02B070BD513A00200020704738
:105E4400002070470020704770477047F7B5002462
:105E5400094E0A4F0A4D56F8243003B93B6835F809
:105E64001420084900920120224601340DF04CF917
:105E7400292CF0D103B0F0BDE020002094210020B3
:105E840010420020A187030008B5FFF7DFFFBDE83B
:105E9400084000F0F1B8000007B50020FEF70EFE40
:105EA400C2B2282A0DD8084B53F822300BB9074B3D
:105EB4001B680749012031F81210009105490DF0C3
:105EC40023F903B05DF804FBE020002094210020B6
:105ED40010420020A1870300FFF7B8BF70470000FD
:105EE40038B50020FEF7EAFD04460120FEF7E6FD82
:105EF4000546054901200DF007F9A9B2E0B2BDE855
:105F0400384000F0D1B800BFAC870300F7B50024D7
:105F1400094E0A4F0A4D56F8243003B93B6835F848
:105F24001420084900920120224601340DF0ECF8B7
:105F3400292CF0D103B0F0BDE020002094210020F2
:105F4400BE410020A187030073B502AB03E906003C
:105F54000446019D1CF0CCF9064620461CF0D6F9F7
:105F64009DF800008EB1202C0FD82B78012B37D848
:105F74004FF6FF75394903EB4313234431F81320DB
:105F8400AA4202D0013221F813204FF6FF72344B9B
:105F9400344933F8146031F8145096421CBF721C13
:105FA40023F8142004F0FD02092A31D19A8A898A3F
:105FB40002448A42B4BF9A82998233F81430AB42C5
:105FC40004D3AE4202D22046FEF74CFC0025264BF9
:105FD400EA5CA24228D00135112DF9D102B070BD7E
:105FE400022BD2D14FF6FF714FF6FF751B4B33F8DE
:105FF40014208A421CBF013223F8142004F1210228
:1060040033F81210A9421CBF013123F81210BCE767
:106014001D2CD2D15A8F1118A942BDBF02F1FF32F3
:1060240012185A875D87C8E719F0BDF80F4B04466C
:106034001B78834203D8DD210D4800F031FA4FF676
:10604400FF710C4A04EB04142C4432F814308B42D4
:10605400C4D0013322F81430C0E700BF62420020EC
:1060640010420020BE410020188B03001E22002095
:10607400948A03009C41002052220021014830F000
:106084003ABE00BF104200205222FF21014830F0E6
:1060940032BE00BFBE41002008B5FFF7EDFFBDE8EA
:1060A4000840FFF7F1BF0000014B23F810107047C0
:1060B400BE410020032310B50F4C1022C4E9043361
:1060C4000E4B0F49E3610023A16121660D49E01DD8
:1060D400C4E919120C49A3626362E3622367E366AD
:1060E4006367226230F019FE0849204630F015FE3D
:1060F4002023A37110BD00BF003C0020E93800201C
:10610400298B0300D9380020328B0300368B03001F
:106114002DE9F84F1F4B16461A7881468A46984651
:106124000AB9FFF7C7FF182707FB09873D6FD7F8A0
:106134006CB05D452BD9BC6E796E641BB44228BF2C
:10614400344629445046224630F0B1FDBB6E254406
:10615400AB4208BF0025A244361BABEB050B5E45E2
:1061640028BF5E4656B1182303FB0983596E324695
:106174002944504630F09BFD3444354424B118235F
:1061840003FB0988C8F870502046BDE8F88F002446
:10619400E3E700BF003C0020F8B504460E4617466E
:1061A40003F0C9FF3A46054631462046FFF7B0FFE3
:1061B4000446284603F0C5FF2046F8BD2DE9F84300
:1061C400124D1E462B788146884617460BB9FFF7B9
:1061D40071FF03F0B0FF00244FF0180C69690CFB49
:1061E40004535A6E2AB10134A142F8DC4FF0FF3453
:1061F40007E0A142FADDC3E918989F661A67DA66D8
:106204005E6703F09EFF2046BDE8F883003C002053
:10621400FFF750BF70B54FF060441A4B00261A6860
:10622400194D42F001021A60DA680C2042F08072C3
:10623400DA60164BC4F8B03F0223C4F8006EC4F809
:10624400806EC5F8F03003F07FFC114B00F5D520CB
:1062540000F2FC40B0FBF3F00E4A0F4B013828610A
:10626400C4F8406E1A600D4BC4F8803E4FF480733E
:10627400C5F80433D4F8003E43F48073C4F8003EF8
:1062840070BD00BFF0ED00E0000004E055CEACC5E9
:10629400F8590D00FF030040001000E00D0001005C
:1062A40010B501240F4B00201C6003F0E1FF2346CE
:1062B40004220321002004F037F820460FF042FFA7
:1062C400FFF7A8FF0FF03FFF074B1C70FFF7A0FF7D
:1062D4002346402205490648FFF770FF054B186026
:1062E400C00F10BD44D403408A390020113A002065
:1062F4003D8B03000820002038B5194C03F01BFF28
:106304002378022B05BF032300250125237003F006
:1063140018FF25BB4FF06043D3F8802ED10711D569
:1063240010490A6822F440620A60D3F8802E22F0F1
:106334000102C3F8802ED3F8802E1202FBD464200D
:1063440018F095FA0023084AC2F8F030C2F8043372
:10635400A2F54432A2F5047213600123237038BD00
:106364008A390020001000E0000004E0024B1868A5
:10637400003018BF01207047F0ED00E0D123054A3A
:10638400037013784170090A8170591CC37011702D
:1063940004207047563A00202DE9F74F0E788346C3
:1063A400042E0F4661D918F00FFBDFF8C480824633
:1063B4004FF6FF710024C146751DEDB2D8F80030C8
:1063C4005BB1A54209D9019118F0FEFAA0EB0A00CD
:1063D40080B2B0F5FA7F019907D9281B18BF0120B4
:1063E40004233B7003B0BDE8F08FB4B3012C37D065
:1063F400EA1E631C9442DBB21CD1CCB24FF0604263
:10640400D2F8800EC00713D51046D9F80CC04CF052
:10641400807CC9F80CC0D0F800CE4CF4807CC0F865
:1064240000CED0F820C0BCF1000FEED082F820409E
:106434001C46C3E7AA1E944202D1C1F30724DDE738
:106444006A1E94420FD05C4414F8024C0193204617
:10645400FEF714FE019B0146D0E75B240123CDE740
:1064640034460223CAE75D24C8E70020B8E700BF2A
:10647400F0ED00E000B5084B91B040226946186881
:10648400FFF78AFE20B1C2B2694612200FF00AFE5D
:1064940011B05DF804FB00BF0820002042DE704705
:1064A40038B504460D4600F027FD03F03CFE2946AE
:1064B40020460FF0C3FD2B4622460549012008F073
:1064C40043FE29462046BDE83840FFF7E7BF00BF3A
:1064D4004D8B03006D4B2DE9F0415A686C4CA2655D
:1064E4005A6AE2656B4AD2F800122166D2F8042295
:1064F40062669A6AA266DA6AE2661A6B22675A6B65
:106504006267A26BDB6B12F0040FA367D4E90F532D
:1065140018BF1D4618F0FCF9002285420346606549
:1065240022655DD35C4A95425AD8AA696264E969D6
:10653400A164B4F85810C1F30801062954D157498D
:106544008A4251D356498A424ED211884DF642624C
:10655400914249D140F201706268C4F89420A26863
:10656400C4F898204F4A5049934238BF13460A460C
:106574008B423CD3D31AE3640023C4E91F33C4E938
:106584002133C4E92333484E444FDFF814C1AE42EB
:1065940033D8D4E91FC7D4E92165D4E923124FF0D5
:1065A400000E013BDBB2FF2B42D1BEF1000F05D040
:1065B400C4E91FC7C4E92165C4E92312B4F85830FB
:1065C400C3F30803052B57D03CD8032B47D0042B27
:1065D40058D040F60722013B4B2B98BF104640E0B1
:1065E40000221D46C4E911224FF42060BAE71E6858
:1065F400B6F1CD3FBED10433BAE756F8042DBA4202
:10660400C5D36245C3D2D107C1D5002104EB010E25
:10661400DEF87CE09645BAD004311829F6D10BB9DE
:10662400052301E0013BDBB204EB8301CA67AEE75B
:10663400E0464FF0010EBC4637462E460D46114645
:106644004246AEE70C2B1AD03B2B0CD0062BC0D104
:1066540040F60423B0F5206F08BF184601E040F669
:106664000120BDE8F081114B9B6913F0020F40F249
:10667400025318BF1846F4E740F60320F1E740F64A
:106684000520EEE740F60220EBE700BF00ED00E056
:106694000000002000E100E0E01700204C4300006F
:1066A400686D03009C000020001800200080014A4F
:1066B40010B504F027FA044604F01CFA0022012164
:1066C40001FA02F3234014D01B4B33F812301B4A57
:1066D400062B13D040F207218B420DD118491948DB
:1066E4000C68844208D14CF23C334B800B881380F5
:1066F40012E00132102AE3D1104AF8E74FF20F01F9
:106704000F4B5888884214D11988B1F5406F10D2C4
:1067140011804CF23C325A80084B1A8840F20173C3
:106724009A4201BF084B094AD2E90001C3E90001BA
:1067340010BD4FF4C061EBE7608B0300B23600205C
:106744000000002007020FF08C300020940000208D
:10675400014B1888000A7047B2360020014B188894
:10676400704700BFB23600202DE9F04F4D4C05466E
:10677400A36BD4F850B05A0747BF0027B846D4F8E3
:106784004CB0D4F85480D4F840A05DBF464FD4F840
:106794003CA0DFF83C91DFF83C9113F0080F434B29
:1067A400434A18BF1A46B7EB08061FBF6421730893
:1067B40001FB0B33B3FBF6F387B01CBF9BB205930D
:1067C4003C494B46CDE9017ACDF8008008BF0596D7
:1067D40001F01CF9B3B2CDE900931FFA8BF2059BCB
:1067E4003549284601F012F9A36B5B070AD49C3E95
:1067F4005E4507D1626D314B9A4203D23049284637
:1068040001F004F9BA4501D8C24504D24A462D49DB
:10681400284601F0FBF8284608F091FC236E0BB9DA
:10682400636EBBB32849284601F0DBF80026012734
:10683400DFF8A480DFF8A490226E07FA06F313426F
:1068440007D058F8262013781BB14946284601F092
:10685400C8F80136202EEFD100260127DFF8788012
:10686400DFF87890626E07FA06F3134209D008EB5A
:106874008603D3F8802013781BB14946284601F0DB
:10688400B0F801361D2EEDD1284607B0BDE8F04F13
:1068940001F0B6B828460D4907B0BDE8F04F01F045
:1068A400B5B800BF0000002000180020678E030068
:1068B4006E8E0300768E0300A48E03009C000020DD
:1068C400DD8E0300098F0300278F0300568F03001A
:1068D400628E030001A903006C8F030094A00300DF
:1068E4002DE9F8430446FFF739FF40F601239842A7
:1068F40039D010D840F2025398421DD040F20173AF
:10690400984224D040F20153984213D1654920465D
:1069140001F07CF822E040F6032398426CD03DD38A
:1069240040F60423984200F09C8040F605239842E8
:1069340000F0B580BDE8F8835B49204601F066F8B5
:106944005A4B5B495A6C204601F060F806E0574AFE
:106954005849D2E92523204601F058F82046BDE8DD
:10696400F84308F0ECBB514D5349204601F04EF872
:1069740095F86C309F0703D55049204601F046F83E
:1069840095F86F305E0603D54D49204601F03EF878
:1069940095F96F30002BE1DA4A49B8E7434D4A498B
:1069A400204601F033F895F86830980704D06A6CF3
:1069B4003F49204601F02AF895F96830002B04DAA3
:1069C4006A6F4249204601F021F800260127DFF8CA
:1069D4000881DFF81491AA6E07FA06F3134207D070
:1069E40058F8262013781BB14946204601F00EF8CA
:1069F4000136082EEFD1B1E72C4D3549204601F080
:106A040005F82B496A6C204601F000F895F86930C6
:106A1400590703D52F49204600F0F8FF95F969304E
:106A2400002B04DA6A6F2949204600F0EFFF08269C
:106A3400294FDFF8B480AB6EF340DA0707D557F877
:106A4400262013781BB14146204600F0DFFF0136B3
:106A5400102EF0D195F86830002B7FF47FAF1F49DA
:106A640055E7124D1E49204600F0D0FF6A6C1049CC
:106A7400204600F0CBFF1026174FDFF86C80AB6E7A
:106A8400F340DB0707D557F8262013781BB141469E
:106A9400204600F0BBFF01361A2EF0D15EE7114903
:106AA4004BE700BFF18B03002E8C03000000002095
:106AB4005E8C0300778C0300918C0300A98C030087
:106AC400E38C0300168D0300528D0300778D0300C1
:106AD4009B8D0300B28D0300808B0300F88D0300AF
:106AE400288E0300418E0300938D03002DE9F84F97
:106AF40006460025154C164FDFF85C80DFF85CA0D5
:106B040023785FFA85FB0BB9BDE8F88F57F8043B8F
:106B140022461049304600F064FF227804F101094E
:106B240082B9627882B10BF0030103290CBF41469C
:106B34005146304600F055FF304608F000FB013561
:106B44004C46DDE74C46E8E74146F2E76090030037
:106B540004000020E88B0300416E0300C2AC030074
:106B640000F00CB800F00AB800F008B800F006B85D
:106B740000F004B800F002B800F000B872B61EF0DD
:106B8400080F09D01EF0040F0DD0DFF850E0AEE876
:106B9400FF1F6FF002000CE0DFF840E0AEE8FF1FDB
:106BA4006FF00E0005E0DFF834E0AEE8FF1F6FF091
:106BB40006006946EFF309828EE807008646084816
:106BC400084C854501D3A54501D384F30888FFF714
:106BD40081FC84F3088817F077FE0000040000208D
:106BE400E00E002000180020FFF7C6BF0023042297
:106BF4001946184603F098BB064B012113F83020C0
:106C04003023534342F2100203F1804303F57033FF
:106C14009950704774970300064B012113F83020F4
:106C24003023534343F2100203F1804303F57033DE
:106C340099507047749703007047000000F07E631A
:106C4400B3F17E6F70B505460E46144616D106F0B4
:106C54005BFA18B19A210D48FFF722FC224631460F
:106C6400C5F30B0004F00AF8044606F05BFA5CB1C5
:106C74009D21BDE870400548FFF712BC520817F08B
:106C8400C1FD08B18F21F4E770BD00BF88970300F0
:106C940037B57F2A14BF154600254BF23462914262
:106CA400044619D17F2241F2020168460823FFF706
:106CB400EFFF0822264968462FF0EAFF30B908237F
:106CC4007F2241F2F0116846FFF7E2FF6B4603CBE7
:106CD4002060616003B030BD41F2F012914219D1DD
:106CE4001C4901388A6CC96C1D1F002BF2D0013B72
:106CF4009D4200F8012F4FEA1222F6D100220334FC
:106D04009A42E7D00132042A04F8011F4FEA112104
:106D1400F6D1DFE701F47042B2F5805F0BD11A4679
:106D2400C1F30B0404F17E6403FB054103B0BDE829
:106D340030402FF0BCBF01F46042B2F5005FC9D10E
:106D4400C1F30B0404491A46214403FB0511EDE782
:106D5400029803000080E00F00E0070070B50546CC
:106D640016461C46DBB14BF23463994210D1082C11
:106D740028BF08247F2241F202012346FFF788FF3F
:106D84002246074928462FF083FF40B941F2F0110B
:106D9400234632462846BDE87040FFF779BF70BDF0
:106DA400029803002DE9F7430446E0070F46154611
:106DB40003D5DD213448FFF773FBE90703D5DE2152
:106DC4003148FFF76DFB04F47043B3F5805F3ED1A7
:106DD400C4F30B0404F17E646B1E2C4A23449342D7
:106DE400264603D9E3212848FFF75AFBDFF8989099
:106DF40006EB050846453DD1A2070ED04FF6FF73BA
:106E040037F8022B02A943EA0243A01E41F8043DCD
:106E14000422FFF713FF0234023DAB070ED0023DFC
:106E240025F00103FB5A02A96FEA03436FEA1343F7
:106E3400042241F8043D6019FFF700FF25B12A46FA
:106E440039462046FFF7FAFE03B0BDE8F08304F4A8
:106E54006043B3F5005F05D10D4BC4F30B041C4430
:106E64002646C3E7EA210848FFF71AFB6FF00F062E
:106E74000024BBE716F8013BFF2BBBD0F4214846A6
:106E8400FFF70EFBB6E700BF88970300FF1FE00F74
:106E940000E00700FFF764BE1FB5144A01AB106899
:106EA4005168128903C31A8001238DF804300D231D
:106EB4008DF80A3003230E4C082124208DF80B3062
:106EC40002F080FF01A9204604F04DF94FF400615F
:106ED400022342F21800074AC2F884112350516079
:106EE40041F21C02A35004B010BD00BF0A98030075
:106EF4000080014A00E100E0014804F023B900BF2A
:106F04000080014AA52803D10021024804F00BB9EE
:106F1400704700BF0080014A024B586800F001002E
:106F2400704700BF0080014A024A536A002BFCD11B
:106F3400704700BF0080014A00207047002070475E
:106F44007047000007B572B603F0EDF88D4B8E491B
:106F54005B6940228B6000230B764B768B76F023A3
:106F6400CB760B774B778B77CA77802281F82020FA
:106F740081F82130E023602081F82230834B81F8AE
:106F8400232083F8002383F8012383F8022383F862
:106F9400032383F8042383F8052383F8062383F863
:106FA400072383F8082383F8092383F80A2383F843
:106FB4000B2383F80C2383F80D2383F80E2383F823
:106FC4000F2383F8102383F8112383F8122383F803
:106FD400132383F8142383F8152383F8162383F8E3
:106FE400172383F8182383F8192383F81A2383F8C3
:106FF4001B2383F81C2383F81D2383F81E2383F8A3
:107004001F2383F8202383F82103202083F82223DD
:1070140083F8232383F8242383F8252383F8262362
:1070240083F8272383F8282383F8292383F82A2342
:1070340083F82B0383F82C0383F82D2383F82E2362
:1070440083F82F2383F8302383F8312383F8322302
:1070540083F8332383F8342383F8352383F83623E2
:1070640083F8372383F8382383F8392383F83A23C2
:1070740083F83B2383F83C23CB6823F4E0631B04AD
:107084001B0C43F0BF6343F40133CB604B6943F003
:1070940010034B614FF4E0234B6204F0ADFEFFF7A5
:1070A40007FBEFF308834FF0CD31394A043B934299
:1070B40065D2384A002192B237482FF01CFE62B6DE
:1070C400684603F003FE354B9B6DDB0318D4344A4A
:1070D400136823F4FF0323F4FE4343F4BC1343F483
:1070E400A063136052F8043C23F4704343F4404318
:1070F40042F8043C52F8043C43F4E06342F8043C94
:107104009DF80130012B0FD19DF8003063B94FF089
:1071140000531B68234B1B68234B1B68234B1B68C2
:10712400234B1B68234B1B68234AD2F8803043F05F
:107134000303C2F8803005F0D0F902224FF0402357
:107144001A6704F08FFD01F089FB002300938DF88A
:107154000430012368468DF8033003F080F800F012
:10716400F5F817F043FC05F0BBF900F0FFF80FF059
:10717400AFFD12480EF0F0FF03B05DF804FB196098
:10718400043B94E70040000000ED00E000E100E073
:10719400A00E0020D00D0000A000002000C0004080
:1071A40034C00040004000200080002000C00020C7
:1071B40000000120004001200080004018C40300AA
:1071C40040F2016017F080BB04F04ABD04F049BDF1
:1071D400FEF73ABE08B500210B20FEF733FEBDE8EA
:1071E4000840FEF732BE08B1FDF788BBFDF785BB4A
:1071F400032000F09FBA000008B5FFF7A9FA044B7A
:107204000B289ABF00B203EB8000184608BD00BFEC
:107214005499030008B5FFF7A1FA044BC0F30F22F9
:1072240053F82230C0B203EB800008BD2499030058
:1072340010B5FFF78DFA0446FFF790FAC0B228B9EB
:10724400012C24D164F07F04E4B216E0072CF9D8B1
:1072540001A353F824F000BF7F72000049720000BC
:107264007D72000083720000837200008772000048
:107274008B7200008F7200000924204610BD022486
:10728400FBE70324F9E70B24F7E70624F5E70446B4
:10729400F3E700BF38B50D46044688BB284B4A1EA9
:1072A400186050425041013D08F00EFA032D46D8B3
:1072B400DFE805F002131E2001210846FDF71FFB3D
:1072C400FFF72AFE1F4B187010B1A520FFF71AFE16
:1072D400BDE83840012008F0F7B902210120FDF78C
:1072E4000EFBFFF719FE50B3BDE83840FFF71CBE94
:1072F4000421F3E705210120BDE83840FDF7FFBA7A
:10730400104B1B781BB101210F4803F00CFF631EC7
:1073140058425841013C08F00DFA032C0FD8DFE81D
:1073240004F002080A0C012008F004FA01210020EC
:10733400E2E70221FBE70421F9E70521F7E738BD7D
:10734400D8330020733A00200080014A42F22041E1
:10735400044AD2F820341B0C1B045350024A136015
:10736400704700BF00C00340D02C002008B504F0D3
:1073740007FE18B18C210448FFF792F8BDE80840D5
:107384000249034804F06CBE84990300C41D002024
:10739400142D0020134A1449D2F82434D2F820249E
:1073A4001340124A9BB21360D1F80001400102D588
:1073B4000868400106D4D1F80001800105D50968A8
:1073C400880102D543F480331360074BD3F80011CE
:1073D400490506D51B685B0542BF136843F40033B7
:1073E4001360704700C0034000E100E0D833002080
:1073F400012810B50AD0831E012B1CD904281CD0E7
:10740400052801D102F014FF002400E004462046C0
:107414000B4A012104F0E4FD02F07AFE02F087FE3B
:1074240004F044FE02F076FE2046BDE81040044A13
:10743400002104F0D5BD0224E9E70324E7E700BFF7
:10744400009A0300FFF7D4BF2DE9F04F89B00EF086
:1074540077FE0746002840F0DC806F4E6F4D3168A0
:10746400286816F0CDFB0446002827D033683C4634
:10747400D3E900019A6912689047336804A89B69AC
:107484009B689847336802209B69DB689847326899
:1074940005985368E7B2B3FBF0F3BB42916904F17A
:1074A400010442D8CB680020984733689B695B6825
:1074B40098473168286816F0A3FB04460026DFF8D5
:1074C4008891002C53D1564B4FEA8608F35C002B6D
:1074D40031D1A246534BF35C0193534B03EB080B9E
:1074E400019B5FFA8AF7BB42286853D84F4BF35C81
:1074F400002B3CD04C4B019F9844FBB27E2B286858
:1075040035D8D8F8003003AA07EB030A514602AB7A
:1075140016F0B8FD48452AD05146286816F0F8FD03
:10752400013704460028E8D021E012680B6907FB04
:1075340000209847ABE73C4B03AA53F82670286811
:1075440002AB394616F09EFD484507D078B9039B37
:10755400012B0CD03946286816F0DAFD344B394635
:1075640053F8083028681A6816F0B6FC0446013649
:10757400262EA6D1B4FA84F32E4A5B0913702E4B3F
:107584009C4240D02DD8002C32D0013B9C423ED0AE
:10759400C5242DE0DBF8003003AA1F44394602ABB2
:1075A40016F070FD48450AD010B10AF1010A97E7B8
:1075B400039B8BB9214B029AF35C9A42F5D01F4B83
:1075C4001B4A9B5D52F808203946286816F0EAFBEE
:1075D4000028EAD0044689E73946286816F098FD61
:1075E400EDE7174B9C4210D004339C42D0D1C12408
:1075F4002B681B7C1BB1D3211248FEF751FF204698
:1076040009B0BDE8F08FC324F2E7C424F0E7C22434
:10761400EEE7C624F3E700BF3C1E0020381E00201E
:1076240078750300B8740300C47503009E750300E5
:10763400E0740300673A002002E000F05C76030087
:1076440004E000F00A9A03000BE000F0252970B56D
:1076540006460C4615461AD8144A127822B3144A20
:107664001068144A52F82110134A125D3AB1324696
:1076740016F080FCC0B1BDE87040FDF70EBD7F2D53
:1076840008BF00253246294416F0D8FBF2E7FF294B
:1076940003D9BDE87040FFF761BB40F20111BDE8BA
:1076A40070400648FEF7FCBE70BD00BF673A00207C
:1076B400381E0020C4750300787503000A9A03007D
:1076C4002528F8B504460D46164619D814490978F4
:1076D40029B31449144F0868144951F824103C5D27
:1076E4003CB1126816F0F8FBC8B1BDE8F840FDF7EC
:1076F400D4BC7F2D08BF0025294416F053FBF3E7C3
:10770400FF2805D91A463146BDE8F840FFF74ABBC1
:107714004FF49A71BDE8F8400548FEF7C1BEF8BDC4
:10772400673A0020381E002078750300C4750300F2
:107734000A9A030008B5084B1B7863B1074B002273
:1077440053F82010064B186816F054FC18B1BDE825
:107754000840FDF7A2BC08BD673A0020C4750300C9
:10776400381E002070B5164685180AB9304470BD1D
:1077740001F00F030A2B34BF30243724013A234489
:10778400090905F8013DD2B2EFE70000F0B5F9B1FF
:1077940000281CDA2D23B0F1004F137000D04042B2
:1077A400012115E0801B8642ECB205F10105F9D9EF
:1077B40004B927B101274D1C30345454E9B20133C4
:1077C400092B09D1303050540131C8B2F0BD002129
:1077D40000231F46DFF808C05CF823600025E2E7B9
:1077E400809A03002DE9F04F4FF0000B95B002ACE6
:1077F40081468A4617461D465E46A0463B7863B9D5
:1078040002ABE41AE4B2224619465046C84700289F
:1078140040F093803444E0B290E0252B13D0BBF1C8
:10782400000F14D12370013412AB9C426DD3A4EB2E
:107834000804E4B2224641465046C84700287CD199
:107844002644F6B260E0BBF1000F00D101373B786B
:10785400632B00F092801BD8392B09D8302B80F091
:107864009E80002BCCD0252B51D04FF0000BDBE7B2
:10787400582B00F08B80622BF7D14FF0000B2B6854
:1078840001936B680093009B9B4543D10835ECE75B
:10789400702B1ED017D8642B01D06C2BE5D16C2B28
:1078A40005F1040B28686CD17B78752B14BF01217A
:1078B400002101D0642B00D101372246FFF766FF77
:1078C40004445D46D1E7752BE9D0782B5ED0732B49
:1078D400CBD1A4EB0804E4B2224602A9504605F138
:1078E400040B2D68C84740BB2644F6B2C4B22B5DD6
:1078F4000130002BFAD1224629465046C847E0B948
:107904005D4683462644F6B24446013776E7237043
:107914000134AAE7019B204613F80B100222FFF75B
:1079240021FF12AB984204460ED3A0EB0804E4B244
:10793400224641465046C84718B1002015B0BDE85C
:10794400F08F26444446F6B2009B013B5B4582BF60
:1079540020232370013412AB9C420BD3A4EB080404
:10796400E4B2224641465046C8470028E5D12644A1
:107974004446F6B20BF1010B85E72B6804352370FE
:10798400C6E7752B0CBF0021012196E72046022291
:107994002978FFF7E7FE05F1040B044691E77A78AE
:1079A40002F0DF02582A19D1322B07F1010B09D159
:1079B4000422204629882F1DFFF7D4FE3D460446A5
:1079C4005F4652E7342B09D12F1D2D680422290C60
:1079D4002046FFF7C7FE0422A9B2EDE74FF0010BE2
:1079E40022E70EB403B503AA52F8041B019207F070
:1079F40085FFC0B202B05DF804EB03B0704700002D
:107A04000149FFF7EEBF00BF416E03000EB433B56A
:107A140005AA52F8041B0546019207F06FFF0446BD
:107A24002846FFF7EDFFE0B202B0BDE8304003B0F6
:107A3400704708B507F062FFC0B208BD2DE9F04FEA
:107A44009B46584B85B01B78064689461546109FC1
:107A54009DF844A0DDF85080002B00F09280072AA6
:107A640000F291800E9B002B00F08D800F9B002B69
:107A740000F08980129BB3F5006F00F38480012825
:107A840001D1002F7FD0484B03EB05131B7B002B48
:107A94007BD0464C1022002168462FF02CF904EBD1
:107AA40045141022B9F1000F5CD1494620462FF04D
:107AB40022F9A37843F01003A370E37843F0300372
:107AC400E370BAF1000F03D1DBB243F00303E370B8
:107AD40036496A01129B885A013B63F30E100E9BD0
:107AE40001EB020C8852CCF808300F9B9DF84C1027
:107AF400CCF804309CF80330012E61F38303CDF8F5
:107B040000B08CF8033042D113230CF1100ECCF8E2
:107B14000C309CE80F008EE80F006FF00301DCF8D6
:107B24001C20B9F1010F61F39F02CCF81C20CCF8A2
:107B3400147004D10F9BCCF80470CCF818300027D3
:107B440019492A018B1841F80280159A28465A606F
:107B54009F605E732246694602F032FF384605B0E4
:107B6400BDE8F08F002120462FF0C5F81023A37044
:107B74000323E370BAF1000FAAD1DBB243F0300360
:107B8400A5E70B48EBE70B48E9E70B48E7E7B8F153
:107B9400000FD4D19CF8023068F304138CF802303F
:107BA400CDE700BFDF39002088240020D02B00203F
:107BB400028000F0018000F0078000F038B5104B1F
:107BC40005461B78BBB1C0B102F0B5FA00230D49DC
:107BD40001EB0312147B3CB92B6001231460137373
:107BE40002F0AFFA204638BD0133082BF0D102F081
:107BF400A8FA0548F7E70548F5E70548F3E700BFA5
:107C0400DF39002088240020048000F0028000F086
:107C1400018000F038B502F08EFA002305460A4AC6
:107C2400D1180C7B5CB91033802BF9D102F07AFEA9
:107C3400064B28461C7002F084FA204638BD2846BC
:107C440002F07FFA0248F9E788240020DF39002097
:107C5400058000F00D4B10B51B78044693B107283E
:107C640012D802F068FA0A4B03EB04131A7B2AB108
:107C740000241C7302F065FA204610BD02F061FA7C
:107C84000448FAE70448F8E70448F6E7DF39002037
:107C940088240020068000F0028000F0018000F0BB
:107CA400164B13B51868002301908DF8043002F0C8
:107CB40042FA134B1C7824B102F043FA114802B083
:107CC40010BD01221A7002F03CFA0F4B1C731C7792
:107CD40083F82C4083F83C4083F84C4083F85C40A4
:107CE40083F86C4083F87C4004230DEB03008DF88B
:107CF400073002F03BFE2046E1E700BFA49A0300F0
:107D0400DF390020038000F08824002010B588B0FB
:107D14000E9C009207940D9C024606949DF83040F8
:107D240005940B9C04949DF8284003940024CDE909
:107D3400013420460B462146FFF780FE08B010BDF3
:107D440010B588B00E9C009207940D9C02460694D0
:107D54009DF8304005940B9C04949DF828400394AE
:107D64000024CDE9013420460B460121FFF766FECD
:107D740008B010BD08B50A4B1B785BB107280BD8B7
:107D8400084B03EB00131B7B43B1002102F0DEFD23
:107D9400002008BD0448FCE70448FAE70448F8E773
:107DA400DF39002088240020028000F0018000F0E8
:107DB400078000F008B50A4B1B785BB107280BD885
:107DC400084B03EB00131B7B43B1012102F0BEFD02
:107DD400002008BD0448FCE70448FAE70448F8E733
:107DE400DF39002088240020028000F0018000F0A8
:107DF400078000F008B50A4B1B7853B107280AD84E
:107E0400084B03EB00131B7B3BB102F029FE00205F
:107E140008BD0548FCE70548FAE70548F8E700BF50
:107E2400DF39002088240020028000F0018000F067
:107E3400078000F00D4B1B7893B1072812D889B145
:107E44000B4B03EB00131B7B73B10A4BDA6A012360
:107E540003FA00F010401ABF00200B70087070473E
:107E6400054870470548704705487047DF390020CA
:107E74008824002000000440028000F0018000F00B
:107E8400078000F00B4B10B51B780C4663B1072834
:107E94000CD859B1084B03EB00131B7B43B102F020
:107EA400F1FD2060002010BD0448FCE70448FAE717
:107EB4000448F8E7DF39002088240020028000F01D
:107EC400018000F0078000F02DE9F843174B1F6D87
:107ED4005B6D1F4000D5FEE701260025144CDFF83A
:107EE4005480DFF85490374217D02368C8F80060F4
:107EF4009BB1A16862680131A16028469847637B01
:107F0400012B0AD148B909EB4513197B1A7F60F399
:107F1400410160F3410219731A770135082D4FEAC4
:107F2400460604F11004DED1BDE8F88300000440E5
:107F34008824002050200440D02B002070B5044633
:107F44000125084E04B970BD94FAA4F0B0FA80F08B
:107F540005FA00F324EA030456F82030002BF1D08C
:107F64009847EFE7242D00204FF00072044BC3F82C
:107F740080211A604FF08062C3F880211A60704734
:107F840000E100E038B504460D4602F0D4F8034B96
:107F940043F82450BDE8384002F0D3B8242D002023
:107FA400084BD3F82404D3F82024104042F2204292
:107FB40020F42A5020F02A004004400C9850FFF787
:107FC400BDBF00BF00C00340084BD3F82404D3F85E
:107FD4002024104042F2204220F4AA4020F0550010
:107FE4000004000C9850FFF7A9BF00BF00C0034075
:107FF400104A30B5136841611546ABB9106083600F
:1080040011E0091B9C6841611A467CB123465C69F6
:108014008C42F6D9002CF4D052B19060836013B135
:108024005A69511A596130BD0022F0E72346F4E73A
:108034002860F3E74833002010B500F01FFB094B1C
:10804400094A196831B11368C41A4B69A34203D3AE
:108054001B1B4B61106003E0C01A002310604B61CE
:1080640010BD00BF48330020A02F002038B50F4DAD
:1080740002202B685C690E4B1B681C4400F032FB29
:10808400204600F003FB00230A492A680B70D088BD
:10809400800702D501230B7038BD9268002AFBD0FB
:1080A40050690344012BF2D9F6E700BF483300209E
:1080B400A02F0020033A002070B59DF814501646F6
:1080C40005710025049A8560BDF818500446C580E2
:1080D4000260C0E903360D4629B961610BB111464E
:1080E400984796B1354602F026F80646FFF7A4FFF6
:1080F40029462046FFF77CFF054B1B68A34201D1AC
:10810400FFF7B4FF304602F01CF8002070BD00BF3A
:108114004833002000210C4A13687BB183420AD102
:10812400836879B18B6083681BB15A6941690A44D9
:108134005A610020704719469B68EEE70028EFD08B
:10814400022070471360EEE74833002070B501F059
:10815400F2FF144E05463478FCB9134B1C60134BE4
:108164001C60134B1C8000F04FFA012000F0BAFA97
:1081740000F006FB0F4B0246186020B9284601F0B8
:10818400E0FF232070BD23460B4840F2E7312EF078
:10819400BDFB0A4B186001233370284601F0D1FF60
:1081A4000020EFE7E539002048330020A02F00200D
:1081B400AA3600204433002018FCFFFFA82F00201B
:1081C4002DE9F0410546F8B101F0B5FF0F4F064621
:1081D400FFF732FF2846D7F80080FFF79BFF0446DD
:1081E40028B1304601F0ADFF2046BDE8F081A84536
:1081F4003B6803D123B1FFF739FFF2E7002BF0D13D
:10820400022000F07BFAECE72224EDE7483300205B
:10821400F0B50D4685B016461F46044680B1FFF7FB
:10822400CFFFBDF82C30002202939DF82830294658
:10823400CDE9007320463346FFF73EFF05B0F0BD9D
:108244002220FBE738B50C46054698B191B10023CE
:108254000B7001F070FF0121074B1B680BB12278F2
:108264001AB101F06EFF002038BD9D420CBF217091
:108274009B68F3E72220F7E748330020F0B51F4658
:10828400002387B00D4616468DF817300446A0B17A
:108294000DF11701FFF7D6FF9DF817207AB9BDF845
:1082A4003430294602939DF830302046CDE90073DE
:1082B4003346FFF701FF07B0F0BD2220FBE70320A0
:1082C400F9E70000F8B50C460646C8B1C1B101F0A3
:1082D40032FF0546FFF7B0FE73692360134B1B683A
:1082E400B3420FD023B9284601F02BFF03201CE032
:1082F400596922689B680A442260F1E700230FE071
:10830400222012E0276800F0B9F9094E3368C01A38
:108314008742F3D900F0B2F93368C01A23681B1AF4
:108324002846236001F00DFF0020F8BD48330020EB
:10833400A02F0020F8B507460E4601F0FCFE0024ED
:108344000546114B1B6823B9284601F0FAFE1B2091
:1083540015E05A691444DA88BA4213D100F08EF950
:108364000A4F3B68C01AA0420AD200F087F93B6862
:10837400C01A201A3060284601F0E3FE0020F8BD40
:108384000020F7E79B68DEE748330020A02F002099
:10839400014B1878704700BF033A002038B501F04C
:1083A400CAFE054600F06AF90446284601F0C9FEF3
:1083B400204638BD70B501F0BEFE064600F05EF9F9
:1083C400094B05461C880120A4B200F0AFF918B18E
:1083D40000F054F905460134304601F0B2FE0022A3
:1083E400214642EA050070BDAA360020014B1868F8
:1083F400704700BF443300200A4B10B51B680C467D
:1084040083420CD3084B4FF47A7219680023A0FB03
:1084140001012EF07BFA01302060002010BD2120E4
:10842400FCE700BFA82F002044330020104B10B5F8
:108434001A684FF47A73A0FB0301A2B1531E1342CE
:1084440011D1B2FA82F2C2F11F02C2F12004A2F1E8
:10845400200301FA04F420FA02F2224321FA03F37E
:1084640042EA030010BD00232EF050FAFAE700BFE1
:1084740044330020F8B516461BA3D3E900238B42EE
:1084840008BF82422AD3174B1A684FF47A73A0FBB1
:10849400034503FB0155C2B1531E13EA020014D174
:1084A400B2FA82F2C2F11F02C2F12007A2F1200146
:1084B40024FA02F305FA07F73B4325FA01F10B43CB
:1084C40025FA02F2C6E90032F8BD00232046294607
:1084D4002EF01CFAC6E900010020F5E72120F3E79D
:1084E400AFF3008044330020EFA7C64B3789410027
:1084F400C2072DE9F84F04460BD53F4A13880133D0
:108504009BB21380FFF798FD3C4B1B680BB1FFF740
:10851400ADFDA3076DD500F0B1F8394F00263D68D5
:108524008046451B01F007FEB24683463246334B74
:108534001C6814B16369AB4214D9012E314B51D17B
:10854400D288022A4ED11E70002C4ED06369C7F81F
:1085540000805D1B6561FFF789FD5846BDE8F84F53
:1085640001F0EFBD23462A46C7F8008059699142BD
:1085740009D8187994F804C0521A844588BF1C4657
:108584009B68002BF2D1584601F0DBFDD4F814B0FF
:10859400C4F814A001F0CFFD81462046FFF7BAFDD0
:1085A400484601F0CEFD23694BB101F0C4FD81467C
:1085B40021692046FFF71CFD484601F0C2FDE3682F
:1085C40013B121682046984700F058F8D844A5EB29
:1085D40008058146054401F0AEFD01368346224676
:1085E400C846A4E700221A70AEE7022000F086F81D
:1085F400B3E7BDE8F88F00BFAA3600204833002057
:10860400A02F00205C3A00201FB50024184B1868E6
:108614009A88029053F8060FADF80C201B7900904D
:1086240002A88DF804308DF808408DF80C4002F053
:10863400B3FA694601208DF8004002F071FA4FF058
:1086440090431F219A6922F01F029A61094A11601E
:108654009A6A12F00802FBD11A62012002F07AFA37
:108664004FF48062044BC3F880211A6004B010BD3B
:10867400A89A03001420004800E100E04FF0904362
:108684009A6A1207FCD4186A704700004FF09042AF
:10869400936A1907FCD4136A116C5269120704D443
:1086A400CA1A022A01D899420ED1C21A012A98BFC5
:1086B400981CB0F1FF3F28BF01304FF0904318647D
:1086C4009A6942F008029A61054A13783BB14FF067
:1086D4009041CB6B43F00203CB63002313707047CC
:1086E400DC21002082074FF0904200F001039169E1
:1086F40048BF43F008030B4393617047830700F0BE
:1087040001020AD50121084B42F0080219704FF00A
:108714009041CB6B23F00303CB634FF090418B6903
:1087240023EA02038B617047DC2100204FF0904361
:1087340001285B6904D0022805D1C3F3C000704747
:1087440003F00100704700207047000010B501F0ED
:10875400F2FC4FF0904304465B691A07074A03F0A2
:10876400010003F00D0348BF40F002001360FFF75F
:10877400BFFE2046BDE8104001F0E3BC14200048D1
:108784001C2001F0E1B90000002211462D48F0B58B
:1087940003682D4D54592CB11E68AC18002E3DD1E0
:1087A400234601210832282AF4D101B103600022B2
:1087B40014462649264E0B6895592DB11F68B518E5
:1087C400002F32D12B4601240832282AF4D104B1D7
:1087D4000B6000680368002B2FD04FF04022936F8A
:1087E400007923F0FF7323F4803343EA0043936753
:1087F400184B4FF0004209681A600B68FBB14FF048
:108804004022936F097923F4FF7323F001030B4390
:108814009367104B4FF080421A60F0BD1E792779A0
:10882400B74284BF23460121BCE71F7995F804C0F1
:10883400BC453CBF2B460124C6E7074BD9E7064B92
:10884400E8E700BF442E0020F4320020A42F0020CB
:108854001C330020685000406860004010B50122BD
:1088640028240F4B00211A700E4822462EF043FA9A
:10887400224600210C482EF03EFA0C4B0C4A1360A1
:108884000C4A13604FF040430B4A1360536020229C
:108894000A4BC3F880211A60FFF776FF002010BD51
:1088A400D8380020F43200201C330020043000208B
:1088B400442E0020A42F00206460004000E100E06A
:1088C4004FF04022D2F88800D2F88830C0F38800F4
:1088D400C3F388039842F5D16FF48873184440B207
:1088E400704700004FF04022936E526E10B5134053
:1088F40013F0804211D0114B1B681C682CB100216D
:1089040019605960FFF7DCFFA0474FF080420C4B21
:108914001A60BDE81040FFF737BF002BF9DA094BA6
:108924001B681C682CB11A605A60FFF7C9FF01214B
:10893400A047034B4FF00042EAE700BFA42F0020FA
:1089440064600040442E0020FFF7CCBF042203687B
:108954005A619A699207FCD541F2AC52102103790D
:108964005B0103F1804303F5703399507047012292
:1089740003685A619A69D207FCD541F2AC520421CA
:1089840003795B0103F1804303F570339950704719
:1089940038B141B1013AB2F5006F044838BF002044
:1089A4007047034870470148704700BF037000F0E8
:1089B400027000F038B504460D4601F0BCFBA288F5
:1089C40092B222B92A6001F0BCFB064838BD1422D9
:1089D400638802FB034308332B6001F0B2FB0020E1
:1089E400F4E700BF0B7000F038B504460D4601F003
:1089F400A2FBA3889BB223B92B6001F0A2FB0C4815
:108A040038BD14226388E18802FB034308332B60DA
:108A140063885A1C92FBF1F301FB13239BB263801E
:108A2400A388013B9BB2A38001F08BFB0020E7E706
:108A34000B7000F0F8B5044617460D4601F07BFBB9
:108A4400A388E28806469A4205D800233B6001F0D9
:108A540078FB1648F8BD1422238805F1100C02FB9C
:108A6400034308332A4603CA624518605960154611
:108A740003F10803F6D11068142218602388E188F2
:108A840002FB034308333B60238830465A1C92FBA5
:108A9400F1F301FB13239BB22380A38801339BB220
:108AA400A38001F04EFB0020D4E700BF0A7000F061
:108AB40090F83130022B0BD13022437F90F8210003
:108AC4005A43044B9B5823FA00F000F0010070470E
:108AD4000020704714C00340002313B51C4A52F809
:108AE400234094F8211081420ED00133042BF6D197
:108AF40002B010BD0028FBD19DF80730002BF7D041
:108B0400A068FFF737F9F3E794F83130022BEFD17F
:108B14002046FFF7CDFF637E2076022BE8D194F840
:108B24002E3003F0FF02002BE2D102A901F8012D3F
:108B3400A068FFF77FF9237E1BB194F82F30002B38
:108B4400D8D00023A06884F82F30FFF733F9CFE79B
:108B54004C33002038B5044601F0EDFA616B05464C
:108B64000139616319B9044A012003F039FA28462E
:108B7400BDE8384001F0E5BAD09A030038B50446A0
:108B840001F0D9FA636B054623B90121054A084669
:108B940003F026FA636B284601336363BDE838406B
:108BA40001F0CFBAD09A0300012230B590F83240D8
:108BB40087B080F82C207CB9094D0368CDE90245C3
:108BC40004904C682433CDE900240A684169C068E4
:108BD400FFF7B6F807B030BD002380F82C30F9E772
:108BE400419500000123F0B580F82D3090F8323023
:108BF40089B004460E4663BB056801F09CFA0DF18A
:108C04001F01074615483C35FFF71CFB40B99DF88A
:108C14001F302BB11148FFF7D3FA2046FFF79AFF14
:108C24003846012701F08DFA204684F83870FFF7A2
:108C3400A5FF0B4B049403930023029373682A4605
:108C4400CDE9007321693368A068FFF75FF809B0C4
:108C5400F0BD002380F82D30F9E700BFD03E00209E
:108C6400698C0000F0B585B003A9906A1446FFF73B
:108C7400A1FE0646206802F07DF90546FFF7B6FB23
:108C840024214143B1FBF5F100252346CDE90055EC
:108C9400164A01311648FFF7F1FA164B9E421FD0CF
:108CA400039B1D619D6001F046FA039A0746D6684E
:108CB40026B1D2E9002329462046B04703A9A06A79
:108CC400FFF792FEA06A83889BB263B103A9FFF702
:108CD40071FE03992046FFF785FF384601F031FA0B
:108CE400012005B0F0BD84F82D30F6E7FD8C0000BE
:108CF400D03E00200B7000F073B508680D468469FF
:108D040014F0200407D00846FFF724FF022385F857
:108D1400383002B070BD02F02DF90646FFF766FB4D
:108D240024225043B0FBF6F0CDE90044411C2B460D
:108D3400024A0348FFF7A2FAEBE700BFFD8C0000EC
:108D4400D03E00202DE9F3410D460446002800F0F2
:108D5400868001F0F0F9012D064637D1A36A9B887D
:108D64009BB2002B39D0A068FFF744F80023A06A17
:108D740084F82D3083889BB2002B34D12268936908
:108D84009B04FCD5023D012D1BD8E068FFF732F8A7
:108D94000023606A84F82C3083889BB2002B41D175
:108DA40094F83130032B0CD042F2AC5204212379D5
:108DB4005B0103F1804303F5703399500222236869
:108DC4005A61304601F0BDF9002009E0022D48D176
:108DD400636A9B889BB2002BD4D101F0B2F9264878
:108DE40002B0BDE8F08101A9FFF7E4FD0199A06894
:108DF4000831FFF747F8214F019B1F61A06A838860
:108E04009BB2002BBAD001A9FFF7EEFD019BD3F86A
:108E14000C80B8F1000FF1D09B680022394620463F
:108E2400C047EBE76946FFF7C5FD0099E0680831E4
:108E3400FFF728F8114F009B1F61606A83889BB27B
:108E4400002BADD06946FFF7CFFD009BDD68002DF8
:108E5400F3D09B68002239462046A847EDE708482E
:108E6400BEE7032D8ED1A36A9B889BB2002B7FF4AF
:108E74007AAF636A73E700BF087000F0097000F00E
:108E8400027000F0036898697047436A9888C0B21A
:108E940070472DE9F341984600230546406A0E4683
:108EA40084881746A4B2CDE900333CB16946FFF784
:108EB40081FD01A90446E868FEF7E4FF009969B161
:108EC40064B94868019BC01A3860C8F800300B6860
:108ED40033602B68986902B0BDE8F0810021C8F8BE
:108EE400001039603160F4E7836A9888C0B2704733
:108EF4002DE9F341984600230546806A0E4684888E
:108F04001746A4B2CDE900333CB16946FFF752FDE0
:108F140001A90446A868FEF7B5FF009969B164B9D0
:108F24004868019BC01A3860C8F800300B68336089
:108F34002B68986902B0BDE8F0810021C8F80010E0
:108F440039603160F4E7007E70472DE9F041044652
:108F54000F461546FFF71CFD064678BB152001F0A9
:108F64000FF98046A26A93889BB213B194F82E300D
:108F74003BB323689B6913F0020802D12046FFF734
:108F8400E5FC012384F8303094F8323033B93D44A1
:108F9400AF4220681BD183699B06FCD5B8F1000F52
:108FA4000CD142F2AC52102123795B0103F18043CE
:108FB40003F570339950082223685A613046BDE89E
:108FC400F081B8F1000FCED0FEF77EFFCAE717F8A4
:108FD400011B02F0A3F8DBE710B5044680B190F85A
:108FE4002E302BB9FFF764FD10B9A068FEF7C2FE5E
:108FF400002094F82E300133DBB284F82E3010BDFB
:109004000048FCE7027000F010B50446A0B190F8E7
:109014002E309BB190F82E30012B05D1FFF748FD7F
:1090240010B9A068FEF7C6FE002094F82E30013B6C
:10903400DBB284F82E3010BD0148FCE70148FAE7A2
:10904400027000F0057000F037B590F83150044616
:10905400022D1ED1012190F82220457E837F01FA42
:1090640002F23020154925B900FB031342F2100126
:1090740005E0012D07D100FB031341F210015A5002
:10908400002003B030BD247E00FB0313002CF4D178
:10909400ECE7012DF4D1037E73B911238DF8073069
:1090A400FFF79AFF2A460DF107012046FFF74DFF0F
:1090B4002046FFF7A9FFE3E71323EFE700C00340CF
:1090C400F0B504468BB0A24F03AE0D460FCF0FC6CA
:1090D40097E8070086E807001CB99E4C20460BB0B1
:1090E400F0BD0DB99C4CF9E73C22002120462DF03F
:1090F40002FE9A499A4B0A782AB9C3E90022C3E9C5
:10910400022201220A70002253F822108C420AD053
:109114000132042AF8D1002253F82210002940F029
:10912400D08043F822402B7D286884F83130002316
:10913400206084F832302B7B2371012384F838308B
:10914400884B984240F0C280212384F82330864B18
:1091540023614FF4802300266361D5E9072362620B
:1091640016805680968084F82C60A3621E805E80F0
:109174009E806B6803A90593EB8984F82D60ADF894
:109184001C302B8A84F82F60ADF81A30AB7C8DF834
:109194000C608DF81830EB7C8DF81E3005238DF8AB
:1091A400193001F03DFF14212A7B704B287A03EB20
:1091B4004217C7F8AC15A97A2E3240EA014C03EBEA
:1091C4004213C3F804C06A7AEB7A42EA034CC7F844
:1091D400BCC5E17784F820306B7DE0762277637735
:1091E400AB7D042284F82130EB7DA3772B7E84F8B9
:1091F4002230012301F098F80123022294F8201070
:10920400207F01F091F894F83130022B75D1334668
:10921400012294F82110607F01F086F8334604227D
:1092240094F82210A07F01F07FF8012394F8212004
:10923400607F1146CDE9003301F01CF800F07BFF9C
:109244002E7D0746032E69D141F2AC5202212B7BBD
:1092540004205B0103F1804303F57033995041F21C
:109264005C0229688850297EEA7D42EA014241F283
:10927400B8515A50A97D6A7D42EA014241F2B45183
:109284005A504FF0FF3242F248032868C2502B7DF7
:10929400032B0CBF0521042101F07CFE4FF4406236
:1092A4002B685A61FEF7FCFC002104F10800FEF76C
:1092B40085FC0146002842D02D4C384600F041FF81
:1092C4000CE70132042A7FF427AF06E7294B9842C2
:1092D40007D1222384F82330274B23614FF4A023A2
:1092E40039E7264B98427FF4FDAE232384F82330DC
:1092F400234B23614FF4C0232DE7032B9ED1334628
:1093040094F82110607F012201F00EF83346042204
:1093140094F82210A07F01F007F88FE7022EB0D155
:1093240094F821001749FEF72DFEFEF71DFE0023D9
:109334006676A37623762046FFF786FEA1E704F13E
:109344000C00FEF73BFC04460028B6D0B4E700BF8F
:10935400B49A0300027000F0037000F06C3A00202D
:109364004C330020008005400200040000C003408C
:109374000E7000F000C00540020005000000064029
:1093840002000600DD8A000090F83130032B05D07E
:109394000229417618BF0176FFF756BE0048704790
:1093A400057000F030B5044685B0002800F08F80C9
:1093B400484B1B7843B10023474A52F823108C4290
:1093C40070D1002142F8231003212046FFF7BAFC94
:1093D40000212046FFF7D8FF0023E17F1A46E07EF4
:1093E40000F0A2FF002394F820101A46207F00F01A
:1093F4009BFF94F83130022B58D1002394F82110AC
:109404001A46607F00F090FF002394F822101A4659
:10941400A07F00F089FF0021012394F82120607FC0
:10942400CDE90031114600F025FF94F8323013B92C
:109434000A2223685A6194F83130022B04D10021A6
:1094440094F82100FEF79EFDA068FEF703FCE06897
:10945400FEF700FCFEF7DEFB0023626A13805380F4
:109464009380A26A13805380938000F064FE0DF110
:109474000F0105461948FEF7E5FE28B99DF80F309F
:1094840013B11648FEF79CFE284600F05AFE636BA3
:10949400002B04DD012320466363FFF75BFB002000
:1094A40005B030BD0133042B87D18DE7032BBCD12C
:1094B400002394F821101A46607F00F035FF002342
:1094C40094F822101A46A07F00F02EFFADE704485E
:1094D400E6E700BF6C3A00204C330020D03E002069
:1094E400027000F0F0B587B004461646FFF750FA54
:1094F4000546E8B90493104BCDE901166A4601A963
:10950400606A03960593FFF795FA054680B994F8C7
:109514002C306BB92046FFF72AFA0099FFF744FB79
:1095240094F83130032B03D025762046FFF78CFDC9
:10953400284607B0F0BD00BF017000F073B5506A53
:1095440001A91446FFF736FA2F4B984230D094F80D
:109554003200019B002839D12268916C11F400710A
:1095640029D02A499860196142F248034FF40071E6
:10957400D15000F0E0FD01990646CD6835B14A6846
:109584008B682046D31A0A680969A84701A9606A4A
:10959400FFF72AFA606A8588ADB2DDB101A9FFF749
:1095A40009FA01992046FFF7FFFA304600F0C9FD99
:1095B400012002B070BD906CC00507D514489960B5
:1095C40018614FF4807142F24803D1E700221A6116
:1095D4009A60CEE7012320462376FFF735FD94F801
:1095E400313084F82C50032BDFD042F2AC520421EA
:1095F40023795B0103F1804303F570339950022210
:1096040023685A61D1E700BF0B7000F00D7000F0C1
:109614000C7000F090F8312010B5012A034610D1E7
:1096240002290ED0827E8A4201D1002010BD997693
:1096340011B9FFF7E9FCF8E70129F6D1FFF7CCFCF3
:10964400F3E70148F2E700BF057000F0F0B587B01A
:1096540004461646FFF79CF9054638BB0493154BA0
:10966400039605932368CDE901169B699B0702D4F1
:109674002046FFF76BF96A4601A9A06AFFF7DAF9F9
:10968400054698B994F82D3083B900F054FDA36AC7
:1096940006469B889BB233B100992046FFF7A2FA95
:1096A400012384F83030304600F04BFD284607B0E3
:1096B400F0BD00BF017000F070B588B00E2200212B
:1096C40004A82DF018FB01230D22002168468DF813
:1096D40010302DF010FB0223244C6A460021204652
:1096E4008DF8063001F07CFB236B4FF6FF73204EA0
:1096F400E36100233546ADF8123004A9204601F099
:1097040022FB062000F020FABDF812300133B0FB32
:10971400F3F09BB2B3F5806F3060ADF8123002D233
:10972400144B9842E9D80F2000F00EFA1249134C5A
:10973400B1FBF0F128680025E1FB0045104A002345
:10974400204629462DF0E2F80E4B084A1860002006
:109754000D4B1870936923F01003936140220B4B57
:10976400C3F880211A6008B070BD00BF00800440B7
:10977400202D002080841E0000B0710B20A1070062
:1097840040420F00FC2F0020663A002000E100E078
:10979400F7B500251D4B1E4C19681E4AE0FB014518
:1097A4000023204629462DF0B1F84FF6E854002551
:1097B4004FF6E75E4FF0FF37DFF860C0164E8D427C
:1097C40008BF844211D380B260B1144A516A89B28D
:1097D400536A9BB2ADF80630BDF806305B1A9BB2F3
:1097E4009842F5D8002003B0F0BDDCF8242092B2F2
:1097F400DCF824309BB2ADF80430BDF804309B1A79
:109804009BB27345F4D980197941D8E7202D002003
:1098140020A1070040420F001802FFFF008004400F
:10982400054B5A69D20606D542F21402102199500A
:109834000122024B1A70704700800440663A0020EF
:1098440038B5124B0546D3F820310C4603F0070314
:10985400013B032B17D8DFE803F0020A0E1201F0D4
:10986400D1FC042305B1286004B1237038BD01F094
:10987400FFFC0323F6E701F017FD0523F2E701F0EF
:109884000FFD0223EEE700231846EBE700800040BB
:1098940037B50C460021114B0191D3F880310546B0
:1098A40003F00303022B0ED0032B11D0012B03D1A1
:1098B40001A8FFF7C5FF0D210DB1019B2B6004B179
:1098C400217003B030BD01F0EFFC05210190F3E7F6
:1098D40001F0E6FC02210190EEE700BF00800040A9
:1098E40038B5104B0546D3F840310C4603F003035A
:1098F400022B0BD0032B0DD0012B0FD101F018FD3F
:10990400082305B1286004B1237038BD01F016FDA9
:109914000723F6E701F00FFD0923F2E700231846B9
:10992400EFE700BF0080004038B5104B0546D3F880
:1099340060310C4603F00303022B0BD0032B0DD034
:10994400012B0FD101F0F4FC082305B1286004B108
:10995400237038BD01F0F2FC0723F6E701F0EBFCBD
:109964000923F2E700231846EFE700BF0080004018
:1099740038B5134B0546D3F800320C4603F0070301
:10998400013B032B18D8DFE803F0020A0E1201F0A2
:10999400CFFC082305B1286004B1237038BD01F061
:1099A400CDFC0723F6E701F0C6FC0923F2E701F03A
:1099B40049FC0C23800AEDE700231846EAE700BFC0
:1099C4000080004038B5134B0546D3F808320C46E6
:1099D40003F00703013B032B18D8DFE803F0020A66
:1099E4000E1201F0A5FC082305B1286004B1237010
:1099F40038BD01F0A3FC0723F6E701F09CFC092322
:109A0400F2E701F01FFC0C23800AEDE7002318465F
:109A1400EAE700BF0080004038B5104B0546D3F894
:109A240040320C4603F00303022B0BD0032B0DD062
:109A3400012B0FD101F07CFC082305B1286004B18F
:109A4400237038BD01F07AFC0723F6E701F073FCBC
:109A54000923F2E700231846EFE700BF0080004027
:109A640038B5104B0546D3F800310C4603F0030318
:109A7400022B0BD0032B0DD0012B0FD101F0F8FBDF
:109A8400032305B1286004B1237038BD01F056FCEE
:109A94000723F6E701F002FC0623F2E70123002086
:109AA400EFE700BF0080004041F671320F4B10B564
:109AB400D969DA639A680E4C22F44012A04288BF36
:109AC40042F480129A600B4A0B4CD2F81832A0422E
:109AD40023F0020388BF43F0020301F48031C2F88B
:109AE400183211B10022014BDA6310BD00000340AB
:109AF400C017530200C0074080F0FA0208B501F015
:109B0400B3FBBDE80840FFF7CFBF000002280CD02C
:109B140007D8012814D10B4B186FC0F30130013062
:109B24007047032807D00F28F4E7064BD3F89000BA
:109B3400C0F30460F3E7034B186FC0F38020EEE733
:109B44000020ECE700800040002307B5019325289E
:109B540017D8DFE800F0131A1D262B353A3F444985
:109B64004E535866161A3F1616441A262B26351AD3
:109B74003F26663A3A3A3A262626494E01F048FBF1
:109B84000190019803B05DF804FB01F05BFBF7E77B
:109B940001F03EFB02460220FFF7B8FFB2FBF0F0F3
:109BA400EEE701F04FFB02460320F5E701F04AFB24
:109BB40002460320FFF7AAFFB2FBF0F04008DFE7FC
:109BC400002101A8FFF764FEDBE7002101A8FFF7ED
:109BD40037FED6E7002101A8FFF782FED1E7002176
:109BE40001A8FFF7A1FECCE7002101A8FFF7C0FE02
:109BF400C7E7002101A8FFF7E5FEC2E7002101A89D
:109C0400FFF72EFFBDE7094BD3F8803003F00303C1
:109C1400022BBAD0032B01D00020B1E701F044FBA2
:109C2400AEE7002101A8FFF7F7FEAAE70080004095
